:100000000C9412010C943A010C943A010C943A01AC
:100010000C943A010C943A010C943A010C94E110BE
:100020000C943A010C943A010C943A010C943A0164
:100030000C943A010C943A010C943A010C943A0154
:100040000C9495110C943A010C9463110C943D118D
:100050000C943A010C943A010C943A010C943A0134
:100060000C94DF110C943A014E414E494E495459BB
:10007000494E46CDCCCC3D0AD7233C17B7D1387773
:10008000CC2B329595E6241FB14F0A000020410089
:1000900000C84200401C4620BCBE4CCA1B0E5AAED3
:1000A000C59D7400000000240027002A0000000005
:1000B00000230026002900000000080002010000C3
:1000C00003040700000000000000006265666F7214
:1000D000652072656164206C6973740A00537461F1
:1000E00072742070726F6772616D0A00696E76615A
:1000F0006C696420636F6E660024554E4B4E4F57FB
:100100004E3B00244B303B0A00244F4B3B0A00245B
:100110004F4B3B0A0054656C656D657472792064C1
:10012000697361626C65640A0054656C656D657421
:10013000727920656E61626C65640A00244F4B3BE6
:100140000A00244F4B3B0A00244F4B3B0A00636FCD
:100150006E66696720726573657465640A00244B76
:100160004F3B0A00244F4B3B0A0024656E643B0A58
:10017000002473746172743B0A0024656E643B0A48
:10018000002473746172743B0A00244F4B3B0A00D5
:100190005468727573744375727665204C69737414
:1001A0003A200A0024656E643B0A0024737461726D
:1001B000743B0A005265636F7264696E67200A00BF
:1001C0006E6F7420612076616C696420546872756A
:1001D000737443757276650024656E643B0A00246F
:1001E00073746172743B0A0045726173650A0001A1
:1001F00002040810204080010204081020010204BB
:1002000008102000000000250028002B0004040432
:1002100004040404040202020202020303030303AF
:100220000302FE1211241FBECFEFD8E0DEBFCDBF08
:1002300024E0AAE0B2E001C01D92A43AB207E1F7BF
:1002400012E0A0E0B1E0EAEDF9E402C005900D9201
:10025000AA30B107D9F711E0C2E1D1E004C021977B
:10026000FE010E941421C131D107C9F70E94651314
:100270000C94EB240C940000982F2091080381E04B
:10028000213208F043C08091E4028111FCCF8091BB
:10029000070332E03093E4029093E3029FEF9093E0
:1002A000E2021092E1022093E002A7EEB2E0E0EC5D
:1002B000F2E090E0291331C01092BF029091BF028A
:1002C000880F892B8093BF028091BE02813049F54F
:1002D0001092BE028091BF028093BB008091BC004F
:1002E00083FDF8CF85EC8093BC008091E4028230DE
:1002F000E1F38091E2028F3FB1F08091E20280321F
:10030000A1F08091E202803391F084E01092E60245
:10031000109208031092E50208953D9131939F5F7A
:10032000C9CF85EEE0CF80E0F1CF82E0EFCF83E070
:10033000EDCFEFEBF3E090E080E04181528163810B
:100340007481452B462B472B29F00196389689312D
:10035000910599F70197089508950895AF92BF9276
:10036000CF92DF92EF92FF920F931F93CF93DF9381
:100370006C017B018B01040F151FEB015E01AE18B0
:10038000BF08C017D10759F06991D601ED91FC91D2
:100390000190F081E02DC6010995892B79F7C501FF
:1003A000DF91CF911F910F91FF90EF90DF90CF9051
:1003B000BF90AF900895FC01538D448D252F30E000
:1003C000842F90E0821B930B541710F0CF96089562
:1003D00001970895FC01918D828D981761F0A28D8F
:1003E000AE0FBF2FB11D5D968C91928D9F5F9F7355
:1003F000928F90E008958FEF9FEF0895FC01918D0B
:10040000828D981731F0828DE80FF11D858D90E077
:1004100008958FEF9FEF0895FC01918D228D892F14
:1004200090E0805C9F4F821B91098F7399270895FC
:1004300089E093E00E940C0221E0892B09F420E07E
:10044000822F089580E090E0892B29F00E94180205
:1004500081110C9400000895FC01A48DA80FB92F00
:10046000B11DA35ABF4F2C91848D90E001968F73DC
:100470009927848FA689B7892C93A089B1898C91FB
:10048000837080648C93938D848D981306C002884A
:10049000F389E02D80818F7D80830895EF92FF9214
:1004A0000F931F93CF93DF93EC0181E0888F9B8D97
:1004B0008C8D98131AC0E889F989808185FF15C051
:1004C0009FB7F894EE89FF896083E889F989808174
:1004D0008370806480839FBF81E090E0DF91CF9143
:1004E0001F910F91FF90EF900895F62E0B8D10E065
:1004F0000F5F1F4F0F731127E02E8C8D8E110CC0D4
:100500000FB607FCFACFE889F989808185FFF5CF1E
:10051000CE010E942C02F1CFEB8DEC0FFD2FF11DCF
:10052000E35AFF4FF0829FB7F8940B8FEA89FB895B
:1005300080818062CFCF0F931F93CF93DF938C0185
:10054000D0E0C0E0F801EC0FFD1F6491662341F09C
:1005500089E093E00E944E02892B11F02196F2CFA0
:10056000CE01DF91CF911F910F910895CF93DF932B
:10057000EC01888D8823B9F0AA89BB89E889F989BB
:100580008C9185FD03C0808186FD0DC00FB607FCF0
:10059000F7CF8C9185FFF2CF808185FFEDCFCE0123
:1005A0000E942C02E9CFDF91CF910895833081F032
:1005B00028F4813099F08230A9F008958730A9F0AD
:1005C0008830C9F08430B1F4809180008F7D03C001
:1005D000809180008F7780938000089584B58F7715
:1005E00084BD089584B58F7DFBCF8091B0008F7757
:1005F0008093B00008958091B0008F7DF9CFCF93A4
:10060000DF93282F30E0F901E954FF4F8491F9017D
:10061000E151FE4FD491F901E35FFD4FC491CC232A
:10062000A1F081110E94D602EC2FF0E0EE0FFF1F27
:10063000E355FF4FA591B491EC91ED2381E090E05B
:1006400009F480E0DF91CF91089580E090E0FACF47
:100650001F93CF93DF93282F30E0F901E954FF4F28
:100660008491F901E151FE4FD491F901E35FFD4F0F
:10067000C491CC23A9F0162F81110E94D602EC2F31
:10068000F0E0EE0FFF1FED5FFD4FA591B4918FB726
:10069000F894EC91111108C0D095DE23DC938FBF44
:1006A000DF91CF911F910895DE2BF8CF90910A0131
:1006B00089130BC0E1E2F2E0E4919FEF90930A010D
:1006C000E13049F028F0E23061F060E00C9428035A
:1006D00010926E00FACF90916F009D7F90936F0003
:1006E000F4CF909170009D7F9093700091E0909373
:1006F000B0009091B100987F94609093B1001092F7
:10070000B300E3CFCF93DF9390E0FC01E151FE4FC4
:100710002491835F9D4FFC0184918823C9F090E070
:10072000880F991FFC01ED55FF4FA591B491FC0175
:10073000ED5FFD4FC591D49161110DC09FB7F89445
:100740008C91209582238C938881282328839FBFB6
:10075000DF91CF910895623051F49FB7F8943C91A6
:10076000822F809583238C93E8812E2BEFCF8FB738
:10077000F894EC912E2B2C938FBFEACF4F925F927F
:100780006F927F928F929F92AF92BF92CF92DF92A1
:10079000EF92FF920F931F93CF93DF9300D000D07F
:1007A0001F92CDB7DEB78C0149835A836B837C835C
:1007B00080910A018430C9F08F3F09F47DC00F9009
:1007C0000F900F900F900F90DF91CF911F910F918D
:1007D000FF90EF90DF90CF90BF90AF909F908F9061
:1007E0007F906F905F904F900895E1E2F2E08491E6
:1007F0008D8387FDE4CF61E084E00E9482038D81D8
:10080000882321F09D81923009F044C14801B12C28
:10081000A12C60E072E18AE790E0A50198010E94B6
:10082000F52029013A017A01690181E0C81AD1084D
:10083000E108F1089FEFC916D104E104F10409F0C1
:100840000CF4F7C060E472E48FE090E0A501980139
:100850000E94F52069017A0181E0C81AD108E108F7
:10086000F1089D81923009F098C08FEFC816D1042D
:10087000E104F10409F00CF4CAC160E970ED83E011
:1008800090E0A50198010E94F52069017A0191E0AC
:10089000C91AD108E108F1088FEFC816D104E104A4
:1008A000F10411F00CF065C183E09091B100987FE4
:1008B000892B8093B100C5C084E080930A01E1E2F6
:1008C000F2E094919D839F3F09F479CF913029F113
:1008D00058F0923009F43FC09D8197FD70CF61E0E0
:1008E00084E00E9482038ECF14BC15BC84B5826064
:1008F00084BD85B5816085BDE1E1F2E0E491F0E081
:10090000EE0FFF1FED5FFD4F85919491E3EFF1E056
:10091000E491E0938F021D826ECF109280001092BE
:1009200081008091810088608093810080918100A6
:10093000816080938100E1E1F2E0E491F0E0EE0F6C
:10094000FF1FED5FFD4F85919491E3EFF1E0E4919E
:10095000E0938E0250CF1092B0001092B1008091BF
:10096000B00082608093B0008091B100816080937C
:10097000B100E1E1F2E0E491F0E0EE0FFF1FED5F86
:10098000FD4F8591949190938D0280938C02E3EFBB
:10099000F1E0E491E0938B022ECF9FEFC916D104D2
:1009A000E104F10409F00CF473C068E478EE81E02E
:1009B00090E0A50198010E94F52069017A0181E08B
:1009C000C81AD108E108F1089D81992309F4EAC009
:1009D0009FEFC916D104E104F10409F00CF4E0C062
:1009E000EAC064E274EF80E090E0A50194010E9407
:1009F000F52069017A0181E0C81AD108E108F108FF
:100A000085E09FEFC916D104E104F10409F008F470
:100A10004CCF62E17AE780E090E0A50194010E946A
:100A2000F52069017A0181E0C81AD108E108F108CE
:100A3000D5C081E09D81911138CF95B5987F892BE4
:100A400085BDD801AA0FBB1F29813A814B815C81EA
:100A50000E945C1F28EE33E040E050E00E94D3206B
:100A60008D81813009F44AC0823009F459C0811166
:100A7000A6CEC7BC209398023093990240939A0265
:100A800050939B0280916E00826080936E0097CE9F
:100A900082E0D0CFB12CA12C60E072E18AE790E037
:100AA000A50198010E94F52069017A0181E0C81A28
:100AB000D108E108F108C114D10491E0E906F1047C
:100AC00064F491E08D81813009F0BBCF8091810089
:100AD000887F892B80938100B4CF68E478EE81E031
:100AE00090E0A50198010E94F52069017A0181E05A
:100AF000C81AD108E108F10893E0E4CFD092890048
:100B0000C0928800209394023093950240939602FD
:100B10005093970280916F00826080936F004FCE58
:100B2000C092B300209390023093910240939202BE
:100B300050939302809170008260809370003FCE4A
:100B400084E09FEFC916D104E104F10409F008F430
:100B500074CF730162019AE0F594E794D794C79437
:100B60009A95D1F781E0C81AD108E108F10885E02B
:100B700064CF68E478EE81E090E0A50198010E94DE
:100B8000F52069017A0191E0C91AD108E108F1085C
:100B90008FEFC816D104E104F10411F00CF021CF5D
:100BA00084E083CE83E09FEFC916D104E104F10411
:100BB00009F00CF442CF62E17AE780E090E0A50111
:100BC00094010E94F52069017A0181E0C81AD108D8
:100BD000E108F1089D81992309F4B2CF86E09FEFE7
:100BE000C916D104E104F10409F008F45ECE7301E2
:100BF00062012AE0F594E794D794C7942A95D1F737
:100C000081E0C81AD108E108F10887E04ECE82E001
:100C10004CCE3FB7F8948091560290915702A09124
:100C20005802B091590226B5A89B05C02F3F19F074
:100C30000196A11DB11D3FBFBA2FA92F982F88275C
:100C4000BC01CD01620F711D811D911D42E0660F37
:100C5000771F881F991F4A95D1F708958F929F9209
:100C6000AF92BF92CF92DF92EF92FF926B017C0125
:100C70000E9409064B015C01C114D104E104F10496
:100C8000B9F00E940906681979098A099B09683E2A
:100C900073408105910580F321E0C21AD108E10873
:100CA000F10888EE880E83E0981EA11CB11CE4CFE9
:100CB000FF90EF90DF90CF90BF90AF909F908F907C
:100CC00008952FB7F8946091520270915302809169
:100CD0005402909155022FBF0895089585ED809399
:100CE000BC008091BC0084FDFCCF1092E40208950A
:100CF00020912E02260F3327331F21323105ECF4C9
:100D00002091E402FC0190E080E0243069F082E070
:100D10000895A0912E022191AC01425F5D4FA40F76
:100D2000B52FB11D2C930196861798F380912E0252
:100D3000680F60932E0280E0089581E00895089581
:100D4000E0919D0280919C02E81730F4F0E0E256B9
:100D5000FD4F808190E008958FEF9FEF089590916F
:100D60009D0280919C022FEF3FEF981748F4E92FE6
:100D7000F0E0E256FD4F208130E09F5F90939D02AE
:100D8000C901089580919C0290919D02891B990B45
:100D90000895CF92DF92EF92FF920F931F93CF931C
:100DA000DF937C01CB018A012091E502222389F0A7
:100DB000EB016B01C40ED51ECC15DD0569F0699100
:100DC000D701ED91FC910190F081E02DC7010995CB
:100DD000F3CF642F0E947806C801DF91CF911F9155
:100DE0000F91FF90EF90DF90CF900895CF93DF9316
:100DF0001F92CDB7DEB769832091E5022223F9F077
:100E000020910803203258F021E030E0FC013383C8
:100E1000228390E080E00F90DF91CF910895809140
:100E2000E602E82FF0E0E951FD4F998190838F5F52
:100E30008093E6028093080381E090E0ECCF61E0CC
:100E4000CE0101960E947806F7CF3F924F925F92B3
:100E50006F927F928F929F92AF92BF92CF92DF92CA
:100E6000EF92FF920F931F93CF93DF932B013C01DF
:100E70007A01890120E2C22ED12C332433943BEC39
:100E8000A32E37E0B32EC091B603D091B703809163
:100E9000B9039091BA039E012150310924213521D3
:100EA000C21BD30B9601281B390B0217130708F43A
:100EB00098012C173D0708F4E9012091B803B3010C
:100EC000A20104C076956795579547952A95D2F764
:100ED0009090B203942A3092E50290920703109208
:100EE000E60210920803029741F49927872D762D88
:100EF000652D86EA93E00E94F606642D86EA93E06B
:100F00000E94F606AE01B70186EA93E00E94C90688
:100F100081E00E943C01811125C084E6882EC50134
:100F20000197F1F73092E502909207031092E602E2
:100F3000109208038091B9039091BA03029729F4A3
:100F400060E086EA93E00E94F60660E086EA93E0BD
:100F50000E94F60681E00E943C018823A9F08A9451
:100F60008110DDCFDF91CF911F910F91FF90EF9016
:100F7000DF90CF90BF90AF909F908F907F906F90B9
:100F80005F904F903F9008954C0E5D1E611C711C48
:100F9000EC0EFD1E0C1B1D0B09F075CFE3CF8091ED
:100FA000BB039091BC03A091BD03B091BE03883CEC
:100FB0009105A105B10548F028EC30E040EC53E084
:100FC00060E070E0CB010E94250788EC90E0089576
:100FD00090E080E00895FC01480F591F90E080E008
:100FE0002191820F911D27FD9A954E175F07C1F73A
:100FF00099270895CF93DF93CDB7DEB76A970FB6E1
:10100000F894DEBF0FBECDBF1092600210925F0257
:1010100080E096E9A0E0B0E08093610290936202E4
:10102000A0936302B093640284E190E0909366021F
:1010300080936502109268021092670280E092E04D
:1010400090936A02809369028AE090E090936C0228
:1010500080936B0281E090E090936E0280936D022A
:1010600082E89CE8AFEFBFEF80936F02909370022D
:10107000A0937102B093720282E093E4A9E0B0E021
:101080008093730290937402A0937502B0937602DA
:101090008AE1EFE5F2E0DE01119601900D928A956A
:1010A000E1F7FE013196AE01475E5F4F90E080E0D0
:1010B000E417F50731F02191820F911D27FD9A95D4
:1010C000F7CF90937802809377026A960FB6F894E0
:1010D000DEBF0FBECDBFDF91CF9108952F923F921B
:1010E0004F925F926F927F928F929F92AF92BF9238
:1010F000CF92DF92EF92FF920F931F93CF93DF93E4
:101100004B015C016A0189017724739433243A947A
:1011100095EE592E25EC422EC091B603D091B7031F
:101120008091B803A501940104C056954795379561
:1011300027958A95D2F7F090B203F22A7092E502D1
:10114000F09207031092E602109208038091B9030F
:101150009091BA03029741F499278B2D7A2D692D2E
:1011600086EA93E00E94F606682D86EA93E00E94E4
:10117000F60681E00E943C01682E81116FC08091CB
:10118000E4028111FCCFCE01019788219921C81B6F
:10119000D90BC8010132110510F080E290E08C17E4
:1011A0009D0708F4EC019C2F7092E4027092E30218
:1011B0003092E2021092E1028C2F81508093E00283
:1011C0007092BF028091BF02FF0CF82AF092BF021A
:1011D0008091BE02813089F51092BE028091BF02DB
:1011E0008093BB008091BC0083FDF8CF4092BC008F
:1011F0008091E4028130E1F38091E102891710F4DB
:101200009091E102A0ECB2E0EEE9F2E080E0891317
:1012100017C010929D0280939C02212CE22CF12C8D
:10122000EC16FD0688F486EA93E00E94AF06F6010C
:10123000EE0DFF1D80832394F1CF5092BC00D8CFD8
:101240002D9121938F5FE3CF8C0E9D1EA11CB11CAD
:10125000CC0EDD1E0C1B1D0B09F05ECF862DDF9121
:10126000CF911F910F91FF90EF90DF90CF90BF90A3
:10127000AF909F908F907F906F905F904F903F9036
:101280002F9008958091BB039091BC03A091BD0362
:10129000B091BE03883C9105A105B10548F028EC4A
:1012A00030E040EC53E060E070E0CB010E946E085B
:1012B00088EC90E00895FF920F931F93CF93DF93F4
:1012C000F82E062FC7E0D0E010E061E0802F0E94EA
:1012D00028038F2D0E94FF020C2E01C0880F0A9454
:1012E000EAF7182B60E0802F0E942803219768F707
:1012F000812FDF91CF911F910F91FF900895EF9271
:10130000FF920F931F93CF93DF93809194040E94D9
:10131000FF02892B31F060E070E0CB010E942E06C5
:10132000F4CFDFB7F89460919304809194040E9405
:101330005B09082F60919304809194040E945B09DB
:10134000C82F60919304809194040E945B09182F28
:10135000F12CE12C809195048E151F0479F070F02A
:1013600061E0809193040E94280360E080919304DF
:101370000E9428038FEFE81AF80AECCFDFBF6C2F2A
:1013800070E090E080E0982F872F762F6627802BE3
:10139000612B000F000B10E030E020E0302F2227FF
:1013A00011270027602B712B822B932BDF91CF917C
:1013B0001F910F91FF90EF900895CF92DF92EF92DF
:1013C000FF92CF93DF930E947F096B017C0160E065
:1013D00070E0CB010E942E06C1E9D4E08D819E8190
:1013E000AF81B885A7019601281B390B4A0B5B0B0F
:1013F000CA01B9010E94261E29853A854B855C8564
:101400000E941A20DF91CF91FF90EF90DF90CF9054
:1014100008950E94DD0920E030E0A9010E94C22069
:1014200018165CF40E94DD0920E030E04AE754E43D
:101430000E94851E0E948C2008950E94DD0990580C
:10144000F3CFFC0101900020E9F73197AF01481B71
:10145000590BBC0189E093E00C94AE018F929F92EE
:10146000AF92BF920F931F93CF93DF93CDB7DEB7A9
:10147000A1970FB6F894DEBF0FBECDBF19A24230C0
:1014800008F44AE08E010F5D1F4F842E912CB12C81
:10149000A12CA50194010E94D320E62FB901CA0115
:1014A000EA30F4F4E05DD801EE938D01232B242B78
:1014B000252B79F790E080E0109719F0CD010E947C
:1014C000210AA1960FB6F894DEBF0FBECDBFDF9103
:1014D000CF911F910F91BF90AF909F908F900895E3
:1014E000E95CE1CFCF92DF92EF92FF92CF93DF934F
:1014F0006B017C016DE289E093E00E944E02EC01F9
:1015000066277727CB016C197D098E099F094AE070
:101510000E942E0A8C0F9D1FDF91CF91FF90EF90BC
:10152000DF90CF900895CF93DF9397FF0CC00E9478
:10153000720AEC018DE391E00E94210A8C0F9D1F3D
:10154000DF91CF9108954AE00E942E0AF2CFCF9307
:10155000DF930E94210AEC018DE391E00E94210AB1
:101560008C0F9D1FDF91CF910895CF92DF92EF9264
:10157000FF92CF931092090182E08093930483E05D
:101580008093940461E082E00E94820362E0809193
:1015900094040E94820381E08093950480916F02FD
:1015A00090917002A0917102B0917202892B8A2BE6
:1015B0008B2B61F482E89CE8AFEFBFEF80936F0262
:1015C00090937002A0937102B093720280917302A3
:1015D00090917402A0917502B0917602892B8A2BAA
:1015E0008B2B61F482E093E4A9E0B0E08093730276
:1015F00090937402A0937502B0937602CAE0C12C56
:10160000D12C76010E947F09C60ED71EE81EF91E56
:1016100060E070E0CB010E942E06C15099F7C7012F
:10162000B6012AE030E040E050E00E94F520CA0117
:10163000B9010E94261E0E948C206093960470932C
:101640009704809398049093990460937302709325
:1016500074028093750290937602C0906F02D090CE
:101660007002E0907102F0907202C701B6010E9410
:10167000261E60939A0470939B0480939C0490931D
:101680009D04C701B6010E94930A60917302709194
:10169000740280917502909176020E94930A80E410
:1016A00091E0CF91FF90EF90DF90CF900C94A70A3C
:1016B0000C94210ACF93DF930E949B02EC018DE3EF
:1016C00091E00E94210A8C0F9D1FDF91CF91089518
:1016D0002F923F924F925F926F927F928F929F9242
:1016E000AF92BF92CF92DF92EF92FF920F931F9330
:1016F000CF93DF93CDB7DEB7C758D1090FB6F894B3
:10170000DEBF0FBECDBFFC0123E0EE0FFF1F2A9509
:10171000E1F7E154FC4F81809280A380B48029ECF2
:1017200082169104A104B10408F4E1C0CC57DF4F44
:1017300099838883C458D0404580568067807084E0
:10174000C12CD12C76018FEF481A580A680A780A02
:10175000FE013396CE57DF4FF983E883C258D0405D
:101760008E0107581F4FC8010296CA57DF4F998351
:101770008883C658D04082E5282E81E0382E841414
:101780009504A604B70408F0B2C04091BB03509181
:10179000BC036091BD037091BE03D501C4010896DE
:1017A000A11DB11D481759076A077B0740F028E0C3
:1017B00030E048E854E0C501B4010E946E0899E0A9
:1017C000890E911CA11CB11C1A821982CE57DF4FC1
:1017D000E881F981C258D04026E711922A95E9F7AD
:1017E000F80111821082CA57DF4FE881F981C6588B
:1017F000D04027E011922A95E9F7809188049091D2
:101800008904A0918A04B0918B04C80ED91EEA1EE7
:10181000FB1E6CE471E0CE0101960E943F22CB5783
:10182000DF4F8881C558D0408F93CC57DF4F9881C8
:10183000C458D0409F933F922F921F930F930E94C2
:101840004A22B801CE0101960E943F22FF92EF92F8
:10185000DF92CF923F922F921F930F930E944A22C2
:10186000B801CE0101960E943F2280918F048F9390
:1018700080918E048F9380918D048F9380918C043E
:101880008F933F922F921F930F930E944A22B80189
:10189000CE0101960E943F2248E750E060E070E0F0
:1018A000CE0101960E94EB079F938F93E6E5F1E04E
:1018B000FF93EF931F930F930E944A22B801CE012A
:1018C00001960E943F2266E072E0CE0101960E94DE
:1018D0003F2289E591E00E94580BCE0101960E94BB
:1018E000580B0FB6F894DEBF0FBECDBF48CFC95717
:1018F000DF4F0FB6F894DEBF0FBECDBFDF91CF91A3
:101900001F910F91FF90EF90DF90CF90BF90AF901D
:101910009F908F907F906F905F904F903F902F900F
:1019200008958F929F92AF92BF92CF92DF92EF92E3
:10193000FF920F931F93CF93DF93CDB7DEB7EC9752
:101940000FB6F894DEBF0FBECDBFF62EE72ED82E11
:10195000C92EB22EA32E942E852E1A821982FE0134
:10196000339680E3DF011D928A95E9F71CAA1BAA32
:10197000F29688E0DF011D928A95E9F76BE571E048
:10198000CE0101960E943F22CF92DF92EF92FF920A
:1019900082E5C82E81E0D82EDF92CF927E01B3E39C
:1019A000EB0EF11CFF92EF920E944A22B701CE018A
:1019B00001960E943F228F929F92AF92BF92DF9238
:1019C000CF92FF92EF920E944A22B701CE01019678
:1019D0000E943F22B801CE0101960E943F2265E796
:1019E00071E0CE0101960E943F2242E350E060E0A8
:1019F00070E0CE0101960E94EB079F938F9386E5DE
:101A000091E09F938F93FF92EF920E944A22B70139
:101A1000CE0101960E943F2266E072E0CE0101965F
:101A20000E943F2289E591E00E94580BCE01019669
:101A30000E94580B0FB6F894DEBF0FBECDBFEC96D8
:101A40000FB6F894DEBF0FBECDBFDF91CF911F91CF
:101A50000F91FF90EF90DF90CF90BF90AF909F904D
:101A60008F9008954F925F926F927F92AF92BF9244
:101A7000CF92DF92EF92FF920F931F93CF93DF935A
:101A8000CDB7DEB7C05AD1090FB6F894DEBF0FBE8E
:101A9000CDBF1A821982FE01339624E9DF011D921F
:101AA0002A95E9F78E0109561F4FF80111921192FC
:101AB00028E0DF011D922A95E9F720915E0222239A
:101AC00009F4DCC07A01A92EB82EC72ED62E0E94AA
:101AD000610640900A0250900B0260900C027090D8
:101AE0000D02DC01CB0184199509A609B709A701EC
:101AF000FF0C660B770B481759076A077B0708F03E
:101B0000BDC00E94610660930A0270930B0280932D
:101B10000C0290930D0268E671E0CE0101960E94DE
:101B20003F22809185028F93809184028F938091D0
:101B300083028F93809182028F9342E5E42E41E0ED
:101B4000F42EFF92EF921F930F930E944A22B80146
:101B5000CE0101960E943F22AF92BF92CF92DF92B8
:101B6000FF92EF921F930F930E944A22B801CE0179
:101B700001960E943F2263E771E0CE0101960E9428
:101B80003F22EFEBF3E00FB6F894DEBF0FBECDBF00
:101B900090E080E04181528163817481452B462B26
:101BA000472B29F0019638968931910599F723E062
:101BB000880F991F2A95E1F7FC01E954FC4F6581D4
:101BC0007681878190850E94261E20E030E040E8E3
:101BD00057E30E94851E20E030E048EC52E40E946A
:101BE000851E0E948C207F936F9332E5E32E31E0B7
:101BF000F32EFF92EF921F930F930E944A22B80197
:101C0000CE0101960E943F220E94990101969F9366
:101C10008F93FF92EF921F930F930E944A22B80175
:101C2000CE0101960E943F2246E950E060E070E05C
:101C3000CE0101960E94EB079F938F9386E591E07A
:101C40009F938F931F930F930E944A22B801CE0156
:101C500001960E943F2266E072E0CE0101960E944A
:101C60003F2289E591E00E94580BCE0101960E9427
:101C7000580B0FB6F894DEBF0FBECDBFC056DF4F76
:101C80000FB6F894DEBF0FBECDBFDF91CF911F918D
:101C90000F91FF90EF90DF90CF90BF90AF907F902B
:101CA0006F905F904F9008954F925F926F927F92E6
:101CB0008F929F92AF92BF92CF92DF92EF92FF925C
:101CC0000F931F93CF93DF931092090181E08093CC
:101CD0005E02409165025091660228EE33E0429F19
:101CE000C001439F900D529F900D1124092E000CAE
:101CF000AA0BBB0B8093000190930101A0930201FA
:101D0000B0930301C1E079EC872E912CA12CB12C6A
:101D1000809109018111DBC10E94090A00918602AC
:101D2000109187022091880230918902601B710B0B
:101D3000820B930B609382027093830280938402E0
:101D4000909385028091810281112EC0C0938102FF
:101D500048EC50E060E070E0CB010E94320D0E9440
:101D6000610660937D0270937E0280937F02909360
:101D70008002809104018823B9F0E0917902F0910A
:101D80007A0263E0EE0FFF1F6A95E1F7E154FC4F22
:101D90008091050190910601A0910701B091080181
:101DA00081839283A383B483412C512C3201D0913F
:101DB0008102DD2309F4ACCF0E94090A009186025A
:101DC000109187022091880230918902601B710B6B
:101DD000820B930B60938202709383028093840240
:101DE000909385020E94610600917D0210917E020F
:101DF00020917F02309180026B017C01C01AD10AD0
:101E0000E20AF30A48EC50E0C701B6010E94320D25
:101E100080910401882309F447C0D701C6018419C1
:101E20009509A609B7098093880490938904A09323
:101E30008A04B0938B048091820290918302A091D6
:101E40008402B091850280938C0490938D04A093BA
:101E50008E04B0938F048091050190910601A091AA
:101E60000701B0910801893F2FEF9207A105B10545
:101E70000CF4C7C0E0917902F0917A0253E0EE0FC2
:101E8000FF1F5A95E1F7E154FC4F0197A109B109F1
:101E900085839683A783B087109204016AE070E07F
:101EA00080E090E00E942E060E94610640907D0234
:101EB00050907E0260907F027090800264197509D4
:101EC000860997094090000150900101609002013D
:101ED00070900301461657066806790608F08EC012
:101EE000E0917902F0917A0243E0EE0FFF1F4A95EC
:101EF000E1F7E154FC4F8091050190910601A0911A
:101F00000701B09108010197A109B1098583968362
:101F1000A783B0870E94CF076AE070E080E090E07E
:101F20000E942E06C09309010E94610640907D0226
:101F300050907E0260907F02709080026419750953
:101F40008609970944E650E00E94320D1092810202
:101F50000E94610640907D0250907E0260907F0258
:101F600070908002641975098609970944E650E06B
:101F70000E94320D10925E020E9442090E94990155
:101F8000AC01092E000C660B770B77FF7CC010921A
:101F9000790210927A0210927B0210927C02809257
:101FA000050190920601A0920701B09208010E94DB
:101FB0009901AC01092E000C660B770B4F3F2FEFF8
:101FC000520762077207C1F048315105610571057A
:101FD00091F023E0880F991F2A95E1F7FC01E15465
:101FE000FC4FD1E085819681A781B0858D3D9F4FC3
:101FF000A105B1050CF0D0E0D09304012601370112
:10200000D6CE40907D0250907E0260907F0270900C
:1020100080020E946106641975098609970944E6E1
:1020200050E00E94320D609105017091060180918F
:102030000701909108012B013C0128E0420E511C40
:10204000611C711C0091BB031091BC032091BD0366
:102050003091BE03041515052605370530F028E03C
:1020600030E048E854E00E9425078FEF481A580AEC
:10207000680A780A409205015092060160920701B1
:10208000709208010BCF33E0880F991F3A95E1F762
:10209000FC01E154FC4F85819681A781B0850196B2
:1020A000A11DB11D8093050190930601A093070126
:1020B000B09308014F5F5F4F6F4F7F4F409379029E
:1020C00050937A0260937B0270937C0270CFDF9111
:1020D000CF911F910F91FF90EF90DF90CF90BF9025
:1020E000AF909F908F907F906F905F904F900895EA
:1020F0000C94B6210F931F93CF93DF930FE512E05B
:10210000C0E2D0E0F80161918F01CE010E944E1F24
:102110002196CA33D105B1F7DF91CF911F910F916D
:102120000895EF92FF920F931F93CF93DF93CDB754
:10213000DEB76A970FB6F894DEBF0FBECDBF0E9420
:10214000FA078FE5E82E82E0F82E00E210E0C801E1
:102150000E94461FF70181937F010F5F1F4F0A33D3
:102160001105A9F740917702509178028AE1EFE5D5
:10217000F2E0DE01119601900D928A95E1F7FE01E1
:102180003196BE01675E7F4F30E020E0E617F7072B
:1021900031F08191280F311D87FD3A95F7CF81E00D
:1021A0004217530709F080E06A960FB6F894DEBF35
:1021B0000FBECDBFDF91CF911F910F91FF90EF9098
:1021C00008951F920F920FB60F9211242F933F93F1
:1021D0004F935F936F937F938F939F93AF93BF932F
:1021E000EF93FF938091900290919102A0919202BF
:1021F000B0919302892B8A2B8B2BD1F190918B027A
:10220000E0918C02F0918D028081892780838091FA
:10221000900290919102A0919202B09193021816AF
:1022200019061A061B069CF4809190029091910267
:10223000A0919202B09193020197A109B1098093F4
:10224000900290939102A0939202B0939302FF9117
:10225000EF91BF91AF919F918F917F916F915F911E
:102260004F913F912F910F900FBE0F901F90189597
:1022700080910A010E945603EACF1F920F920FB677
:102280000F9211242F933F934F935F936F937F93FC
:102290008F939F93AF93BF93EF93FF9389E093E066
:1022A0000E942C02FF91EF91BF91AF919F918F916E
:1022B0007F916F915F914F913F912F910F900FBE42
:1022C0000F901F9018951F920F920FB60F92112426
:1022D0002F938F939F93EF93FF93E0911903F091C6
:1022E0001A038081E0911F03F091200382FD1BC03F
:1022F0009081809122038F5F8F7320912303821737
:1023000041F0E0912203F0E0E75FFC4F958F80936E
:102310002203FF91EF919F918F912F910F900FBE0C
:102320000F901F9018958081F4CF1F920F920FB6D7
:102330000F9211242F933F938F939F93AF93BF934B
:102340008091520290915302A0915402B091550293
:102350003091510223E0230F2D3758F50196A11D2E
:10236000B11D209351028093520290935302A09387
:102370005402B09355028091560290915702A09159
:102380005802B09159020196A11DB11D80935602C9
:1023900090935702A0935802B0935902BF91AF9106
:1023A0009F918F913F912F910F900FBE0F901F9093
:1023B000189526E8230F0296A11DB11DD2CF1F92BA
:1023C0000F920FB60F9211242F933F934F935F9369
:1023D0006F937F938F939F93AF93BF93EF93FF93ED
:1023E0008091B900887F803609F44AC0F0F58832C0
:1023F00009F4A7C018F5803109F49BC0B8F488230C
:1024000009F4F9C0883009F494C0FF91EF91BF91AD
:10241000AF919F918F917F916F915F914F913F917C
:102420002F910F900FBE0F901F901895883109F4CF
:1024300088C0803251F78093E20214C0803409F4DE
:102440009DC040F48033B9F38833F9F68093E202FB
:1024500085ECB0C0803509F485C0883509F496C094
:10246000883499F60E946E06D0CF883909F48CC062
:1024700038F5883729F050F4883611F0803729F67E
:1024800083E08093E4021092500257C0883809F428
:102490007BC0803919F0803809F0B7CF80915002A5
:1024A000803208F071C0E091500281E08E0F80937D
:1024B00050028091BB00F0E0E05DFD4F80833DC0A5
:1024C000803B39F0E0F4803A09F479C0883A09F0A9
:1024D0009CCF84E08093E40210922F0210922E028F
:1024E000E0915C02F0915D02099580912E028111CC
:1024F0000FC081E080932E0210920E0209C0803C32
:1025000009F4A6CF883C09F4A3CF883B09F07DCF1E
:10251000E0912F0281E08E0F80932F02F0E0E25FC6
:10252000FD4F80818093BB0090912F0280912E02FD
:1025300029C08091BF028093BB0085EC8093BC00D2
:1025400064CF9091E1028091E002981758F5E091F4
:10255000E10281E08E0F8093E102F0E0E054FD4F54
:102560008081E9CFE091E10281E08E0F8093E1026A
:102570008091BB00F0E0E054FD4F80839091E10238
:102580008091E0029817C8F285E8D8CFE091E10287
:1025900081E08E0F8093E1028091BB00F0E0E05477
:1025A000FD4F80838091E30281115CCF81E08093B5
:1025B000BE0284EA8093BC001092E40226CF85EC30
:1025C0008093BC001092E40280915002803230F47B
:1025D000E0915002F0E0E05DFD4F1082609150020A
:1025E00070E0E0915A02F0915B0280E392E009957D
:1025F000109250020ACF1092E20234CFE9E0F3E0E9
:102600001382128288EE93E0A0E0B0E08483958389
:10261000A683B78325E131E03183208325EC30E0C8
:102620003587248724EC30E03787268720EC30E09C
:10263000318B208B21EC30E0338B228B22EC30E08D
:10264000358B248B26EC30E0378B268B118E128E47
:10265000138E148EE6EAF3E013821282848395834C
:10266000A683B78387E291E091838083E2EBF3E076
:1026700080E092E09283818381E0838380E490E034
:102680009583848380E5808380E090E0A1E0B0E0E2
:1026900081879287A387B48782E090E090878783C1
:1026A00080E18683E1E9F4E089E391E0918380832E
:1026B000158216821782108680E090E0A0E8BFE3C2
:1026C00081879287A387B4870895CF93DF93CDB78F
:1026D000DEB7CB54D1400FB6F894DEBF0FBECDBFEE
:1026E000789484B5826084BD84B5816084BD85B5ED
:1026F000826085BD85B5816085BD80916E008160F9
:1027000080936E001092810080918100826080939E
:1027100081008091810081608093810080918000A0
:102720008160809380008091B10084608093B100CB
:102730008091B00081608093B00080917A008460C5
:1027400080937A0080917A00826080937A008091F1
:102750007A00816080937A0080917A00806880930B
:102760007A001092C10010929D0210929C02109269
:10277000E602109208031092E40281E08093E302E3
:102780001092BE0261E082E10E94280361E083E1D1
:102790000E9428038091B9008E7F8093B9008091B8
:1027A000B9008D7F8093B90088E48093B80085E4F8
:1027B0008093BC008CEA91E090935D0280935C0270
:1027C0008DEA91E090935B0280935A020E949110EF
:1027D000811104C00E94FA070E947A108091610260
:1027E00090916202A0916302B09164028C3221E068
:1027F0009207A105B10509F477C0803B34E0930747
:10280000A105B10509F470C0803649E09407A1051F
:10281000B10509F469C0803C52E19507A105B105F5
:1028200009F462C08038E5E29E07A105B10509F40C
:102830005BC08034F8E39F07A105B10509F454C0DB
:1028400081152BE49207A105B10509F44DC080382C
:1028500030E79307A105B10509F446C0811546E9A3
:102860009407A105B10509F43FC0811551EE950704
:10287000A105B105C9F18115E2EC9E07E1E0AE07C3
:10288000B10591F181159448A340B10569F180E04B
:1028900096E9A0E0B0E08093610290936202A09379
:1028A0006302B09364028AE1EFE5F2E0DE01AF5E1D
:1028B000BE4F01900D928A95E1F7FE01EF5EFE4F4B
:1028C000AF01485E5F4F90E080E04E175F0731F048
:1028D0002191820F911D27FD9A95F7CF9093780251
:1028E000809377020E947A1080E096E9A0E0B0E041
:1028F0008093610290936202A0936302B09364029A
:10290000E0911903F0911A0382E08083E0911503AE
:10291000F09116031082E0911703F091180383E3FE
:10292000808310922103E0911D03F0911E0386E045
:102930008083E0911B03F0911C0380818061808380
:10294000E0911B03F0911C03808188608083E091FB
:102950001B03F0911C03808180688083E0911B033E
:10296000F0911C0380818F7D808362E080E00E9473
:10297000820360E08AE00E9482038DED90E00E9475
:102980009B020E94B50A61E084E00E94820360E03D
:1029900084E00E94280348EE53E060E070E090E09D
:1029A00080E00E94BE036CED75E080E090E00E9444
:1029B0002E0684E00E94560387E791E00E94580BA0
:1029C00002E310E00E94090A01501109D9F70AE058
:1029D00010E0C12CD12C76010E94090AC60ED71E28
:1029E000E81EF91E62E370E080E090E00E942E068F
:1029F0000150110989F7C701B6010E94261E20E087
:102A000030E040E251E40E941A200E948C20609342
:102A100086027093870280938802909389028BECE0
:102A200090E00E949B020E9442090E949901AC0121
:102A3000092E000C660B770B77FFC1C0109279024C
:102A400010927A0210927B0210927C0289EC90E044
:102A5000A0E0B0E08093050190930601A0930701E8
:102A6000B09308010E949901AC01092E000C660B7D
:102A7000770B4F3F2FEF520762077207C1F04831C3
:102A800051056105710509F4BEC043E0880F991F27
:102A90004A95E1F7FC01E154FC4F85819681A781BD
:102AA000B0858D3D9F4FA105B1050CF0ACC081E014
:102AB0008093040183E991E00E94A70AAE01475880
:102AC0005F4FC95CDE4F59834883C753D1401E0115
:102AD00055ED251A5EEF350AC1010296C65BDE4F41
:102AE00099838883CA54D140DE011396C75CDE4FB8
:102AF000B983A883C953D14010E000E030E2F32E3F
:102B0000BBE3FB1609F492C080918A0281113BC09D
:102B10000E94090A8090860290908702A090880205
:102B2000B0908902681979098A099B096093820229
:102B30007093830280938402909385028091810236
:102B4000882391F00E94610680907D0290907E0221
:102B5000A0907F02B0908002681979098A099B09C8
:102B600048EC50E00E94320D8AE00E94FF0201977B
:102B700009F050C044EF51E060E070E0CB010E94EA
:102B8000320D0E94610689E093E00E940C02892BBD
:102B900009F4B6CF89E093E00E94EA01F82EEBE356
:102BA0008E17E9F1FAE08F1771F3E9E7F0E0EC0F27
:102BB000FD1FE00FF11F80830F5F1F4FE4CFE3E0A5
:102BC000880F991FEA95E1F7FC01E154FC4F8581DC
:102BD0009681A781B0850196A11DB11D8093050145
:102BE00090930601A0930701B09308014F5F5F4FD8
:102BF0006F4F7F4F4093790250937A0260937B022C
:102C000070937C022FCF1092040185E891E00E941E
:102C1000A70A50CF109209010E94540EB2CFE9E7E3
:102C2000F0E0EC0FFD1FE00FF11F1082CE0187587E
:102C30009F4F0E94A70AEA968FADEA978536B9F5AD
:102C400088EE91E00E945A0BEFEBF3E087E894E006
:102C500011821282138214821582168217821086C4
:102C600038968E179F07A1F70E94CF07109279021E
:102C700010927A0210927B0210927C0229EC30E0D2
:102C800040E050E020930501309306014093070196
:102C90005093080180E090E0892B09F42DCF0E9429
:102CA0001802882309F420CF0E9400001DCF82372C
:102CB00039F5EB968FADEB978983EC968FADEC975A
:102CC0008823B9F08A831B82CE0101960E94431C9F
:102CD00097FD11C08FED91E00E949B02CE010196FD
:102CE0000E94251C0E94680B88ED91E00E949B02C7
:102CF000D1CF1A82E9CF80EC91E00E945A0BCACF63
:102D0000873739F484EB91E00E945A0B0E94540EED
:102D1000C1CF8E3609F064C01A8219828CE1C75C7B
:102D2000DE4FA881B981C953D1401D928A95E9F738
:102D3000F1011182108287E0C65BDE4FA881B98164
:102D4000CA54D1401D928A95E9F78BEA91E00E941E
:102D50009B026CE971E0CE0101960E943F220E9425
:102D6000990101969F938F9382E591E09F938F93B2
:102D70003F922F920E944A22B101CE0101960E94F9
:102D80003F224EE150E060E070E0CE0101960E94EB
:102D9000EB079F938F9386E591E09F938F933F92EC
:102DA0002F920E944A22B101CE0101960E943F2239
:102DB00066E072E0CE0101960E943F2289E591E033
:102DC0000E94580BCE0101960E94580B84EA91E0B4
:102DD0000E949B020FB6F894DEBF0FBECDBF5ACF44
:102DE0008C3609F048C080E991E00E945A0B0E949D
:102DF00042090FEB13E0C12CD12C7601F80181813F
:102E00009281A381B481892B8A2B8B2B09F442CF29
:102E10008EEA91E00E94580B4AE0C701B6010E9479
:102E20002E0A8DE391E00E94210A80EC91E00E943D
:102E3000580BD80111966D917D918D919C911497AD
:102E40000E94930A88EC91E00E94580BF80165817A
:102E50007681878190850E94930A085F1F4FFFEF5C
:102E6000CF1ADF0AEF0AFF0A29E1C216D104E104F2
:102E7000F10421F60FCF833609F036C229E730E09E
:102E80002C0F3D1F2F5F3F4FDE011196CD01B90181
:102E9000C95CDE4F48815981C753D140641B750B13
:102EA000F90141919F01442311F04D93F0CFFB01B3
:102EB000E80FF91F10820E94211CCB5BDE4F688354
:102EC00079838A839B83C554D14060916F0270914E
:102ED000700280917102909172020E94261E4B0135
:102EE0005C01209196043091970440919804509190
:102EF0009904C45CDE4F288339834A835B83CC53B7
:102F0000D14080929A0490929B04A0929C04B0922B
:102F10009D040E948C209B01AC010EEC11E0C45C6E
:102F2000DE4F688179818A819B81CC53D1400E9498
:102F3000910C0E94DD0920E030E0A9010E94C2202E
:102F400018160CF0BFC00E94DD092B013C0134E6CD
:102F5000C75BDE4F3883C954D140C55CDE4F188251
:102F6000CB53D14041E0CC5BDE4F4883C454D140C9
:102F70000E94DD0920E030E0A9010E94C22018165D
:102F80000CF0A9C00E94DD09C05CDE4F6883798324
:102F90008A839B83C054D140CB5BDE4F288139812B
:102FA0004A815B81C554D140C05CDE4F6881798124
:102FB0008A819B81C054D1400E94AD1F6B017C016E
:102FC00020E030E0A9010E94C22018160CF091C048
:102FD0002AE037ED43E25CE3C701B6010E94C2205C
:102FE00087FF96C0C501B4010E948C206B017C0153
:102FF000C0926F02D0927002E0927102F09272025F
:10300000C45CDE4F88819981AA81BB81CC53D140B9
:103010008093730290937402A0937502B09376022A
:103020000FED11E0A7019601BC01CD010E94910CAA
:10303000C45CDE4F288139814A815B81CC53D14009
:1030400020939604309397044093980450939904E6
:1030500060916F0270917002809171029091720282
:103060000E94261E60939A0470939B0480939C0494
:1030700090939D04A7019601C45CDE4F688179811D
:103080008A819B81CC53D1400E94910C8AE1EFE56B
:10309000F2E0DE01A950BF4F01900D928A95E1F751
:1030A000FE01E950FF4FAF01485E5F4F90E080E0C6
:1030B0004E175F0709F40FC12191820F911D27FD63
:1030C0009A95F6CF0E94DD092B013C0177FA7094A6
:1030D00077F870943CCF0E94DD099B01AC015058F9
:1030E000C05CDE4F288339834A835B83C054D14060
:1030F00053CF2AE037ED43E25CEBC701B6010E94F3
:103100001F1E18160CF46ECFF7FAF094F7F8F0942F
:10311000CB5BDE4F288139814A815B81C554D14028
:10312000C301B2010E94AD1F2B013C0120E030E041
:10313000A9010E94C220181624F077FA709477F83B
:103140007094A3019201C701B6010E941F1E87FF60
:103150008CC0CC5BDE4F3881C454D140313009F48F
:1031600067C3C05CDE4F288139814A815B81C054CE
:10317000D140CB5BDE4F688179818A819B81C554C8
:10318000D1400E94C22018160CF06FC0C55CDE4F03
:103190004881CB53D1404F5FC55CDE4F4883CB5352
:1031A000D14051E0CC5BDE4F5883C454D140C55C64
:1031B000DE4FB881CB53D140B330A8F0C75BDE4FB0
:1031C000E881C954D140E13071F08E2F6AE00E944D
:1031D000C720C75BDE4F8883C954D140C55CDE4F32
:1031E0001882CB53D140C75BDE4F2881C954D140F0
:1031F000CC5BDE4F3881C454D1403203B00111247E
:10320000072E000C880B990B0E94261E9B01AC0117
:10321000C501B4010E94AE1F4B015C0180929A046B
:1032200090929B04A0929C04B0929D040E948C20DA
:103230009B01AC0103ED11E0C45CDE4F6881798134
:103240008A819B81CC53D1400E94910C65E070E053
:1032500080E090E00E942E06C05CDE4F48805980DE
:103260006A807B80C054D14083CEA3019201C70104
:10327000B6010E94C22087FD9ACFCC5BDE4F8881C9
:10328000C454D1408F3F09F492CFC05CDE4F2881F7
:1032900039814A815B81C054D140CB5BDE4F68816C
:1032A00079818A819B81C554D1400E941F1E87FF6E
:1032B0007ECFC55CDE4F9881CB53D1409F5FC55C0C
:1032C000DE4F9883CB53D140AFEFCC5BDE4FA8836A
:1032D000C454D1406CCF90937802809377020E94BF
:1032E0007A108AE891E002CD8136A1F481E891E07C
:1032F0000E949B0210E000E00E9499018017910754
:1033000034F0C8010E94680B0F5F1F4FF5CF8AE7AA
:1033100091E0ECCC823609F02DC181E791E00E946A
:103320009B021A82198286E7C75CDE4FA881B981A9
:10333000C953D1401D928A95E9F7F101118210829B
:1033400088E0C65BDE4FA881B981CA54D1401D9286
:103350008A95E9F70E949110811104C08CEE90E0EB
:103360000E949B0264EE71E0CE0101960E943F2212
:10337000809160028F9380915F028F9302E511E04C
:103380001F930F933F922F920E944A22B101CE01C8
:1033900001960E943F2265EF71E0CE0101960E94E6
:1033A0003F2265E771E0CE0101960E943F221F9205
:1033B00081E08F931F930F933F922F920E944A2296
:1033C000B101CE0101960E943F221F921F921F93CE
:1033D0000F933F922F920E944A22B101CE01019693
:1033E0000E943F22809164028F93809163028F93A9
:1033F000809162028F93809161028F938FEF91E0B1
:103400009F938F933F922F920E944A22B101CE0147
:1034100001960E943F2280916C028F9380916B02F3
:103420008F931F930F933F922F920E944A220FB6C1
:10343000F894DEBF0FBECDBFB101CE0101960E9450
:103440003F22809166028F93809165028F931F9334
:103450000F933F922F920E944A22B101CE01019612
:103460000E943F22809168028F93809167028F9320
:103470001F930F933F922F920E944A22B101CE01D7
:1034800001960E943F2280916A028F938091690287
:103490008F931F930F933F922F920E944A22B10164
:1034A000CE0101960E943F2280916E028F938091FF
:1034B0006D028F931F930F933F922F920E944A2287
:1034C000B101CE0101960E943F22809172028F933A
:1034D000809171028F93809170028F9380916F021F
:1034E0008F931F930F933F922F920E944A220FB601
:1034F000F894DEBF0FBECDBFB101CE0101960E9490
:103500003F22809176028F93809175028F938091F4
:1035100074028F93809173028F931F930F933F9246
:103520002F920E944A22B101CE0101960E943F22B1
:1035300048E750E060E070E0CE0101960E94EB07A2
:103540009F938F9384E092E09F938F933F922F926B
:103550000E944A22B101CE0101960E943F2289E5D4
:1035600091E00E94580BCE0101960E94580B8AE60A
:1035700091E02ECC833709F0D7C089E790E08C0F1B
:103580009D1FCB5CDE4F99838883C553D1401A823F
:10359000198282E6C75CDE4FA881B981C953D14048
:1035A0001D928A95E9F7D12CC12C10E000E0AE0104
:1035B0004B5C5E4F65E771E0CB5CDE4F88819981A3
:1035C000C553D1400E946A1C7C01009709F471C068
:1035D000F8013197EA30F105C8F4EF50F54E0C943C
:1035E0001421FB1A091B141B1B1B221B291B301B3C
:1035F000371B461B551B0E94251C9093600280932D
:103600005F02B701CE0101960E943F220F5F1F4F5C
:10361000CECF0E94431C609361027093620280933C
:10362000630290936402EDCF0E94251C9093660282
:1036300080936502E6CF0E94251C909368028093D8
:103640006702DFCF0E94251C90936A028093690273
:10365000D8CF0E94251C90936C0280936B02D1CF2F
:103660000E94251C90936E0280936D02CACF0E9427
:10367000251C092E000CAA0BBB0B80936F029093A4
:103680007002A0937102B0937202BBCF0E94251CFE
:10369000092E000CAA0BBB0B80937302909374024B
:1036A000A0937502B0937602ACCF0E94251C6C01EA
:1036B000ADCF09301105ACF144E650E060E070E0B8
:1036C000CE0101960E94EB078C159D0551F58AE10C
:1036D000EFE5F2E0DE01A352BF4F01900D928A9513
:1036E000E1F7FE01E352FF4FAF01485E5F4F90E00C
:1036F00080E04E175F0731F02191820F911D27FD69
:103700009A95F7CF90937802809377020E947A106F
:1037100084E691E00E949B020E9491100E94B50AEB
:10372000B9CA8EE591E0E2CA843629F40E94FA070C
:103730000E947A10F3CF843749F40E94FA070E945E
:103740007A100E94B50A8EE491E0D0CA863631F430
:1037500081E080938A0288E491E0C8CA873629F420
:1037600010928A0282E491E0C1CA883619F48CE38F
:1037700091E0BCCA893609F48DCA8937B1F4EB9659
:103780008FADEB97813351F489E291E00E949B0267
:1037900081E080935E028FE091E0A8CA85E191E02C
:1037A0000E949B0210925E02F6CF8D3619F489E0DA
:1037B00091E09CCA883739F5EFEBF3E090E080E0C8
:1037C0004181528163817481452B462B472BA9F49B
:1037D000009799F023E0880F991F2A95E1F7FC01E3
:1037E000E954FC4F118212821382148215821682D0
:1037F000178210860E94CF074DCA019638968931EC
:103800009105F1F647CA803219F483E091E06ECA5F
:1038100089EF90E00E949B02EA966FADEA9789E0FB
:1038200093E00E944E028DE391E00E94210A32CA89
:10383000A3019201C701B6010E94C22087FF25CDD6
:10384000B6CC662777270C94AE1CFC0188279927F5
:10385000E89421912032E9F3293010F02E30C8F39A
:103860002B3241F02D3239F4689404C00E94A61C1A
:10387000820F911D219120532A30C0F31EF49095A0
:1038800081959F4F08951F93FC0199278827BC01BC
:10389000E89411911032E9F3193010F01E30C8F39A
:1038A0001B3251F01D3249F4689406C00E94911CED
:1038B000610F711D811D911D119110531A30B0F3CC
:1038C0003EF490958095709561957F4F8F4F9F4FF7
:1038D0001F910895FA01A191B081009719F41097F2
:1038E000E1F0CD01DC01CD010D90002011F4C0010B
:1038F00013C0FB012191222319F02015D9F7F3CF32
:10390000FB012191201519F41E92119606C0222365
:10391000C1F70D900020A1F7D001FA01A193B08367
:103920000895592F482F372F262F660F771F881F8E
:10393000991F660F771F881F991F620F731F841FBF
:10394000951F660F771F881F991F08957AE0979F2C
:10395000902D879F802D910D11240895B0E0A0E057
:10396000E4EBFCE10C946D1F5C017B0161157105BA
:1039700019F0DB018D939C9385010F5F1F4FF501BB
:10398000D0818D2F90E00E94FE1D6C01892BB9F52E
:10399000DD32B9F50F5F1F4FD5011196DC91C1E003
:1039A0005801F1E0AF1AB10843E050E060E770E081
:1039B000C5010E94071E892B69F5680182E0C80EC7
:1039C000D11C45E050E06BE670E0C6010E94071E86
:1039D000892B21F4680197E0C90ED11CE114F10490
:1039E00019F0D701CD92DC9260E070E080E89FEFA3
:1039F000C111FFC060E070E080E89FE7FAC05801A5
:103A0000BBCFDB3229F485010E5F1F4FF501D18159
:103A1000C0E0C6CF43E050E068E670E0C5010E9418
:103A2000071E892BE9F0F80110E000E020E030E00B
:103A3000A9015F01B0ED8B2E8D0E89E08815C8F1CC
:103A40009C2E689491F88C2F8870C2FF16C081114B
:103A500002C00F5F1F4F3196D501DC91C92DE9CF10
:103A6000E114F10429F00E5F1F4FF7011183008369
:103A700060E070E080EC9FE7BCC0882311F001504B
:103A80001109A5E0B0E00E945C1F9B01AC01220F70
:103A9000331F441F551F280D311D411D511D28394D
:103AA00099E93907490799E15907A8F2C6609C2EA0
:103AB000D2CFAEEF8A1206C0C3FD3CC09C2E6894E4
:103AC00093F8C9CFDF7DD534A9F580818D3239F4E3
:103AD000C061DF011296818162E070E006C0DF0103
:103AE0008B32C1F3119661E070E080535D01A61A3C
:103AF000B70A8A30F8F4E0E8CE16ECE0DE065CF4B3
:103B0000B601660F771F660F771FC60ED71ECC0C47
:103B1000DD1CC80ED11C5D01FFEFAF1ABF0A8C91EE
:103B200080538A30A8F1C4FF03C0D194C194D10856
:103B30000C0D1D1DC1FF09C0E114F10431F081E03D
:103B4000A81AB108D701AD92BC92CA01B9010E946E
:103B5000241EC370C33009F490584B015C0120E06F
:103B600030E0A9010E941F1E882309F440C0CFE95C
:103B7000D0E017FF05C0119501951109C7E8D0E005
:103B80006E01B8E1CB1AD10880E2E82EF12C0FC00B
:103B9000D501B1CFFE0125913591459154910E1972
:103BA0001F09C501B4010E94851E4B015C01D501AE
:103BB000C4010E151F0574F72497F594E794CC16ED
:103BC000DD06A9F78A2F880F8B2F881F8F3F49F0BA
:103BD00020E030E0A901C501B4010E941F1E81113F
:103BE00006C082E290E090939F0480939E04C501FA
:103BF000B401CDB7DEB7ECE00C94891F91110C94A1
:103C0000F21E803219F089508550C8F70895FB01E3
:103C1000DC014150504088F08D9181341CF08B358F
:103C20000CF4805E659161341CF06B350CF4605EC1
:103C3000861B611171F3990B0895881BFCCF0E94BC
:103C4000611E08F481E00895E89409C097FB3EF4F2
:103C500090958095709561957F4F8F4F9F4F9923D9
:103C6000A9F0F92F96E9BB279395F6958795779557
:103C70006795B795F111F8CFFAF4BB0F11F460FF17
:103C80001BC06F5F7F4F8F4F9F4F16C0882311F06F
:103C900096E911C0772321F09EE8872F762F05C083
:103CA000662371F096E8862F70E060E02AF09A951E
:103CB000660F771F881FDAF7880F9695879597F913
:103CC0000895990F0008550FAA0BE0E8FEEF1616AD
:103CD0001706E807F907C0F012161306E407F50700
:103CE00098F0621B730B840B950B39F40A2661F074
:103CF000232B242B252B21F408950A2609F4A14017
:103D0000A6958FEF811D811D08950E94981E0C9429
:103D10000C1F0E94FE1E38F00E94051F20F0952304
:103D200011F00C94F51E0C94FB1E11240C94401FF2
:103D30000E941D1F70F3959FC1F3950F50E0551F12
:103D4000629FF001729FBB27F00DB11D639FAA27F0
:103D5000F00DB11DAA1F649F6627B00DA11D661F3F
:103D6000829F2227B00DA11D621F739FB00DA11D60
:103D7000621F839FA00D611D221F749F3327A00D1A
:103D8000611D231F849F600D211D822F762F6A2FB6
:103D900011249F5750409AF0F1F088234AF0EE0F1B
:103DA000FF1FBB1F661F771F881F91505040A9F748
:103DB0009E3F510580F00C94F51E0C94401F5F3F10
:103DC000E4F3983ED4F3869577956795B795F79584
:103DD000E7959F5FC1F7FE2B880F911D96958795FC
:103DE00097F9089599278827089597F99F6780E89C
:103DF00070E060E008959FEF80EC089500240A943D
:103E00001616170618060906089500240A941216B5
:103E10001306140605060895092E0394000C11F4E8
:103E2000882352F0BB0F40F4BF2B11F460FF04C095
:103E30006F5F7F4F8F4F9F4F089557FD9058440FEE
:103E4000551F59F05F3F71F04795880F97FB991FF9
:103E500061F09F3F79F087950895121613061406B6
:103E6000551FF2CF4695F1DF08C016161706180643
:103E7000991FF1CF86957105610508940895E8941E
:103E8000BB2766277727CB0197F90895F999FECFCD
:103E900092BD81BDF89A992780B50895262FF9998A
:103EA000FECF1FBA92BD81BD20BD0FB6F894FA9A1D
:103EB000F99A0FBE019608950E949E1FA59F900D2E
:103EC000B49F900DA49F800D911D112408952F92F1
:103ED0003F924F925F926F927F928F929F92AF929A
:103EE000BF92CF92DF92EF92FF920F931F93CF93E7
:103EF000DF93CDB7DEB7CA1BDB0B0FB6F894DEBF7E
:103F00000FBECDBF09942A88398848885F846E84A3
:103F10007D848C849B84AA84B984C884DF80EE80ED
:103F2000FD800C811B81AA81B981CE0FD11D0FB6F6
:103F3000F894DEBF0FBECDBFED010895A29FB00182
:103F4000B39FC001A39F700D811D1124911DB29FCD
:103F5000700D811D1124911D08955058BB27AA276B
:103F60000E94C51F0C940C1F0E94FE1E38F00E9478
:103F7000051F20F039F49F3F19F426F40C94FB1E22
:103F80000EF4E095E7FB0C94F51EE92F0E941D1F2F
:103F900058F3BA17620773078407950720F079F47E
:103FA000A6F50C943F1F0EF4E0950B2EBA2FA02D12
:103FB0000B01B90190010C01CA01A0011124FF27D6
:103FC000591B99F0593F50F4503E68F11A16F040D1
:103FD000A22F232F342F4427585FF3CF46953795D0
:103FE0002795A795F0405395C9F77EF41F16BA0B95
:103FF000620B730B840BBAF09150A1F0FF0FBB1F43
:10400000661F771F881FC2F70EC0BA0F621F731F8B
:10401000841F48F4879577956795B795F7959E3FE8
:1040200008F0B0CF9395880F08F09927EE0F979579
:10403000879508950E942E200C940C1F0E94051F46
:1040400058F00E94FE1E40F029F45F3F29F00C94C6
:10405000F51E51110C94401F0C94FB1E0E941D1F55
:1040600068F39923B1F3552391F3951B550BBB27A7
:10407000AA2762177307840738F09F5F5F4F220FEC
:10408000331F441FAA1FA9F335D00E2E3AF0E0E8E3
:1040900032D091505040E695001CCAF72BD0FE2F2D
:1040A00029D0660F771F881FBB1F261737074807C1
:1040B000AB07B0E809F0BB0B802DBF01FF27935879
:1040C0005F4F3AF09E3F510578F00C94F51E0C942A
:1040D000401F5F3FE4F3983ED4F38695779567954C
:1040E000B795F7959F5FC9F7880F911D96958795AE
:1040F00097F90895E1E0660F771F881FBB1F6217CD
:1041000073078407BA0720F0621B730B840BBA0B8A
:10411000EE1F88F7E09508950E9493206894B111EE
:104120000C94401F08950E94251F88F09F5798F017
:10413000B92F9927B751B0F0E1F0660F771F881FAC
:10414000991F1AF0BA95C9F714C0B13091F00E94C6
:104150003F1FB1E008950C943F1F672F782F8827E9
:10416000B85F39F0B93FCCF3869577956795B395ED
:10417000D9F73EF490958095709561957F4F8F4F5C
:104180009F4F08950E94611E08F48FEF0895991BB8
:1041900079E004C0991F961708F0961B881F7A953E
:1041A000C9F780950895A1E21A2EAA1BBB1BFD0139
:1041B0000DC0AA1FBB1FEE1FFF1FA217B307E40706
:1041C000F50720F0A21BB30BE40BF50B661F771F5E
:1041D000881F991F1A9469F760957095809590953E
:1041E0009B01AC01BD01CF010895052E97FB1EF484
:1041F00000940E940C2157FD07D00E94D32007FC99
:1042000003D04EF40C940C21509540953095219597
:104210003F4F4F4F5F4F08959095809570956195F2
:104220007F4F8F4F9F4F0895EE0FFF1F0590F49122
:10423000E02D09940F931F93CF93DF938230910564
:1042400010F482E090E0E091A204F091A30430E049
:1042500020E0B0E0A0E0309799F42115310509F491
:104260004AC0281B390B24303105D8F58A819B813F
:104270006115710589F1FB0193838283FE0111C0F1
:10428000408151810281138148175907E0F0481796
:10429000590799F4109761F012960C9312971396A0
:1042A0001C933296CF01DF91CF911F910F9108950A
:1042B0000093A2041093A304F4CF2115310551F00B
:1042C0004217530738F0A901DB019A01BD01DF0154
:1042D000F801C1CFEF01F9CF9093A3048093A2041A
:1042E000CDCFFE01E20FF31F81939193225031094C
:1042F00039832883D7CF2091A0043091A104232BA8
:1043000041F420910D0130910E013093A1042093CE
:10431000A00420910B0130910C012115310541F4CD
:104320002DB73EB740910F0150911001241B350B62
:10433000E091A004F091A104E217F307A0F42E1B72
:104340003F0B2817390778F0AC014E5F5F4F2417F9
:10435000350748F04E0F5F1F5093A1044093A0040F
:10436000819391939FCFF0E0E0E09CCFCF93DF93D8
:104370000097E9F0FC01329713821282A091A20407
:10438000B091A304ED0130E020E01097A1F420816A
:104390003181820F931F2091A0043091A10428172E
:1043A000390709F061C0F093A104E093A004DF9104
:1043B000CF910895EA01CE17DF07E8F54A815B81C6
:1043C0009E0141155105B1F7E901FB83EA8349914B
:1043D0005991C40FD51FEC17FD0761F480819181BD
:1043E0000296840F951FE9019983888382819381C6
:1043F0009B838A83F0E0E0E012968D919C91139765
:104400000097B9F52D913C911197CD010296820F3D
:10441000931F2091A0043091A1042817390739F681
:10442000309751F51092A3041092A204B093A10406
:10443000A093A004BCCFD383C28340815181840F59
:10444000951FC817D90761F44E5F5F4F8881998126
:10445000480F591F518340838A819B8193838283B4
:104460002115310509F0B0CFF093A304E093A20425
:104470009ECFFD01DC01C0CF13821282D7CFFB019A
:10448000DC010D900020E9F7119701900D920020BA
:10449000E1F70895AEE0B0E0E0E5F2E20C94751FBC
:1044A0000D891E8986E08C831A8309838FEF9FE72D
:1044B0009E838D83AE01475E5F4F6F89788DCE01FD
:1044C00001960E946D222F813885020F131FF8017B
:1044D00010822E96E4E00C94911FABE0B0E0E3E78D
:1044E000F2E20C94671F7C013B018A01FC011782F8
:1044F0001682838181FFC8C1CE0101965C01F7015C
:104500009381F30193FD859193FF81913F0188236E
:1045100009F453C1853239F493FD859193FF81915C
:104520003F01853229F4B70190E00E945D24E7CF76
:10453000912C212C312CFFE1F31538F08B3211F145
:1045400090F4803209F1833229F137FC3CC020ED30
:10455000280F2A3050F536FE20C08AE0989E200DA4
:104560001124922E06C08D3291F0803371F7689439
:1045700030F8F30193FD859193FF81913F01811103
:10458000DACF21C0689431F8689432F8F2CF689499
:1045900033F8EFCF689434F8ECCFEAE02E9E200D8C
:1045A0001124222E689435F8E4CF8E3229F436FC9B
:1045B00004C1689436F8DDCF8C3619F4689437F866
:1045C000D8CF8836B1F2982F9F7D95549330E0F084
:1045D0008336A1F18337C1F1833509F063C0280127
:1045E000F2E04F0E511CF801C080D180692D70E0BF
:1045F00036FC02C06FEF7FEFC6010E9447244C01DA
:10460000689437F882010AC00C5F1F4FFFE3F983FB
:1046100088248394912C6501E89437F833FE2DC0EB
:10462000522C8114910471F5552009F468CFB7011B
:1046300080E290E00E945D245A94F6CFF8018081D8
:1046400089830E5F1F4FE4CF2801F2E04F0E511C0B
:10465000F801C080D180692D70E036FC02C06FEF98
:104660007FEFC6010E9452244C018201D5CFB701D1
:1046700080E290E00E945D242A942814190409F035
:10468000B0F7CECFF60137FC859137FE81916F01EF
:10469000B70190E00E945D2451105A94F1E08F1A06
:1046A0009108BFCF843619F0893609F077C0F80138
:1046B00037FE6BC060817181828193810C5F1F4FD7
:1046C000F32DFF763F2E97FF09C09095809570954A
:1046D00061957F4F8F4F9F4F689437F82AE030E005
:1046E000A5010E948D24C82ECA188C2C432C36FE9E
:1046F0000CC0E89440F8C91440F434FE05C032FC04
:1047000003C0F32DFE7E4F2E892C44FE95C0FE0182
:10471000EC0DF11D8081803309F087C0242D297EA6
:10472000422E842D8870582E43FC95C040FE8FC0C9
:104730009C2C821418F42C0C922C981844FE91C0D6
:10474000B70180E390E00E945D2442FE09C088E743
:1047500090E041FE02C088E590E0B7010E945D2430
:10476000C91408F48AC0CA94D12C9FEFC91AD90A77
:10477000CA0CDB1CF60182916F01B70190E00E9428
:104780005D24AC14BD04B1F74FCF60817181072E59
:10479000000C880B990B0E5F1F4F92CFD32CE8941F
:1047A000D4F82AE030E0853739F1232D297FD22E45
:1047B0008F3601F148F48835A9F0F7018681978199
:1047C0002B96E2E10C94831F803749F08837A9F7D4
:1047D000D4FE02C06894D2F820E130E00DC06894A5
:1047E000D4F8F6CF34FE03C0822F8660D82E20E1A5
:1047F00032E002C028E030E0F801D7FE0FC060814F
:104800007181828193810C5F1F4FA5010E948D24CD
:10481000C82ECA183D2CE89437F867CF60817181A3
:1048200090E080E00E5F1F4FF0CF42FC02C0839407
:1048300078CF8394839475CF842D867809F471CFD3
:10484000F6CFB70180E290E00E945D248394821449
:10485000C0F3512C73CF522C5818821408F46ECF29
:10486000F8CF842D867809F47BCF8BE241FE80E27D
:1048700047FC8DE2B70190E071CFB70180E390E093
:104880000E945D249A946CCF8FEF9FEF99CFFC012B
:104890000590615070400110D8F7809590958E0F6B
:1048A0009F1F0895FC016150704001900110D8F7DE
:1048B000809590958E0F9F1F08950F931F93CF9310
:1048C000DF93182F092FEB018B8181FD09C01FEFAA
:1048D0000FEF812F902FDF91CF911F910F910895AE
:1048E00082FF14C02E813F818C819D81281739075A
:1048F0003CF4E881F981CF01019699838883108384
:104900008E819F8101969F838E83E3CFE885F98511
:10491000812F0995892BA1F3DACFFA01AA27283034
:1049200051F1203181F1E8946F936E7F6E5F7F4F7C
:104930008F4F9F4FAF4FB1E03ED0B4E03CD0670FF8
:10494000781F891F9A1FA11D680F791F8A1F911D4B
:10495000A11D6A0F711D811D911DA11D20D009F49B
:1049600068943F912AE0269F11243019305D3193DD
:10497000DEF6CF010895462F4770405D4193B3E0C6
:104980000FD0C9F7F6CF462F4F70405D4A3318F06D
:10499000495D31FD4052419302D0A9F7EACFB4E01E
:1049A000A6959795879577956795BA95C9F70097D6
:1049B0006105710508959B01AC010A2E0694579577
:1049C000479537952795BA95C9F7620F731F841FCE
:0A49D000951FA01D0895F894FFCF75
:1049DA00204E000001C800000001FF0000A404806E
:1049EA0000000000004E02AE01DB01B6020C02EA32
:1049FA0001FE0100000000F606C906E8079F06C28C
:104A0A0006AF06A006000000006D0678100D0A0029
:104A1A005363616C652074617265640064617461DA
:104A2A002C0025692C00256900240063616C6962E9
:104A3A00726174696F6E2C0074656C656D65747251
:104A4A00792C002D312C006265666F722063616CCF
:104A5A006D616E0A0043616E6E6F74207265636FDA
:104A6A00726400456E6420696E6974006E62724FEA
:104A7A006654687275737443757276652C0054684F
:104A8A00727573744375727665204E62723A2000AD
:104A9A0053746172743A2000456E643A2000496E7C
:104AAA00697400496E2070726F677265737300448F
:104ABA006F6E6500746573747374616E64636F6E90
:104ACA006669672C00546573745374616E640025BB
:0A4ADA006C752C0025693B0A0000F2
:00000001FF
