:100000000C941D010C9445010C9445010C94450180
:100010000C9445010C9445010C9445010C941B1162
:100020000C9445010C9445010C9445010C94450138
:100030000C9445010C9445010C9445010C94450128
:100040000C94CF110C9445010C949D110C947711D4
:100050000C9445010C9445010C9445010C94450108
:100060000C9419120C9445014E414E494E49545975
:10007000494E46CDCCCC3D0AD7233C17B7D1387773
:10008000CC2B329595E6241FB14F0A000020410089
:1000900000C84200401C4620BCBE4CCA1B0E5AAED3
:1000A000C59D7400000000240027002A0000000005
:1000B00000230026002900000000080002010000C3
:1000C00003040700000000000000006265666F7214
:1000D000652072656164206C6973740A00537461F1
:1000E00072742070726F6772616D0A00696E76615A
:1000F0006C696420636F6E660024554E4B4E4F57FB
:100100004E3B00244B303B0A0024656E643B0A00E2
:100110002473746172743B0A00244F4B3B0A002421
:100120004F4B3B0A00244F4B3B0A0054656C656DF6
:10013000657472792064697361626C65640A005445
:10014000656C656D6574727920656E61626C65645D
:100150000A00244F4B3B0A00244F4B3B0A00244F1C
:100160004B3B0A00636F6E66696720726573657446
:1001700065640A00244B4F3B0A00244F4B3B0A00A6
:1001800024656E643B0A002473746172743B0A0038
:1001900024656E643B0A002473746172743B0A0028
:1001A000244F4B3B0A005468727573744375727622
:1001B00065204C6973743A200A0024656E643B0A1A
:1001C000002473746172743B0A005265636F726439
:1001D000696E67200A006E6F7420612076616C6919
:1001E0006420546872757374437572766500246573
:1001F0006E643B0A002473746172743B0A0045729A
:100200006173650A000102040810204080010204A5
:10021000081020010204081020000000002500281A
:10022000002B000404040404040404020202020279
:100230000203030303030302381311241FBECFEF8D
:10024000D8E0DEBFCDBF24E0A6E3B2E001C01D923E
:10025000A03DB207E1F712E0A0E0B1E0E2E7FBE485
:1002600002C005900D92A633B107D9F711E0CDE198
:10027000D1E004C02197FE010E94E021CC31D107DA
:10028000C9F70E949F130C94B7250C940000982F77
:100290002091340381E0213208F043C080911003A3
:1002A0008111FCCF8091330332E03093100390939F
:1002B0000F039FEF90930E0310920D0320930C03F6
:1002C000A3E1B3E0ECEEF2E090E0291331C010922C
:1002D000EB029091EB02880F892B8093EB028091C7
:1002E000EA02813049F51092EA028091EB02809394
:1002F000BB008091BC0083FDF8CF85EC8093BC00EF
:10030000809110038230E1F380910E038F3FB1F0B2
:1003100080910E038032A1F080910E03803391F022
:1003200084E0109212031092340310921103089586
:100330003D9131939F5FC9CF85EEE0CF80E0F1CF53
:1003400082E0EFCF83E0EDCFEBEEF3E090E080E0F2
:100350004181528163817481452B462B472B29F0C3
:10036000019638968931910599F701970895089576
:100370000895AF92BF92CF92DF92EF92FF920F93C8
:100380001F93CF93DF936C017B018B01040F151F2B
:10039000EB015E01AE18BF08C017D10759F0699193
:1003A000D601ED91FC910190F081E02DC6010995F7
:1003B000892B79F7C501DF91CF911F910F91FF90A4
:1003C000EF90DF90CF90BF90AF900895FC01538DD8
:1003D000448D252F30E0842F90E0821B930B54171F
:1003E00010F0CF96089501970895FC01918D828DAC
:1003F000981761F0A28DAE0FBF2FB11D5D968C9145
:10040000928D9F5F9F73928F90E008958FEF9FEF83
:100410000895FC01918D828D981731F0828DE80F3F
:10042000F11D858D90E008958FEF9FEF0895FC01F9
:10043000918D228D892F90E0805C9F4F821B9109C6
:100440008F739927089585E393E00E94170221E0B6
:10045000892B09F420E0822F089580E090E0892B19
:1004600029F00E94230281110C9400000895FC01E0
:10047000A48DA80FB92FB11DA35ABF4F2C91848D05
:1004800090E001968F739927848FA689B7892C9362
:10049000A089B1898C91837080648C93938D848DB5
:1004A000981306C00288F389E02D80818F7D8083B8
:1004B0000895EF92FF920F931F93CF93DF93EC0178
:1004C00081E0888F9B8D8C8D98131AC0E889F989FB
:1004D000808185FF15C09FB7F894EE89FF896083FE
:1004E000E889F98980818370806480839FBF81E07F
:1004F00090E0DF91CF911F910F91FF90EF900895C1
:10050000F62E0B8D10E00F5F1F4F0F731127E02E9B
:100510008C8D8E110CC00FB607FCFACFE889F989D3
:10052000808185FFF5CFCE010E943702F1CFEB8DA0
:10053000EC0FFD2FF11DE35AFF4FF0829FB7F894A7
:100540000B8FEA89FB8980818062CFCF0F931F9345
:10055000CF93DF938C01D0E0C0E0F801EC0FFD1FDA
:100560006491662341F085E393E00E945902892B50
:1005700011F02196F2CFCE01DF91CF911F910F9113
:100580000895CF93DF93EC01888D8823B9F0AA8971
:10059000BB89E889F9898C9185FD03C0808186FD3E
:1005A0000DC00FB607FCF7CF8C9185FFF2CF80818D
:1005B00085FFEDCFCE010E943702E9CFDF91CF91C9
:1005C0000895833081F028F4813099F08230A9F0C9
:1005D00008958730A9F08830C9F08430B1F4809153
:1005E00080008F7D03C0809180008F778093800092
:1005F000089584B58F7784BD089584B58F7DFBCF32
:100600008091B0008F778093B00008958091B00002
:100610008F7DF9CFCF93DF93282F30E0F901E95494
:10062000FF4F8491F901EB5FFD4FD491F901ED5D2E
:10063000FD4FC491CC23A1F081110E94E102EC2F67
:10064000F0E0EE0FFF1FE355FF4FA591B491EC9141
:10065000ED2381E090E009F480E0DF91CF910895EF
:1006600080E090E0FACF1F93CF93DF93282F30E004
:10067000F901E954FF4F8491F901EB5FFD4FD491EB
:10068000F901ED5DFD4FC491CC23A9F0162F811126
:100690000E94E102EC2FF0E0EE0FFF1FE75EFD4F3E
:1006A000A591B4918FB7F894EC91111108C0D09531
:1006B000DE23DC938FBFDF91CF911F910895DE2B56
:1006C000F8CF90910A0189130BC0E7E3F2E0E491BF
:1006D0009FEF90930A01E13049F028F0E23061F099
:1006E00060E00C94330310926E00FACF90916F008B
:1006F0009D7F90936F00F4CF909170009D7F9093B9
:10070000700091E09093B0009091B100987F946058
:100710009093B1001092B300E3CFCF93DF9390E0BA
:10072000FC01EB5FFD4F24918D5D9D4FFC01849199
:100730008823C9F090E0880F991FFC01ED55FF4F09
:10074000A591B491FC01E75EFD4FC591D491611173
:100750000DC09FB7F8948C91209582238C9388814B
:10076000282328839FBFDF91CF910895623051F4F1
:100770009FB7F8943C91822F809583238C93E881D6
:100780002E2BEFCF8FB7F894EC912E2B2C938FBF9D
:10079000EACF4F925F926F927F928F929F92AF9229
:1007A000BF92CF92DF92EF92FF920F931F93CF935E
:1007B000DF9300D000D01F92CDB7DEB78C01498304
:1007C0005A836B837C8380910A018430C9F08F3F08
:1007D00009F47DC00F900F900F900F900F90DF9154
:1007E000CF911F910F91FF90EF90DF90CF90BF902E
:1007F000AF909F908F907F906F905F904F900895F3
:10080000E7E3F2E084918D8387FDE4CF61E084E04B
:100810000E948D038D81882321F09D81923009F003
:1008200044C14801B12CA12C60E072E18AE790E05C
:10083000A50198010E94C12129013A017A016901AB
:1008400081E0C81AD108E108F1089FEFC916D10468
:10085000E104F10409F00CF4F7C060E472E48FE005
:1008600090E0A50198010E94C12169017A0181E00F
:10087000C81AD108E108F1089D81923009F098C0AA
:100880008FEFC816D104E104F10409F00CF4CAC1D9
:1008900060E970ED83E090E0A50198010E94C1211C
:1008A00069017A0191E0C91AD108E108F1088FEFD6
:1008B000C816D104E104F10411F00CF065C183E025
:1008C0009091B100987F892B8093B100C5C084E0DE
:1008D00080930A01E7E3F2E094919D839F3F09F43E
:1008E00079CF913029F158F0923009F43FC09D81C1
:1008F00097FD70CF61E084E00E948D038ECF14BC21
:1009000015BC84B5826084BD85B5816085BDE7E294
:10091000F2E0E491F0E0EE0FFF1FE75EFD4F8591FE
:100920009491E9E0F2E0E491E093BB021D826ECF86
:1009300010928000109281008091810088608093E5
:10094000810080918100816080938100E7E2F2E084
:10095000E491F0E0EE0FFF1FE75EFD4F859194916B
:10096000E9E0F2E0E491E093BA0250CF1092B000D7
:100970001092B1008091B00082608093B0008091AD
:10098000B10081608093B100E7E2F2E0E491F0E031
:10099000EE0FFF1FE75EFD4F859194919093B90292
:1009A0008093B802E9E0F2E0E491E093B7022ECF41
:1009B0009FEFC916D104E104F10409F00CF473C0EF
:1009C00068E478EE81E090E0A50198010E94C121E1
:1009D00069017A0181E0C81AD108E108F1089D8116
:1009E000992309F4EAC09FEFC916D104E104F10488
:1009F00009F00CF4E0C0EAC064E274EF80E090E03B
:100A0000A50194010E94C12169017A0181E0C81AFF
:100A1000D108E108F10885E09FEFC916D104E1048F
:100A2000F10409F008F44CCF62E17AE780E090E04D
:100A3000A50194010E94C12169017A0181E0C81ACF
:100A4000D108E108F108D5C081E09D81911138CF2E
:100A500095B5987F892B85BDD801AA0FBB1F298129
:100A60003A814B815C810E94282028EE33E040E0EF
:100A700050E00E949F218D81813009F44AC082306C
:100A800009F459C08111A6CEC7BC2093C40230938B
:100A9000C5024093C6025093C70280916E008260E7
:100AA00080936E0097CE82E0D0CFB12CA12C60E075
:100AB00072E18AE790E0A50198010E94C1216901D5
:100AC0007A0181E0C81AD108E108F108C114D10403
:100AD00091E0E906F10464F491E08D81813009F040
:100AE000BBCF80918100887F892B80938100B4CF18
:100AF00068E478EE81E090E0A50198010E94C121B0
:100B000069017A0181E0C81AD108E108F10893E08F
:100B1000E4CFD0928900C09288002093C002309325
:100B2000C1024093C2025093C30280916F00826061
:100B300080936F004FCEC092B3002093BC023093DD
:100B4000BD024093BE025093BF028091700082604C
:100B5000809370003FCE84E09FEFC916D104E1047A
:100B6000F10409F008F474CF730162019AE0F5947E
:100B7000E794D794C7949A95D1F781E0C81AD10821
:100B8000E108F10885E064CF68E478EE81E090E068
:100B9000A50198010E94C12169017A0191E0C91A59
:100BA000D108E108F1088FEFC816D104E104F1047F
:100BB00011F00CF021CF84E083CE83E09FEFC916C3
:100BC000D104E104F10409F00CF442CF62E17AE7C8
:100BD00080E090E0A50194010E94C12169017A01A1
:100BE00081E0C81AD108E108F1089D81992309F430
:100BF000B2CF86E09FEFC916D104E104F10409F0F9
:100C000008F45ECE730162012AE0F594E794D7946C
:100C1000C7942A95D1F781E0C81AD108E108F108F4
:100C200087E04ECE82E04CCE3FB7F89480918202AE
:100C300090918302A0918402B091850226B5A89B71
:100C400005C02F3F19F00196A11DB11D3FBFBA2F5E
:100C5000A92F982F8827BC01CD01620F711D811D1E
:100C6000911D42E0660F771F881F991F4A95D1F7A3
:100C700008958F929F92AF92BF92CF92DF92EF92A0
:100C8000FF926B017C010E9414064B015C01C114B0
:100C9000D104E104F104B9F00E941406681979093D
:100CA0008A099B09683E73408105910580F321E024
:100CB000C21AD108E108F10888EE880E83E0981E78
:100CC000A11CB11CE4CFFF90EF90DF90CF90BF90BC
:100CD000AF909F908F9008952FB7F89460917E0207
:100CE00070917F0280918002909181022FBF0895C0
:100CF000089585ED8093BC008091BC0084FDFCCFFD
:100D000010921003089520915A02260F3327331FA3
:100D100021323105ECF420911003FC0190E080E0D9
:100D2000243069F082E00895A0915A022191AC012B
:100D3000465C5D4FA40FB52FB11D2C93019686170D
:100D400098F380915A02680F60935A0280E00895E8
:100D500081E008950895E091C9028091C802E817E2
:100D600030F4F0E0E653FD4F808190E008958FEF7E
:100D70009FEF08959091C9028091C8022FEF3FEF35
:100D8000981748F4E92FF0E0E653FD4F208130E05A
:100D90009F5F9093C902C90108958091C802909104
:100DA000C902891B990B0895CF92DF92EF92FF92AF
:100DB0000F931F93CF93DF937C01CB018A01209186
:100DC0001103222389F0EB016B01C40ED51ECC1553
:100DD000DD0569F06991D701ED91FC910190F081F9
:100DE000E02DC7010995F3CF642F0E948306C80147
:100DF000DF91CF911F910F91FF90EF90DF90CF90F7
:100E00000895CF93DF931F92CDB7DEB7698320910A
:100E100011032223F9F020913403203258F021E00D
:100E200030E0FC013383228390E080E00F90DF917B
:100E3000CF91089580911203E82FF0E0ED5EFC4F12
:100E4000998190838F5F809312038093340381E0B4
:100E500090E0ECCF61E0CE0101960E948306F7CFCF
:100E60003F924F925F926F927F928F929F92AF923A
:100E7000BF92CF92DF92EF92FF920F931F93CF9387
:100E8000DF932B013C017A01890120E2C22ED12C93
:100E9000332433943BECA32E37E0B32EC091E2030E
:100EA000D091E3038091E5039091E6039E012150E8
:100EB000310924213521C21BD30B9601281B390B84
:100EC0000217130708F498012C173D0708F4E901ED
:100ED0002091E403B301A20104C07695679557956C
:100EE00047952A95D2F79090DE03942A3092110309
:100EF000909233031092120310923403029741F43C
:100F00009927872D762D652D82ED93E00E940107AC
:100F1000642D82ED93E00E940107AE01B70182EDDE
:100F200093E00E94D40681E00E944701811125C010
:100F300084E6882EC5010197F1F730921103909253
:100F4000330310921203109234038091E5039091C1
:100F5000E603029729F460E082ED93E00E94010726
:100F600060E082ED93E00E94010781E00E9447016A
:100F70008823A9F08A948110DDCFDF91CF911F9152
:100F80000F91FF90EF90DF90CF90BF90AF909F9028
:100F90008F907F906F905F904F903F9008954C0E90
:100FA0005D1E611C711CEC0EFD1E0C1B1D0B09F05F
:100FB00075CFE3CF8091E7039091E803A091E90317
:100FC000B091EA03883C9105A105B10548F028ECF1
:100FD00030E04CEE53E060E070E0CB010E9430075F
:100FE00088EC90E0089590E080E00895FC01480FBF
:100FF000591F90E080E02191820F911D27FD9A9565
:101000004E175F07C1F799270895CF93DF93CDB7A8
:10101000DEB76A970FB6F894DEBF0FBECDBF109251
:101020008C0210928B0280E096E9A0E0B0E0809301
:101030008D0290938E02A0938F02B09390028AE06B
:1010400090E0909392028093910223E030E03093FD
:1010500094022093930220E032E030939602209392
:101060009502909398028093970281E090E090938C
:101070009A028093990282E89CE8AFEFBFEF8093D9
:101080009B0290939C02A0939D02B0939E0282E0EB
:1010900093E4A9E0B0E080939F029093A002A09314
:1010A000A102B093A2028AE1EBE8F2E0DE01119620
:1010B00001900D928A95E1F7FE013196AE01475EEF
:1010C0005F4F90E080E0E417F50731F02191820F47
:1010D000911D27FD9A95F7CF9093A4028093A302C8
:1010E0006A960FB6F894DEBF0FBECDBFDF91CF91E9
:1010F00008952F923F924F925F926F927F928F92BC
:101100009F92AF92BF92CF92DF92EF92FF920F9396
:101110001F93CF93DF934B015C016A018901772410
:10112000739433243A9495EE592E25EC422EC091B7
:10113000E203D091E3038091E403A501940104C08C
:1011400056954795379527958A95D2F7F090DE0307
:10115000F22A70921103F09233031092120310924C
:1011600034038091E5039091E603029741F49927B7
:101170008B2D7A2D692D82ED93E00E940107682D59
:1011800082ED93E00E94010781E00E944701682EF2
:1011900081116FC0809110038111FCCFCE010197A6
:1011A00088219921C81BD90BC8010132110510F003
:1011B00080E290E08C179D0708F4EC019C2F709260
:1011C000100370920F0330920E0310920D038C2FB8
:1011D000815080930C037092EB028091EB02FF0C24
:1011E000F82AF092EB028091EA02813089F51092A0
:1011F000EA028091EB028093BB008091BC0083FDEA
:10120000F8CF4092BC00809110038130E1F38091CF
:101210000D03891710F490910D03ACEEB2E0EAECE7
:10122000F2E080E0891317C01092C9028093C802CF
:10123000212CE22CF12CEC16FD0688F482ED93E0D3
:101240000E94BA06F601EE0DFF1D80832394F1CFB4
:101250005092BC00D8CF2D9121938F5FE3CF8C0E9D
:101260009D1EA11CB11CCC0EDD1E0C1B1D0B09F01C
:101270005ECF862DDF91CF911F910F91FF90EF9060
:10128000DF90CF90BF90AF909F908F907F906F90A6
:101290005F904F903F902F9008958091E703909139
:1012A000E803A091E903B091EA03883C9105A10508
:1012B000B10548F028EC30E04CEE53E060E070E01F
:1012C000CB010E94790888EC90E00895FF920F937B
:1012D0001F93CF93DF93F82E062FC7E0D0E010E0E6
:1012E00061E0802F0E9433038F2D0E940A030C2E91
:1012F00001C0880F0A94EAF7182B60E0802F0E9443
:101300003303219768F7812FDF91CF911F910F91C0
:10131000FF900895EF92FF920F931F93CF93DF9367
:101320008091C0040E940A03892B31F060E070E0D4
:10133000CB010E943906F4CFDFB7F8946091BF0467
:101340008091C0040E946609082F6091BF048091BB
:10135000C0040E946609C82F6091BF048091C00438
:101360000E946609182FF12CE12C8091C1048E1582
:101370001F0479F070F061E08091BF040E94330394
:1013800060E08091BF040E9433038FEFE81AF80AEF
:10139000ECCFDFBF6C2F70E090E080E0982F872FBC
:1013A000762F6627802B612B000F000B10E030E0BA
:1013B00020E0302F222711270027602B712B822B52
:1013C000932BDF91CF911F910F91FF90EF90089594
:1013D000CF92DF92EF92FF92CF93CAE0C12CD12C33
:1013E00076010E948A09C60ED71EE81EF91E60E02B
:1013F00070E0CB010E943906C15099F7C701B601D0
:101400002AE030E040E050E00E94C121CA01B90169
:101410000E94F21E0E9458216093C2047093C3047C
:101420008093C4049093C504CF91FF90EF90DF9018
:10143000CF900895CF92DF92EF92FF92CF93DF93F8
:101440000E948A096B017C0160E070E0CB010E9480
:101450003906CDEBD4E08D819E81AF81B885A7019F
:101460009601281B390B4A0B5B0BCA01B9010E947C
:10147000F21E29853A854B855C850E94E620DF9126
:10148000CF91FF90EF90DF90CF9008950E941A0ABD
:1014900020E030E0A9010E948E2118165CF40E9421
:1014A0001A0A20E030E04AE754E40E94511F0E94EB
:1014B000582108950E941A0A9058F3CFFC01019018
:1014C0000020E9F73197AF01481B590BBC0185E3B8
:1014D00093E00C94B9018F929F92AF92BF920F93B9
:1014E0001F93CF93DF93CDB7DEB7A1970FB6F894D4
:1014F000DEBF0FBECDBF19A2423008F44AE08E0114
:101500000F5D1F4F842E912CB12CA12CA5019401AD
:101510000E949F21E62FB901CA01EA30F4F4E05D90
:10152000D801EE938D01232B242B252B79F790E006
:1015300080E0109719F0CD010E945E0AA1960FB6C7
:10154000F894DEBF0FBECDBFDF91CF911F910F91F9
:10155000BF90AF909F908F900895E95CE1CFCF92BC
:10156000DF92EF92FF92CF93DF936B017C016DE2EC
:1015700085E393E00E945902EC0166277727CB01AF
:101580006C197D098E099F094AE00E946B0A8C0F35
:101590009D1FDF91CF91FF90EF90DF90CF90089546
:1015A000CF93DF9397FF0CC00E94AF0AEC018DE34D
:1015B00091E00E945E0A8C0F9D1FDF91CF910895EC
:1015C0004AE00E946B0AF2CFCF93DF930E945E0A3B
:1015D000EC018DE391E00E945E0A8C0F9D1FDF916C
:1015E000CF910895CF92DF92EF92FF92109209016E
:1015F00082E08093BF0483E08093C00461E082E0D6
:101600000E948D0362E08091C0040E948D0381E0FE
:101610008093C10480919B0290919C02A0919D02B5
:10162000B0919E02892B8A2B8B2B61F482E89CE877
:10163000AFEFBFEF80939B0290939C02A0939D021B
:10164000B0939E0280919F029091A002A091A1026E
:10165000B091A202892B8A2B8B2B61F482E093E458
:10166000A9E0B0E080939F029093A002A093A10212
:10167000B093A2020E94E8098091C2049091C30431
:10168000A091C404B091C50480939F029093A002DE
:10169000A093A102B093A202C0909B02D0909C02A2
:1016A000E0909D02F0909E02C701B6010E94F21EDA
:1016B0006093C6047093C7048093C8049093C904D0
:1016C000C701B6010E94D00A60919F027091A002EA
:1016D0008091A1029091A2020E94D00A80E491E040
:1016E000FF90EF90DF90CF900C94E40A0C945E0A88
:1016F000CF93DF930E94A602EC018DE391E00E945C
:101700005E0A8C0F9D1FDF91CF9108952F923F921B
:101710004F925F926F927F928F929F92AF92BF9201
:10172000CF92DF92EF92FF920F931F93CF93DF93AD
:10173000CDB7DEB7C758D1090FB6F894DEBF0FBEDC
:10174000CDBFFC0123E0EE0FFF1F2A95E1F7E55125
:10175000FC4F81809280A380B48029EC8216910492
:10176000A104B10408F4E1C0CC57DF4F998388830A
:10177000C458D0404580568067807084C12CD12CDD
:1017800076018FEF481A580A680A780AFE013396E4
:10179000CE57DF4FF983E883C258D0408E010758F7
:1017A0001F4FC8010296CA57DF4F99838883C658D6
:1017B000D04082E5282E81E0382E84149504A604BA
:1017C000B70408F0B2C04091E7035091E80360917C
:1017D000E9037091EA03D501C4010896A11DB11D6A
:1017E000481759076A077B0740F028E030E044EBD0
:1017F00054E0C501B4010E94790899E0890E911C5A
:10180000A11CB11C1A821982CE57DF4FE881F981E1
:10181000C258D04026E711922A95E9F7F8011182C3
:101820001082CA57DF4FE881F981C658D04027E0BF
:1018300011922A95E9F78091B4049091B504A09192
:10184000B604B091B704C80ED91EEA1EFB1E6CE4A4
:1018500071E0CE0101960E940B23CB57DF4F8881A8
:10186000C558D0408F93CC57DF4F9881C458D04093
:101870009F933F922F921F930F930E941623B801BC
:10188000CE0101960E940B23FF92EF92DF92CF923E
:101890003F922F921F930F930E941623B801CE01FF
:1018A00001960E940B238091BB048F938091BA0410
:1018B0008F938091B9048F938091B8048F933F9256
:1018C0002F921F930F930E941623B801CE01019609
:1018D0000E940B2348E750E060E070E0CE010196E3
:1018E0000E94F6079F938F93E6E5F1E0FF93EF9355
:1018F0001F930F930E941623B801CE0101960E94F8
:101900000B2366E072E0CE0101960E940B2389E56D
:1019100091E00E94760BCE0101960E94760B0FB6E5
:10192000F894DEBF0FBECDBF48CFC957DF4F0FB60B
:10193000F894DEBF0FBECDBFDF91CF911F910F9105
:10194000FF90EF90DF90CF90BF90AF909F908F90DF
:101950007F906F905F904F903F902F9008958F925F
:101960009F92AF92BF92CF92DF92EF92FF920F932E
:101970001F93CF93DF93CDB7DEB7EC970FB6F894F4
:10198000DEBF0FBECDBFF62EE72ED82EC92EB22E4B
:10199000A32E942E852E1A821982FE01339680E39F
:1019A000DF011D928A95E9F71CAA1BAAF29688E02E
:1019B000DF011D928A95E9F76BE571E0CE01019692
:1019C0000E940B23CF92DF92EF92FF9282E5C82E06
:1019D00081E0D82EDF92CF927E01B3E3EB0EF11CB3
:1019E000FF92EF920E941623B701CE0101960E944A
:1019F0000B238F929F92AF92BF92DF92CF92FF9272
:101A0000EF920E941623B701CE0101960E940B238C
:101A1000B801CE0101960E940B2364E372E0CE016F
:101A200001960E940B2342E350E060E070E0CE019B
:101A300001960E94F6079F938F9386E591E09F930E
:101A40008F93FF92EF920E941623B701CE01019669
:101A50000E940B2366E072E0CE0101960E940B23E8
:101A600089E591E00E94760BCE0101960E94760BEB
:101A70000FB6F894DEBF0FBECDBFEC960FB6F8944C
:101A8000DEBF0FBECDBFDF91CF911F910F91FF90B1
:101A9000EF90DF90CF90BF90AF909F908F90089580
:101AA0004F925F926F927F92AF92BF92CF92DF92EE
:101AB000EF92FF920F931F93CF93DF93CDB7DEB7D3
:101AC000C05AD1090FB6F894DEBF0FBECDBF1A823F
:101AD0001982FE01339624E9DF011D922A95E9F768
:101AE0008E0109561F4FF8011192119228E0DF0173
:101AF0001D922A95E9F720918A02222309F4DCC07D
:101B00007A01A92EB82EC72ED62E0E946C064090C0
:101B10003602509037026090380270903902DC0132
:101B2000CB0184199509A609B709A701FF0C660B1B
:101B3000770B481759076A077B0708F0BDC00E945A
:101B40006C0660933602709337028093380290934C
:101B5000390268E671E0CE0101960E940B23809164
:101B6000B1028F938091B0028F938091AF028F93D7
:101B70008091AE028F9342E5E42E41E0F42EFF9275
:101B8000EF921F930F930E941623B801CE01019686
:101B90000E940B23AF92BF92CF92DF92FF92EF92FF
:101BA0001F930F930E941623B801CE0101960E9445
:101BB0000B2363E771E0CE0101960E940B23EBEE4D
:101BC000F3E00FB6F894DEBF0FBECDBF90E080E02B
:101BD0004181528163817481452B462B472B29F02B
:101BE000019638968931910599F723E0880F991F5E
:101BF0002A95E1F7FC01ED51FC4F658176818781E3
:101C000090850E94F21E20E030E040E857E30E94F9
:101C1000511F20E030E048EC52E40E94511F0E9426
:101C200058217F936F9332E5E32E31E0F32EFF923C
:101C3000EF921F930F930E941623B801CE010196D5
:101C40000E940B230E94A40101969F938F93FF9201
:101C5000EF921F930F930E941623B801CE010196B5
:101C60000E940B2346E950E060E070E0CE0101964F
:101C70000E94F6079F938F9386E591E09F938F9341
:101C80001F930F930E941623B801CE0101960E9464
:101C90000B2366E072E0CE0101960E940B2389E5DA
:101CA00091E00E94760BCE0101960E94760B0FB652
:101CB000F894DEBF0FBECDBFC056DF4F0FB6F8940D
:101CC000DEBF0FBECDBFDF91CF911F910F91FF906F
:101CD000EF90DF90CF90BF90AF907F906F905F902C
:101CE0004F9008954F925F926F927F928F929F9242
:101CF000AF92BF92CF92DF92EF92FF920F931F931A
:101D0000CF93DF931092090181E080938A02409182
:101D100091025091920228EE33E0429FC001439F0E
:101D2000900D529F900D1124092E000CAA0BBB0B95
:101D30008093000190930101A0930201B0930301ED
:101D4000C1E079EC872E912CA12CB12C8091090156
:101D50008111F7C10E94460A0091B2021091B302AC
:101D60002091B4023091B502601B710B820B930B72
:101D70006093AE027093AF028093B0029093B10271
:101D80008091AD0281112EC0C093AD0248EC50E0AD
:101D900060E070E0CB010E94500D0E946C066093E1
:101DA000A9027093AA028093AB029093AC02809137
:101DB00004018823B9F0E091A502F091A60263E046
:101DC000EE0FFF1F6A95E1F7E551FC4F8091050189
:101DD00090910601A0910701B0910801818392833F
:101DE000A383B483412C512C3201D091AD02DD2369
:101DF00009F4ACCF0E94460A0091B2021091B302DE
:101E00002091B4023091B502601B710B820B930BD1
:101E10006093AE027093AF028093B0029093B102D0
:101E20000E946C060091A9021091AA022091AB02B7
:101E30003091AC026B017C01C01AD10AE20AF30AAC
:101E400048EC50E0C701B6010E94500D809104019A
:101E5000882309F44FC0D701C60184199509A60942
:101E6000B7098093B4049093B504A093B604B093DB
:101E7000B7048091AE029091AF02A091B002B091F0
:101E8000B1028093B8049093B904A093BA04B093BC
:101E9000BB048091050190910601A0910701B091CA
:101EA0000801893F2FEF9207A105B1050CF4CFC0BF
:101EB000E091A502F091A60253E0EE0FFF1F5A95A4
:101EC000E1F7E551FC4F0197A109B109858396839C
:101ED000A783B0871092040180919302909194029D
:101EE0008330910509F0F5C06AE070E080E090E091
:101EF0000E9439060E946C064090A9025090AA02E6
:101F00006090AB027090AC0264197509860997095C
:101F10004090000150900101609002017090030117
:101F2000461657066806790608F08EC0E091A502AD
:101F3000F091A60243E0EE0FFF1F4A95E1F7E5514D
:101F4000FC4F8091050190910601A0910701B0918D
:101F500008010197A109B10985839683A783B087FA
:101F60000E94DA076AE070E080E090E00E943906A3
:101F7000C09309010E946C064090A9025090AA02E9
:101F80006090AB027090AC026419750986099709DC
:101F900044E650E00E94500D1092AD020E946C0683
:101FA0004090A9025090AA026090AB027090AC02DF
:101FB000641975098609970944E650E00E94500D9E
:101FC00010928A020E944D090E94A401AC01092EC0
:101FD000000C660B770B77FF90C01092A502109251
:101FE000A6021092A7021092A80280920501909278
:101FF0000601A0920701B09208010E94A401AC0161
:10200000092E000C660B770B4F3F2FEF520762072C
:102010007207C1F0483151056105710591F023E067
:10202000880F991F2A95E1F7FC01E551FC4FD1E09B
:1020300085819681A781B0858D3D9F4FA105B10512
:102040000CF0D0E0D093040126013701CECE0E94DF
:102050006C060091A9021091AA022091AB02309166
:10206000AC02601B710B820B930B44E650E00E94A4
:10207000500D6091050170910601809107019091CA
:1020800008012B013C0128E0420E511C611C711C0F
:102090000091E7031091E8032091E9033091EA03EE
:1020A000041515052605370530F028E030E044EB2F
:1020B00054E00E9430078FEF481A580A680A780ADD
:1020C000409205015092060160920701709208014A
:1020D00003CF8230910529F464E170E080E090E064
:1020E00007CF8130910509F4FFCE892B09F002CF8B
:1020F00068E270E080E090E0FBCE33E0880F991F4B
:102100003A95E1F7FC01E551FC4F85819681A78165
:10211000B0850196A11DB11D809305019093060124
:10212000A0930701B09308014F5F5F4F6F4F7F4F40
:102130004093A5025093A6026093A7027093A80251
:102140005CCFDF91CF911F910F91FF90EF90DF90C7
:10215000CF90BF90AF909F908F907F906F905F9047
:102160004F9008950C9482220F931F93CF93DF9387
:102170000BE812E0C0E2D0E0F80161918F01CE01DE
:102180000E941A202196CA33D105B1F7DF91CF9171
:102190001F910F910895EF92FF920F931F93CF938A
:1021A000DF93CDB7DEB76A970FB6F894DEBF0FBEE8
:1021B000CDBF0E9405088BE8E82E82E0F82E00E2F1
:1021C00010E0C8010E941220F70181937F010F5F88
:1021D0001F4F0A331105A9F74091A3025091A402A1
:1021E0008AE1EBE8F2E0DE01119601900D928A950A
:1021F000E1F7FE013196BE01675E7F4F30E020E0DF
:10220000E617F70731F08191280F311D87FD3A95C8
:10221000F7CF81E04217530709F080E06A960FB6C6
:10222000F894DEBF0FBECDBFDF91CF911F910F910C
:10223000FF90EF9008951F920F920FB60F92112406
:102240002F933F934F935F936F937F938F939F93BE
:10225000AF93BF93EF93FF938091BC029091BD0227
:10226000A091BE02B091BF02892B8A2B8B2BD1F19A
:102270009091B702E091B802F091B902808189276C
:1022800080838091BC029091BD02A091BE02B0916A
:10229000BF02181619061A061B069CF48091BC0290
:1022A0009091BD02A091BE02B091BF020197A10919
:1022B000B1098093BC029093BD02A093BE02B0937B
:1022C000BF02FF91EF91BF91AF919F918F917F914D
:1022D0006F915F914F913F912F910F900FBE0F9093
:1022E0001F90189580910A010E946103EACF1F9206
:1022F0000F920FB60F9211242F933F934F935F933A
:102300006F937F938F939F93AF93BF93EF93FF93BD
:1023100085E393E00E943702FF91EF91BF91AF9167
:102320009F918F917F916F915F914F913F912F91ED
:102330000F900FBE0F901F9018951F920F920FB61F
:102340000F9211242F938F939F93EF93FF93E0911C
:102350004503F09146038081E0914B03F0914C03DB
:1023600082FD1BC0908180914E038F5F8F732091FF
:102370004F03821741F0E0914E03F0E0EB5CFC4F1D
:10238000958F80934E03FF91EF919F918F912F91A5
:102390000F900FBE0F901F9018958081F4CF1F9261
:1023A0000F920FB60F9211242F933F938F939F9309
:1023B000AF93BF9380917E0290917F02A0918002A3
:1023C000B091810230917D0223E0230F2D3758F523
:1023D0000196A11DB11D20937D0280937E029093F2
:1023E0007F02A0938002B09381028091820290913B
:1023F0008302A0918402B09185020196A11DB11DB6
:102400008093820290938302A0938402B09385020A
:10241000BF91AF919F918F913F912F910F900FBEE0
:102420000F901F90189526E8230F0296A11DB11D4D
:10243000D2CF1F920F920FB60F9211242F933F937A
:102440004F935F936F937F938F939F93AF93BF93BC
:10245000EF93FF938091B900887F803609F44AC0DA
:10246000F0F5883209F4A7C018F5803109F49BC053
:10247000B8F4882309F4F9C0883009F494C0FF91B6
:10248000EF91BF91AF919F918F917F916F915F91EC
:102490004F913F912F910F900FBE0F901F90189565
:1024A000883109F488C0803251F780930E0314C03C
:1024B000803409F49DC040F48033B9F38833F9F6D1
:1024C00080930E0385ECB0C0803509F485C0883553
:1024D00009F496C0883499F60E947906D0CF8839DD
:1024E00009F48CC038F5883729F050F4883611F09B
:1024F000803729F683E08093100310927C0257C046
:10250000883809F47BC0803919F0803809F0B7CFDA
:1025100080917C02803208F071C0E0917C0281E001
:102520008E0F80937C028091BB00F0E0E45AFD4F57
:1025300080833DC0803B39F0E0F4803A09F479C0F3
:10254000883A09F09CCF84E08093100310925B02DC
:1025500010925A02E0918802F091890209958091C7
:102560005A0281110FC081E080935A0210923A0200
:1025700009C0803C09F4A6CF883C09F4A3CF883B6E
:1025800009F07DCFE0915B0281E08E0F80935B02CA
:10259000F0E0E65CFD4F80818093BB0090915B0290
:1025A00080915A0229C08091EB028093BB0085EC98
:1025B0008093BC0064CF90910D0380910C03981719
:1025C00058F5E0910D0381E08E0F80930D03F0E04C
:1025D000E451FD4F8081E9CFE0910D0381E08E0F42
:1025E00080930D038091BB00F0E0E451FD4F8083A8
:1025F00090910D0380910C039817C8F285E8D8CF0D
:10260000E0910D0381E08E0F80930D038091BB005C
:10261000F0E0E451FD4F808380910F0381115CCF86
:1026200081E08093EA0284EA8093BC001092100358
:1026300026CF85EC8093BC001092100380917C0221
:10264000803230F4E0917C02F0E0E45AFD4F1082D9
:1026500060917C0270E0E0918602F09187028CE547
:1026600092E0099510927C020ACF10920E0334CFAB
:10267000E5E3F3E01382128288EE93E0A0E0B0E09D
:1026800084839583A683B78325E131E0318320835A
:1026900025EC30E03587248724EC30E03787268727
:1026A00020EC30E0318B208B21EC30E0338B228B1F
:1026B00022EC30E0358B248B26EC30E0378B268BF8
:1026C000118E128E138E148EE2EDF3E013821282BD
:1026D00084839583A683B78387E291E09183808387
:1026E000EEEDF3E080E092E09283818381E08383EA
:1026F00080E490E09583848380E5808380E090E0AF
:10270000A1E0B0E081879287A387B48782E090E060
:102710009087878380E18683EDEBF4E089E391E0A5
:1027200091838083158216821782108680E090E064
:10273000A0E8BFE381879287A387B4870895CF93EA
:10274000DF93CDB7DEB7CB54D1400FB6F894DEBFE0
:102750000FBECDBF789484B5826084BD84B581609E
:1027600084BD85B5826085BD85B5816085BD80915C
:102770006E00816080936E001092810080918100D4
:1027800082608093810080918100816080938100CC
:10279000809180008160809380008091B10084608E
:1027A0008093B1008091B00081608093B0008091EF
:1027B0007A00846080937A0080917A0082608093AE
:1027C0007A0080917A00816080937A0080917A000B
:1027D000806880937A001092C1001092C902109212
:1027E000C80210921203109234031092100381E079
:1027F00080930F031092EA0261E082E10E943303AA
:1028000061E083E10E9433038091B9008E7F809361
:10281000B9008091B9008D7F8093B90088E48093DE
:10282000B80085E48093BC0087EB91E09093890227
:102830008093880288EB91E09093870280938602D0
:102840000E94CB10811104C00E9405080E94B410A0
:1028500080918D0290918E02A0918F02B091900292
:102860008C3221E09207A105B10509F477C0803BC5
:1028700034E09307A105B10509F470C0803649E042
:102880009407A105B10509F469C0803C52E19507A0
:10289000A105B10509F462C08038E5E29E07A105F3
:1028A000B10509F45BC08034F8E39F07A105B105C9
:1028B00009F454C081152BE49207A105B10509F470
:1028C0004DC0803830E79307A105B10509F446C033
:1028D000811546E99407A105B10509F43FC08115AA
:1028E00051EE9507A105B105C9F18115E2EC9E07EE
:1028F000E1E0AE07B10591F181159448A340B1051F
:1029000069F180E096E9A0E0B0E080938D029093B9
:102910008E02A0938F02B09390028AE1EBE8F2E07E
:10292000DE01AF5EBE4F01900D928A95E1F7FE0188
:10293000EF5EFE4FAF01485E5F4F90E080E0E4172E
:10294000F50731F02191820F911D27FD9A95F7CF60
:102950009093A4028093A3020E94B41080E096E9B1
:10296000A0E0B0E080938D0290938E02A0938F023E
:10297000B0939002E0914503F091460382E080839A
:10298000E0914103F09142031082E0914303F09102
:10299000440383E3808310924D03E0914903F09157
:1029A0004A0386E08083E0914703F09148038081E9
:1029B00080618083E0914703F091480380818860C3
:1029C0008083E0914703F091480380818068808391
:1029D000E0914703F091480380818F7D808362E01E
:1029E00080E00E948D0360E08AE00E948D038DEDFF
:1029F00090E00E94A6020E94F20A61E084E00E9438
:102A00008D0360E084E00E94330348EE53E060E011
:102A100070E088EB91E00E94C9036CED75E080E006
:102A200090E00E94390684E00E94610349E150E091
:102A300060E070E088EB91E00E94C9036CE271E015
:102A400080E090E00E94390684E00E94610387E7FD
:102A500091E00E94760B02E310E00E94460A0150CA
:102A60001109D9F70AE010E0C12CD12C76010E949F
:102A7000460AC60ED71EE81EF91E62E370E080E02B
:102A800090E00E9439060150110989F7C701B6018B
:102A90000E94F21E20E030E040E251E40E94E62075
:102AA0000E9458216093B2027093B3028093B402E3
:102AB0009093B5028BEC90E00E94A6020E944D0913
:102AC0000E94A401AC01092E000C660B770B77FF66
:102AD000C2C01092A5021092A6021092A7021092F4
:102AE000A80289EC90E0A0E0B0E08093050190930B
:102AF0000601A0930701B09308010E94A401AC0154
:102B0000092E000C660B770B4F3F2FEF5207620721
:102B10007207C1F0483151056105710509F4BFC064
:102B200043E0880F991F4A95E1F7FC01E551FC4FFE
:102B300085819681A781B0858D3D9F4FA105B10507
:102B40000CF0ADC081E08093040183E991E00E9424
:102B5000E40AAE0147585F4FC95CDE4F5983488392
:102B6000C753D1401E0155ED251A5EEF350AC1014C
:102B70000296C65BDE4F99838883CA54D140DE013A
:102B80001396C75CDE4FB983A883C953D14010E0C8
:102B900000E030E2F32EBBE3FB1609F4AFC08091F6
:102BA000B60281113BC00E94460A8090B20290900A
:102BB000B302A090B402B090B502681979098A09ED
:102BC0009B096093AE027093AF028093B002909322
:102BD000B1028091AD02882391F00E946C06809032
:102BE000A9029090AA02A090AB02B090AC02681922
:102BF00079098A099B0948EC50E00E94500D8AE04F
:102C00000E940A03019709F06DC044EF51E060E0B3
:102C100070E0CB010E94500D0E946C0685E393E0AA
:102C20000E941702892B09F4B6CF85E393E00E9436
:102C3000F501F82EEBE38E1709F459C0FAE08F176F
:102C400069F3E9E7F0E0EC0FFD1FE00FF11F80836F
:102C50000F5F1F4FE3CFE3E0880F991FEA95E1F77D
:102C6000FC01E551FC4F85819681A781B0850196D5
:102C7000A11DB11D8093050190930601A09307014A
:102C8000B09308014F5F5F4F6F4F7F4F4093A50296
:102C90005093A6026093A7027093A8022ECF1092C1
:102CA000040185E891E00E94E40A0AE010E048EEA1
:102CB00053E060E070E080E496E00E94C90362E3C4
:102CC00070E080E090E00E94390684E00E94610399
:102CD0000150110961F768EE73E080E090E00E9416
:102CE000390633CF109209010E94720E95CFE9E7A1
:102CF000F0E0EC0FFD1FE00FF11F1082CE018758AE
:102D00009F4F0E94E40AEA968FADEA978536B9F59F
:102D10008EEF91E00E94780BEBEEF3E083EB94E012
:102D200011821282138214821582168217821086F3
:102D300038968E179F07A1F70E94DA071092A50216
:102D40001092A6021092A7021092A80229EC30E07D
:102D500040E050E0209305013093060140930701C5
:102D60005093080180E090E0892B09F410CF0E9475
:102D70002302882309F403CF0E94000000CF82378A
:102D800039F5EB968FADEB978983EC968FADEC9789
:102D90008823B9F08A831B82CE0101960E940F1D01
:102DA00097FD11C085EF91E00E94A602CE01019629
:102DB0000E94F11C0E94860B8EEE91E00E94A602FA
:102DC000D1CF1A82E9CF86ED91E00E94780BCACF6D
:102DD000873739F48AEC91E00E94780B0E94720EDA
:102DE000C1CF8E3609F064C01A8219828CE1C75CAB
:102DF000DE4FA881B981C953D1401D928A95E9F768
:102E0000F1011182108287E0C65BDE4FA881B98193
:102E1000CA54D1401D928A95E9F781EC91E00E9455
:102E2000A6026CE971E0CE0101960E940B230E947C
:102E3000A40101969F938F9382E591E09F938F93D6
:102E40003F922F920E941623B101CE0101960E945B
:102E50000B234EE150E060E070E0CE0101960E944D
:102E6000F6079F938F9386E591E09F938F933F9210
:102E70002F920E941623B101CE0101960E940B23CE
:102E800066E072E0CE0101960E940B2389E591E095
:102E90000E94760BCE0101960E94760B8AEB91E0A0
:102EA0000E94A6020FB6F894DEBF0FBECDBF5ACF68
:102EB0008C3609F048C086EA91E00E94780B0E94A7
:102EC0004D090BEE13E0C12CD12C7601F801818164
:102ED0009281A381B481892B8A2B8B2B09F442CF59
:102EE0008EEA91E00E94760B4AE0C701B6010E948B
:102EF0006B0A8DE391E00E945E0A80EC91E00E94F3
:102F0000760BD80111966D917D918D919C911497BE
:102F10000E94D00A88EC91E00E94760BF80165814E
:102F20007681878190850E94D00A085F1F4FFFEF4E
:102F3000CF1ADF0AEF0AFF0A29E1C216D104E10421
:102F4000F10421F60FCF833609F036C229E730E0CD
:102F50002C0F3D1F2F5F3F4FDE011196CD01B901B0
:102F6000C95CDE4F48815981C753D140641B750B42
:102F7000F90141919F01442311F04D93F0CFFB01E2
:102F8000E80FF91F10820E94ED1CCB5BDE4F6883B7
:102F900079838A839B83C554D14060919B02709151
:102FA0009C0280919D0290919E020E94F21E4B0114
:102FB0005C012091C2043091C3044091C40450913B
:102FC000C504C45CDE4F288339834A835B83CC53BA
:102FD000D1408092C6049092C704A092C804B092D7
:102FE000C9040E9458219B01AC010EEC11E0C45CA5
:102FF000DE4F688179818A819B81CC53D1400E94C8
:10300000AF0C0E941A0A20E030E0A9010E948E2134
:1030100018160CF0BFC00E941A0A2B013C0134E6BE
:10302000C75BDE4F3883C954D140C55CDE4F188280
:10303000CB53D14041E0CC5BDE4F4883C454D140F8
:103040000E941A0A20E030E0A9010E948E21181681
:103050000CF0A9C00E941A0AC05CDE4F6883798315
:103060008A839B83C054D140CB5BDE4F288139815A
:103070004A815B81C554D140C05CDE4F6881798153
:103080008A819B81C054D1400E9479206B017C01D0
:1030900020E030E0A9010E948E2118160CF091C0AA
:1030A0002AE037ED43E25CE3C701B6010E948E21BE
:1030B00087FF96C0C501B4010E9458216B017C01B5
:1030C000C0929B02D0929C02E0929D02F0929E02DE
:1030D000C45CDE4F88819981AA81BB81CC53D140E9
:1030E00080939F029093A002A093A102B093A202AA
:1030F0000FED11E0A7019601BC01CD010E94AF0CBC
:10310000C45CDE4F288139814A815B81CC53D14038
:103110002093C2043093C3044093C4045093C50465
:1031200060919B0270919C0280919D0290919E0201
:103130000E94F21E6093C6047093C7048093C80473
:103140009093C904A7019601C45CDE4F6881798120
:103150008A819B81CC53D1400E94AF0C8AE1EBE87D
:10316000F2E0DE01A950BF4F01900D928A95E1F780
:10317000FE01E950FF4FAF01485E5F4F90E080E0F5
:10318000E417F50709F40FC12191820F911D27FD66
:103190009A95F6CF0E941A0A2B013C0177FA709497
:1031A00077F870943CCF0E941A0A9B01AC015058EA
:1031B000C05CDE4F288339834A835B83C054D1408F
:1031C00053CF2AE037ED43E25CEBC701B6010E9422
:1031D000EB1E18160CF46ECFF7FAF094F7F8F09493
:1031E000CB5BDE4F288139814A815B81C554D14058
:1031F000C301B2010E9479202B013C0120E030E0A4
:10320000A9010E948E21181624F077FA709477F89D
:103210007094A3019201C701B6010E94EB1E87FFC3
:103220008CC0CC5BDE4F3881C454D140313009F4BE
:10323000CBC3C05CDE4F288139814A815B81C05499
:10324000D140CB5BDE4F688179818A819B81C554F7
:10325000D1400E948E2118160CF06FC0C55CDE4F65
:103260004881CB53D1404F5FC55CDE4F4883CB5381
:10327000D14051E0CC5BDE4F5883C454D140C55C93
:10328000DE4FB881CB53D140B330A8F0C75BDE4FDF
:10329000E881C954D140E13071F08E2F6AE00E947C
:1032A0009321C75BDE4F8883C954D140C55CDE4F94
:1032B0001882CB53D140C75BDE4F2881C954D1401F
:1032C000CC5BDE4F3881C454D1403203B0011124AD
:1032D000072E000C880B990B0E94F21E9B01AC017B
:1032E000C501B4010E947A204B015C018092C604A2
:1032F0009092C704A092C804B092C9040E945821B9
:103300009B01AC0103ED11E0C45CDE4F6881798163
:103310008A819B81CC53D1400E94AF0C65E070E064
:1033200080E090E00E943906C05CDE4F4880598002
:103330006A807B80C054D14083CEA3019201C70133
:10334000B6010E948E2187FD9ACFCC5BDE4F88812B
:10335000C454D1408F3F09F492CFC05CDE4F288126
:1033600039814A815B81C054D140CB5BDE4F68819B
:1033700079818A819B81C554D1400E94EB1E87FFD1
:103380007ECFC55CDE4F9881CB53D1409F5FC55C3B
:10339000DE4F9883CB53D140AFEFCC5BDE4FA88399
:1033A000C454D1406CCF9093A4028093A3020E9496
:1033B000B41080EA91E002CD8136A1F487E991E072
:1033C0000E94A60210E000E00E94A401801791076D
:1033D00034F0C8010E94860B0F5F1F4FF5CF80E9C4
:1033E00091E0ECCC823609F02EC187E891E00E9492
:1033F000A6021A82198286E7C75CDE4FA881B981CE
:10340000C953D1401D928A95E9F7F10111821082CA
:1034100088E0C65BDE4FA881B981CA54D1401D92B5
:103420008A95E9F70E94CB10811104C08CEE90E0E0
:103430000E94A60264EE71E0CE0101960E940B2369
:1034400080918C028F9380918B028F9302E511E023
:103450001F930F933F922F920E941623B101CE012A
:1034600001960E940B2365EF71E0CE0101960E9448
:103470000B2364E372E0CE0101960E940B231F929E
:10348000FF24F394FF921F930F933F922F920E9479
:103490001623B101CE0101960E940B231F92FF92C9
:1034A0001F930F933F922F920E941623B101CE01DA
:1034B00001960E940B23809190028F9380918F023E
:1034C0008F9380918E028F9380918D028F938FEFD7
:1034D00091E09F938F933F922F920E941623B10108
:1034E000CE0101960E940B23809198028F938091C8
:1034F00097028F931F930F933F922F920E94162350
:103500000FB6F894DEBF0FBECDBFB101CE0101965C
:103510000E940B23809192028F93809191028F934E
:103520001F930F933F922F920E941623B101CE0159
:1035300001960E940B23809194028F9380919302B5
:103540008F931F930F933F922F920E941623B101E6
:10355000CE0101960E940B23809196028F93809159
:1035600095028F931F930F933F922F920E941623E1
:10357000B101CE0101960E940B2380919A028F9394
:10358000809199028F931F930F933F922F920E94E5
:103590001623B101CE0101960E940B2380919E0259
:1035A0008F9380919D028F9380919C028F93809145
:1035B0009B028F931F930F933F922F920E9416238B
:1035C0000FB6F894DEBF0FBECDBFB101CE0101969C
:1035D0000E940B238091A2028F938091A1028F936E
:1035E0008091A0028F9380919F028F931F930F93DE
:1035F0003F922F920E941623B101CE0101960E94A4
:103600000B2348E750E060E070E0CE0101960E9495
:10361000F6079F938F9384E092E09F938F933F925E
:103620002F920E941623B101CE0101960E940B2316
:1036300089E591E00E94760BCE0101960E94760BFF
:1036400080E891E02DCC833709F0D7C089E790E07E
:103650008C0F9D1FCB5CDE4F99838883C553D1406F
:103660001A82198282E6C75CDE4FA881B981C953EC
:10367000D1401D928A95E9F7D12CC12C10E000E0D1
:10368000AE014B5C5E4F64E372E0CB5CDE4F888141
:103690009981C553D1400E94361D7C01009709F4E1
:1036A00071C0F8013197EA30F105C8F4E65AF44EDA
:1036B0000C94E021641B721B7D1B841B8B1B921BD3
:1036C000991BA01BAF1BBE1B0E94F11C90938C0288
:1036D00080938B02B701CE0101960E940B230F5FEE
:1036E0001F4FCECF0E940F1D60938D0270938E02EC
:1036F00080938F0290939002EDCF0E94F11C9093E3
:10370000920280939102E6CF0E94F11C9093940262
:1037100080939302DFCF0E94F11C909396028093D6
:103720009502D8CF0E94F11C909398028093970243
:10373000D1CF0E94F11C90939A0280939902CACF34
:103740000E94F11C092E000CAA0BBB0B80939B025C
:1037500090939C02A0939D02B0939E02BBCF0E94C7
:10376000F11C092E000CAA0BBB0B80939F029093B7
:10377000A002A093A102B093A202ACCF0E94F11CC0
:103780006C01ADCF09301105ACF144E650E060E0CA
:1037900070E0CE0101960E94F6078C159D0551F54B
:1037A0008AE1EBE8F2E0DE01A352BF4F01900D92F7
:1037B0008A95E1F7FE01E352FF4FAF01485E5F4F8C
:1037C00090E080E04E175F0731F02191820F911D4C
:1037D00027FD9A95F7CF9093A4028093A3020E94AD
:1037E000B4108AE791E00E94A6020E94CB100E94CA
:1037F000F20AB8CA84E791E0E1CA843629F40E944B
:1038000005080E94B410F3CF843749F40E940508DC
:103810000E94B4100E94F20A84E691E0CFCA863674
:1038200031F481E08093B6028EE591E0C7CA873615
:1038300029F41092B60288E591E0C0CA883619F4DE
:1038400082E591E0BBCA893609F48CCA8937B1F4A4
:10385000EB968FADEB97813351F48FE391E00E94AB
:10386000A60281E080938A0285E291E0A7CA8BE2FA
:1038700091E00E94A60210928A02F6CF8D3619F4CA
:103880008FE191E09BCA883739F5EBEEF3E090E0E9
:1038900080E04181528163817481452B462B472B07
:1038A000A9F4009799F023E0880F991F2A95E1F772
:1038B000FC01ED51FC4F1182128213821482158299
:1038C0001682178210860E94DA074CCA0196389633
:1038D00089319105F1F646CA8A3629F40E94E80931
:1038E00089E191E06BCA8F3609F059C080E191E01F
:1038F0000E94A6021A82198282E6C75CDE4FE88126
:10390000F981C953D14011928A95E9F7D1011D92ED
:103910001C9288E0C65BDE4FE881F981CA54D14031
:1039200011928A95E9F769E072E0CE0101960E9452
:103930000B2364E172E0CE0101960E940B2344E662
:1039400050E060E070E0CE0101960E94F6079F9380
:103950008F9386E591E09F938F933F922F920E94E1
:103960001623B101CE0101960E940B2366E072E09E
:10397000CE0101960E940B2389E591E00E94760B0F
:10398000CE0101960E94760B89E091E00E94A6028A
:103990000F900F900F900F900F900F90E3C980320F
:1039A00019F483E091E00ACA89EF90E00E94A60230
:1039B000EA966FADEA9785E393E00E9459028DE3A2
:1039C00091E00E945E0ACEC9A3019201C701B6012F
:1039D0000E948E2187FFC1CC52CC662777270C949A
:1039E0007A1DFC0188279927E89421912032E9F378
:1039F000293010F02E30C8F32B3241F02D3239F43B
:103A0000689404C00E94721D820F911D2191205361
:103A10002A30C0F31EF4909581959F4F08951F930F
:103A2000FC0199278827BC01E89411911032E9F331
:103A3000193010F01E30C8F31B3251F01D3249F41A
:103A4000689406C00E945D1D610F711D811D911D4E
:103A5000119110531A30B0F33EF490958095709503
:103A600061957F4F8F4F9F4F1F910895FA01A1914C
:103A7000B081009719F41097E1F0CD01DC01CD0180
:103A80000D90002011F4C00113C0FB0121912223ED
:103A900019F02015D9F7F3CFFB012191201519F466
:103AA0001E92119606C02223C1F70D900020A1F7A7
:103AB000D001FA01A193B0830895592F482F372FD1
:103AC000262F660F771F881F991F660F771F881F85
:103AD000991F620F731F841F951F660F771F881F22
:103AE000991F08957AE0979F902D879F802D910DC3
:103AF00011240895B0E0A0E0E0E8FDE10C94392045
:103B00005C017B016115710519F0DB018D939C93BC
:103B100085010F5F1F4FF501D0818D2F90E00E942E
:103B2000CA1E6C01892BB9F5DD32B9F50F5F1F4F45
:103B3000D5011196DC91C1E05801F1E0AF1AB1084E
:103B400043E050E060E770E0C5010E94D31E892B7E
:103B500069F5680182E0C80ED11C45E050E06BE6D3
:103B600070E0C6010E94D31E892B21F4680197E002
:103B7000C90ED11CE114F10419F0D701CD92DC92E9
:103B800060E070E080E89FEFC111FFC060E070E08E
:103B900080E89FE7FAC05801BBCFDB3229F48501EA
:103BA0000E5F1F4FF501D181C0E0C6CF43E050E06A
:103BB00068E670E0C5010E94D31E892BE9F0F80188
:103BC00010E000E020E030E0A9015F01B0ED8B2EB5
:103BD0008D0E89E08815C8F19C2E689491F88C2F81
:103BE0008870C2FF16C0811102C00F5F1F4F31964F
:103BF000D501DC91C92DE9CFE114F10429F00E5F64
:103C00001F4FF7011183008360E070E080EC9FE7B5
:103C1000BCC0882311F001501109A5E0B0E00E945A
:103C200028209B01AC01220F331F441F551F280D74
:103C3000311D411D511D283999E93907490799E17D
:103C40005907A8F2C6609C2ED2CFAEEF8A1206C0EA
:103C5000C3FD3CC09C2E689493F8C9CFDF7DD5345A
:103C6000A9F580818D3239F4C061DF01129681811E
:103C700062E070E006C0DF018B32C1F3119661E0B3
:103C800070E080535D01A61AB70A8A30F8F4E0E8C4
:103C9000CE16ECE0DE065CF4B601660F771F660F09
:103CA000771FC60ED71ECC0CDD1CC80ED11C5D01C3
:103CB000FFEFAF1ABF0A8C9180538A30A8F1C4FF7E
:103CC00003C0D194C194D1080C0D1D1DC1FF09C0C2
:103CD000E114F10431F081E0A81AB108D701AD92E6
:103CE000BC92CA01B9010E94F01EC370C33009F42E
:103CF00090584B015C0120E030E0A9010E94EB1ECE
:103D0000882309F440C0CFE9D0E017FF05C0119522
:103D100001951109C7E8D0E06E01B8E1CB1AD108CE
:103D200080E2E82EF12C0FC0D501B1CFFE01259124
:103D30003591459154910E191F09C501B4010E9496
:103D4000511F4B015C01D501C4010E151F0574F70D
:103D50002497F594E794CC16DD06A9F78A2F880FEF
:103D60008B2F881F8F3F49F020E030E0A901C5016B
:103D7000B4010E94EB1E811106C082E290E0909394
:103D8000CB048093CA04C501B401CDB7DEB7ECE023
:103D90000C94552091110C94BE1F803219F089505B
:103DA0008550C8F70895FB01DC014150504088F070
:103DB0008D9181341CF08B350CF4805E65916134FB
:103DC0001CF06B350CF4605E861B611171F3990B6E
:103DD0000895881BFCCF0E942D1F08F481E00895F0
:103DE000E89409C097FB3EF4909580957095619595
:103DF0007F4F8F4F9F4F9923A9F0F92F96E9BB274B
:103E00009395F695879577956795B795F111F8CFC6
:103E1000FAF4BB0F11F460FF1BC06F5F7F4F8F4F31
:103E20009F4F16C0882311F096E911C0772321F027
:103E30009EE8872F762F05C0662371F096E8862FBF
:103E400070E060E02AF09A95660F771F881FDAF716
:103E5000880F9695879597F90895990F0008550F43
:103E6000AA0BE0E8FEEF16161706E807F907C0F000
:103E700012161306E407F50798F0621B730B840B08
:103E8000950B39F40A2661F0232B242B252B21F4E2
:103E900008950A2609F4A140A6958FEF811D811D82
:103EA00008950E94641F0C94D81F0E94CA1F38F006
:103EB0000E94D11F20F0952311F00C94C11F0C9487
:103EC000C71F11240C940C200E94E91F70F3959FCA
:103ED000C1F3950F50E0551F629FF001729FBB2701
:103EE000F00DB11D639FAA27F00DB11DAA1F649F9D
:103EF0006627B00DA11D661F829F2227B00DA11D50
:103F0000621F739FB00DA11D621F839FA00D611DD5
:103F1000221F749F3327A00D611D231F849F600DF6
:103F2000211D822F762F6A2F11249F5750409AF01F
:103F3000F1F088234AF0EE0FFF1FBB1F661F771FAB
:103F4000881F91505040A9F79E3F510580F00C9476
:103F5000C11F0C940C205F3FE4F3983ED4F3869588
:103F600077956795B795F795E7959F5FC1F7FE2B16
:103F7000880F911D9695879597F908959927882719
:103F8000089597F99F6780E870E060E008959FEFDB
:103F900080EC089500240A941616170618060906E0
:103FA000089500240A9412161306140605060895AF
:103FB000092E0394000C11F4882352F0BB0F40F437
:103FC000BF2B11F460FF04C06F5F7F4F8F4F9F4F77
:103FD000089557FD9058440F551F59F05F3F71F0F9
:103FE0004795880F97FB991F61F09F3F79F0879560
:103FF0000895121613061406551FF2CF4695F1DFE9
:1040000008C0161617061806991FF1CF8695710578
:10401000610508940895E894BB2766277727CB01AC
:1040200097F90895F999FECF92BD81BDF89A992725
:1040300080B50895262FF999FECF1FBA92BD81BD94
:1040400020BD0FB6F894FA9AF99A0FBE019608951A
:104050000E946A20A59F900DB49F900DA49F800D93
:10406000911D112408952F923F924F925F926F926B
:104070007F928F929F92AF92BF92CF92DF92EF92F8
:10408000FF920F931F93CF93DF93CDB7DEB7CA1B79
:10409000DB0B0FB6F894DEBF0FBECDBF09942A88A4
:1040A000398848885F846E847D848C849B84AA844C
:1040B000B984C884DF80EE80FD800C811B81AA81D9
:1040C000B981CE0FD11D0FB6F894DEBF0FBECDBFA4
:1040D000ED010895A29FB001B39FC001A39F700D91
:1040E000811D1124911DB29F700D811D1124911D00
:1040F00008955058BB27AA270E9491200C94D81FDE
:104100000E94CA1F38F00E94D11F20F039F49F3F4F
:1041100019F426F40C94C71F0EF4E095E7FB0C94F9
:10412000C11FE92F0E94E91F58F3BA1762077307EE
:104130008407950720F079F4A6F50C940B200EF473
:10414000E0950B2EBA2FA02D0B01B90190010C01A7
:10415000CA01A0011124FF27591B99F0593F50F4BF
:10416000503E68F11A16F040A22F232F342F442717
:10417000585FF3CF469537952795A795F04053950F
:10418000C9F77EF41F16BA0B620B730B840BBAF0DF
:104190009150A1F0FF0FBB1F661F771F881FC2F74A
:1041A0000EC0BA0F621F731F841F48F4879577955E
:1041B0006795B795F7959E3F08F0B0CF9395880F18
:1041C00008F09927EE0F9795879508950E94FA2099
:1041D0000C94D81F0E94D11F58F00E94CA1F40F0B3
:1041E00029F45F3F29F00C94C11F51110C940C204D
:1041F0000C94C71F0E94E91F68F39923B1F355235C
:1042000091F3951B550BBB27AA27621773078407E9
:1042100038F09F5F5F4F220F331F441FAA1FA9F37F
:1042200035D00E2E3AF0E0E832D091505040E6956D
:10423000001CCAF72BD0FE2F29D0660F771F881FCE
:10424000BB1F261737074807AB07B0E809F0BB0BC1
:10425000802DBF01FF2793585F4F3AF09E3F5105D5
:1042600078F00C94C11F0C940C205F3FE4F3983E4F
:10427000D4F3869577956795B795F7959F5FC9F7BE
:10428000880F911D9695879597F90895E1E0660F3F
:10429000771F881FBB1F621773078407BA0720F0B8
:1042A000621B730B840BBA0BEE1F88F7E095089521
:1042B0000E945F216894B1110C940C2008950E9413
:1042C000F11F88F09F5798F0B92F9927B751B0F098
:1042D000E1F0660F771F881F991F1AF0BA95C9F78A
:1042E00014C0B13091F00E940B20B1E008950C94FD
:1042F0000B20672F782F8827B85F39F0B93FCCF3B0
:10430000869577956795B395D9F73EF49095809506
:10431000709561957F4F8F4F9F4F08950E942D1F7D
:1043200008F48FEF0895991B79E004C0991F961740
:1043300008F0961B881F7A95C9F780950895A1E229
:104340001A2EAA1BBB1BFD010DC0AA1FBB1FEE1F0F
:10435000FF1FA217B307E407F50720F0A21BB30B5A
:10436000E40BF50B661F771F881F991F1A9469F7D6
:1043700060957095809590959B01AC01BD01CF0132
:104380000895052E97FB1EF400940E94D82157FD36
:1043900007D00E949F2107FC03D04EF40C94D82133
:1043A00050954095309521953F4F4F4F5F4F089561
:1043B00090958095709561957F4F8F4F9F4F089591
:1043C000EE0FFF1F0590F491E02D09940F931F93BA
:1043D000CF93DF938230910510F482E090E0E0917A
:1043E000CE04F091CF0430E020E0B0E0A0E03097C0
:1043F00099F42115310509F44AC0281B390B2430E2
:104400003105D8F58A819B816115710589F1FB0120
:1044100093838283FE0111C0408151810281138107
:1044200048175907E0F04817590799F4109761F0B9
:1044300012960C93129713961C933296CF01DF912C
:10444000CF911F910F9108950093CE041093CF0444
:10445000F4CF2115310551F04217530738F0A90167
:10446000DB019A01BD01DF01F801C1CFEF01F9CFF6
:104470009093CF048093CE04CDCFFE01E20FF31FC3
:10448000819391932250310939832883D7CF20918A
:10449000CC043091CD04232B41F420910D013091B7
:1044A0000E013093CD042093CC0420910B01309168
:1044B0000C012115310541F42DB73EB740910F0194
:1044C00050911001241B350BE091CC04F091CD04E8
:1044D000E217F307A0F42E1B3F0B2817390778F0DB
:1044E000AC014E5F5F4F2417350748F04E0F5F1F3A
:1044F0005093CD044093CC04819391939FCFF0E0EF
:10450000E0E09CCFCF93DF930097E9F0FC01329776
:1045100013821282A091CE04B091CF04ED0130E05D
:1045200020E01097A1F420813181820F931F209108
:10453000CC043091CD042817390709F061C0F093FD
:10454000CD04E093CC04DF91CF910895EA01CE171A
:10455000DF07E8F54A815B819E0141155105B1F7FE
:10456000E901FB83EA8349915991C40FD51FEC17E8
:10457000FD0761F4808191810296840F951FE90106
:1045800099838883828193819B838A83F0E0E0E032
:1045900012968D919C9113970097B9F52D913C91AE
:1045A0001197CD010296820F931F2091CC04309178
:1045B000CD042817390739F6309751F51092CF04FA
:1045C0001092CE04B093CD04A093CC04BCCFD3837F
:1045D000C28340815181840F951FC817D90761F4A8
:1045E0004E5F5F4F88819981480F591F51834083E7
:1045F0008A819B81938382832115310509F0B0CF95
:10460000F093CF04E093CE049ECFFD01DC01C0CF38
:1046100013821282D7CFFB01DC010D900020E9F755
:10462000119701900D920020E1F70895AEE0B0E0FF
:10463000ECE1F3E20C9441200D891E8986E08C8325
:104640001A8309838FEF9FE79E838D83AE01475EB8
:104650005F4F6F89788DCE0101960E9439232F819B
:104660003885020F131FF80110822E96E4E00C9497
:104670005D20ABE0B0E0EFE3F3E20C9433207C018B
:104680003B018A01FC0117821682838181FFC8C128
:10469000CE0101965C01F7019381F30193FD8591B1
:1046A00093FF81913F01882309F453C1853239F486
:1046B00093FD859193FF81913F01853229F4B701E4
:1046C00090E00E942925E7CF912C212C312CFFE18D
:1046D000F31538F08B3211F190F4803209F1833206
:1046E00029F137FC3CC020ED280F2A3050F536FE6A
:1046F00020C08AE0989E200D1124922E06C08D3293
:1047000091F0803371F7689430F8F30193FD85914F
:1047100093FF81913F018111DACF21C0689431F874
:10472000689432F8F2CF689433F8EFCF689434F895
:10473000ECCFEAE02E9E200D1124222E689435F84D
:10474000E4CF8E3229F436FC04C1689436F8DDCF0C
:104750008C3619F4689437F8D8CF8836B1F2982F90
:104760009F7D95549330E0F08336A1F18337C1F1FA
:10477000833509F063C02801F2E04F0E511CF801A7
:10478000C080D180692D70E036FC02C06FEF7FEFF2
:10479000C6010E9413254C01689437F882010AC0B3
:1047A0000C5F1F4FFFE3F98388248394912C6501EC
:1047B000E89437F833FE2DC0522C8114910471F522
:1047C000552009F468CFB70180E290E00E942925C6
:1047D0005A94F6CFF801808189830E5F1F4FE4CF92
:1047E0002801F2E04F0E511CF801C080D180692DE4
:1047F00070E036FC02C06FEF7FEFC6010E941E25FD
:104800004C018201D5CFB70180E290E00E942925BA
:104810002A942814190409F0B0F7CECFF60137FC1A
:10482000859137FE81916F01B70190E00E942925A3
:1048300051105A94F1E08F1A9108BFCF843619F0C5
:10484000893609F077C0F80137FE6BC0608171814D
:10485000828193810C5F1F4FF32DFF763F2E97FFD0
:1048600009C090958095709561957F4F8F4F9F4FB0
:10487000689437F82AE030E0A5010E945925C82E37
:10488000CA188C2C432C36FE0CC0E89440F8C9148E
:1048900040F434FE05C032FC03C0F32DFE7E4F2EE3
:1048A000892C44FE95C0FE01EC0DF11D8081803302
:1048B00009F087C0242D297E422E842D8870582E21
:1048C00043FC95C040FE8FC09C2C821418F42C0C25
:1048D000922C981844FE91C0B70180E390E00E94AA
:1048E000292542FE09C088E790E041FE02C088E524
:1048F00090E0B7010E942925C91408F48AC0CA941F
:10490000D12C9FEFC91AD90ACA0CDB1CF60182917F
:104910006F01B70190E00E942925AC14BD04B1F7E6
:104920004FCF60817181072E000C880B990B0E5FB1
:104930001F4F92CFD32CE894D4F82AE030E085378B
:1049400039F1232D297FD22E8F3601F148F4883595
:10495000A9F0F701868197812B96E2E10C944F2014
:10496000803749F08837A9F7D4FE02C06894D2F89E
:1049700020E130E00DC06894D4F8F6CF34FE03C0D7
:10498000822F8660D82E20E132E002C028E030E09D
:10499000F801D7FE0FC060817181828193810C5F25
:1049A0001F4FA5010E945925C82ECA183D2CE89416
:1049B00037F867CF6081718190E080E00E5F1F4F14
:1049C000F0CF42FC02C0839478CF8394839475CF58
:1049D000842D867809F471CFF6CFB70180E290E09C
:1049E0000E94292583948214C0F3512C73CF522C3A
:1049F0005818821408F46ECFF8CF842D867809F405
:104A00007BCF8BE241FE80E247FC8DE2B70190E074
:104A100071CFB70180E390E00E9429259A946CCF72
:104A20008FEF9FEF99CFFC0105906150704001100E
:104A3000D8F7809590958E0F9F1F0895FC016150C7
:104A4000704001900110D8F7809590958E0F9F1FB0
:104A500008950F931F93CF93DF93182F092FEB0126
:104A60008B8181FD09C01FEF0FEF812F902FDF9108
:104A7000CF911F910F91089582FF14C02E813F8125
:104A80008C819D81281739073CF4E881F981CF0199
:104A900001969983888310838E819F8101969F83DD
:104AA0008E83E3CFE885F985812F0995892BA1F3C2
:104AB000DACFFA01AA27283051F1203181F1E894A8
:104AC0006F936E7F6E5F7F4F8F4F9F4FAF4FB1E001
:104AD0003ED0B4E03CD0670F781F891F9A1FA11DFC
:104AE000680F791F8A1F911DA11D6A0F711D811DFD
:104AF000911DA11D20D009F468943F912AE0269FC2
:104B000011243019305D3193DEF6CF010895462F20
:104B10004770405D4193B3E00FD0C9F7F6CF462F01
:104B20004F70405D4A3318F0495D31FD405241936A
:104B300002D0A9F7EACFB4E0A69597958795779527
:104B40006795BA95C9F700976105710508959B01AE
:104B5000AC010A2E06945795479537952795BA9537
:104B6000C9F7620F731F841F951FA01D0895F89445
:024B7000FFCF75
:104B7200204E000001C800000001FF0000D00480A8
:104B820000000000005902B901E601C1021702F556
:104B9200010902000000000107D406F307AA06CDAE
:104BA20006BA06AB06000000007806B2100D0A0035
:104BB2005363616C65207461726564006461746141
:104BC2002C0025692C00256900240063616C696250
:104BD200726174696F6E2C0074656C656D657472B8
:104BE200792C002D312C006265666F722063616C36
:104BF2006D616E0A0043616E6E6F74207265636F41
:104C0200726400456E6420696E6974006E62724F50
:104C12006654687275737443757276652C005468B5
:104C2200727573744375727665204E62723A200013
:104C320053746172743A2000456E643A2000496EE2
:104C4200697400496E2070726F67726573730044F5
:104C52006F6E6500746573747374616E64636F6EF6
:104C62006669672C00546573745374616E64002521
:104C72006C752C0025693B0A00746573745472616B
:104C82006D652C004265617220616C74696D65749A
:104C92006572732061726520746865206265737441
:064CA200212121212C005C
:00000001FF
