:100000000C941A010C9442010C9442010C9442018C
:100010000C9442010C9442010C9442010C945F1127
:100020000C9442010C9442010C9442010C94420144
:100030000C9442010C9442010C9442010C94420134
:100040000C9413120C9442010C94E1110C94BB110A
:100050000C9442010C9442010C9442010C94420114
:100060000C945D120C9442014E414E494E49545934
:10007000494E46CDCCCC3D0AD7233C17B7D1387773
:10008000CC2B329595E6241FB14F0A000020410089
:1000900000C84200401C4620BCBE4CCA1B0E5AAED3
:1000A000C59D7400000000240027002A0000000005
:1000B00000230026002900000000080002010000C3
:1000C00003040700000000000000006265666F7214
:1000D000652072656164206C6973740A00537461F1
:1000E00072742070726F6772616D0A00696E76615A
:1000F0006C696420636F6E660024554E4B4E4F57FB
:100100004E3B00244B303B0A00244F4B3B0A00245B
:100110004F4B3B0A0054656C656D657472792064C1
:10012000697361626C65640A0054656C656D657421
:10013000727920656E61626C65640A00244F4B3BE6
:100140000A00244F4B3B0A00244F4B3B0A00636FCD
:100150006E66696720726573657465640A00244B76
:100160004F3B0A00244F4B3B0A0024656E643B0A58
:10017000002473746172743B0A0024656E643B0A48
:10018000002473746172743B0A00244F4B3B0A00D5
:100190005468727573744375727665204C69737414
:1001A0003A200A006E3B004E756D626572206F66E4
:1001B000205468727573744375727665200A005214
:1001C00065636F7264696E67200A006E6F742061E8
:1001D0002076616C6964205468727573744375721B
:1001E00076650052656164205468727573742043AB
:1001F000757276653A200045726173650A000102E6
:1002000004081020408001020408102001020408A4
:10021000102000000000250028002B000404040426
:1002200004040404020202020202030303030303A0
:1002300002007C1311241FBECFEFD8E0DEBFCDBF7C
:1002400024E0AAE1B2E001C01D92A43BB207E1F7AD
:1002500012E0A0E0B1E0E4E9F9E402C005900D92FB
:10026000AA31B107D9F711E0CAE1D1E004C0219762
:10027000FE010E94F120C931D107C9F70E94E313A2
:100280000C94C8240C940000982F2091180381E04E
:10029000213208F043C08091F4028111FCCF80919B
:1002A000170332E03093F4029093F3029FEF9093A0
:1002B000F2021092F1022093F002A7EFB2E0E0ED1B
:1002C000F2E090E0291331C01092CF029091CF025A
:1002D000880F892B8093CF028091CE02813049F51F
:1002E0001092CE028091CF028093BB008091BC001F
:1002F00083FDF8CF85EC8093BC008091F4028230BE
:10030000E1F38091F2028F3FB1F08091F2028032EE
:10031000A1F08091F202803391F084E01092F60215
:10032000109218031092F50208953D9131939F5F4A
:10033000C9CF85EEE0CF80E0F1CF82E0EFCF83E060
:10034000EDCFEFECF3E090E080E0418152816381FA
:100350007481452B462B472B29F00196389689311D
:10036000910599F70197089508950895AF92BF9266
:10037000CF92DF92EF92FF920F931F93CF93DF9371
:100380006C017B018B01040F151FEB015E01AE18A0
:10039000BF08C017D10759F06991D601ED91FC91C2
:1003A0000190F081E02DC6010995892B79F7C501EF
:1003B000DF91CF911F910F91FF90EF90DF90CF9041
:1003C000BF90AF900895FC01538D448D252F30E0F0
:1003D000842F90E0821B930B541710F0CF96089552
:1003E00001970895FC01918D828D981761F0A28D7F
:1003F000AE0FBF2FB11D5D968C91928D9F5F9F7345
:10040000928F90E008958FEF9FEF0895FC01918DFA
:10041000828D981731F0828DE80FF11D858D90E067
:1004200008958FEF9FEF0895FC01918D228D892F04
:1004300090E0805C9F4F821B91098F7399270895EC
:1004400089E193E00E94140221E0892B09F420E065
:10045000822F089580E090E0892B29F00E942002ED
:1004600081110C9400000895FC01A48DA80FB92FF0
:10047000B11DA35ABF4F2C91848D90E001968F73CC
:100480009927848FA689B7892C93A089B1898C91EB
:10049000837080648C93938D848D981306C002883A
:1004A000F389E02D80818F7D80830895EF92FF9204
:1004B0000F931F93CF93DF93EC0181E0888F9B8D87
:1004C0008C8D98131AC0E889F989808185FF15C041
:1004D0009FB7F894EE89FF896083E889F989808164
:1004E0008370806480839FBF81E090E0DF91CF9133
:1004F0001F910F91FF90EF900895F62E0B8D10E055
:100500000F5F1F4F0F731127E02E8C8D8E110CC0C3
:100510000FB607FCFACFE889F989808185FFF5CF0E
:10052000CE010E943402F1CFEB8DEC0FFD2FF11DB7
:10053000E35AFF4FF0829FB7F8940B8FEA89FB894B
:1005400080818062CFCF0F931F93CF93DF938C0175
:10055000D0E0C0E0F801EC0FFD1F6491662341F08C
:1005600089E193E00E945602892B11F02196F2CF87
:10057000CE01DF91CF911F910F910895CF93DF931B
:10058000EC01888D8823B9F0AA89BB89E889F989AB
:100590008C9185FD03C0808186FD0DC00FB607FCE0
:1005A000F7CF8C9185FFF2CF808185FFEDCFCE0113
:1005B0000E943402E9CFDF91CF910895833081F01A
:1005C00028F4813099F08230A9F008958730A9F09D
:1005D0008830C9F08430B1F4809180008F7D03C0F1
:1005E000809180008F7780938000089584B58F7705
:1005F00084BD089584B58F7DFBCF8091B0008F7747
:100600008093B00008958091B0008F7DF9CFCF9393
:10061000DF93282F30E0F901E954FF4F8491F9016D
:10062000E250FE4FD491F901E45EFD4FC491CC231A
:10063000A1F081110E94DE02EC2FF0E0EE0FFF1F0F
:10064000E355FF4FA591B491EC91ED2381E090E04B
:1006500009F480E0DF91CF91089580E090E0FACF37
:100660001F93CF93DF93282F30E0F901E954FF4F18
:100670008491F901E250FE4FD491F901E45EFD4FFF
:10068000C491CC23A9F0162F81110E94DE02EC2F19
:10069000F0E0EE0FFF1FEE5EFD4FA591B4918FB716
:1006A000F894EC91111108C0D095DE23DC938FBF34
:1006B000DF91CF911F910895DE2BF8CF90910A0121
:1006C00089130BC0E0E3F2E0E4919FEF90930A01FD
:1006D000E13049F028F0E23061F060E00C94300342
:1006E00010926E00FACF90916F009D7F90936F00F3
:1006F000F4CF909170009D7F9093700091E0909363
:10070000B0009091B100987F94609093B1001092E6
:10071000B300E3CFCF93DF9390E0FC01E250FE4FB4
:100720002491845E9D4FFC0184918823C9F090E060
:10073000880F991FFC01ED55FF4FA591B491FC0165
:10074000EE5EFD4FC591D49161110DC09FB7F89435
:100750008C91209582238C938881282328839FBFA6
:10076000DF91CF910895623051F49FB7F8943C9196
:10077000822F809583238C93E8812E2BEFCF8FB728
:10078000F894EC912E2B2C938FBFEACF4F925F926F
:100790006F927F928F929F92AF92BF92CF92DF9291
:1007A000EF92FF920F931F93CF93DF9300D000D06F
:1007B0001F92CDB7DEB78C0149835A836B837C834C
:1007C00080910A018430C9F08F3F09F47DC00F90F9
:1007D0000F900F900F900F90DF91CF911F910F917D
:1007E000FF90EF90DF90CF90BF90AF909F908F9051
:1007F0007F906F905F904F900895E0E3F2E08491D6
:100800008D8387FDE4CF61E084E00E948A038D81BF
:10081000882321F09D81923009F044C14801B12C18
:10082000A12C60E072E18AE790E0A50198010E94A6
:10083000D22029013A017A01690181E0C81AD10860
:10084000E108F1089FEFC916D104E104F10409F0B1
:100850000CF4F7C060E472E48FE090E0A501980129
:100860000E94D22069017A0181E0C81AD108E1080A
:10087000F1089D81923009F098C08FEFC816D1041D
:10088000E104F10409F00CF4CAC160E970ED83E001
:1008900090E0A50198010E94D22069017A0191E0BF
:1008A000C91AD108E108F1088FEFC816D104E10494
:1008B000F10411F00CF065C183E09091B100987FD4
:1008C000892B8093B100C5C084E080930A01E0E3E6
:1008D000F2E094919D839F3F09F479CF913029F103
:1008E00058F0923009F43FC09D8197FD70CF61E0D0
:1008F00084E00E948A038ECF14BC15BC84B582604C
:1009000084BD85B5816085BDE0E2F2E0E491F0E070
:10091000EE0FFF1FEE5EFD4F85919491E2E0F2E055
:10092000E491E0939F021D826ECF1092800010929E
:100930008100809181008860809381008091810096
:10094000816080938100E0E2F2E0E491F0E0EE0F5C
:10095000FF1FEE5EFD4F85919491E2E0F2E0E4919D
:10096000E0939E0250CF1092B0001092B10080919F
:10097000B00082608093B0008091B100816080936C
:10098000B100E0E2F2E0E491F0E0EE0FFF1FEE5E76
:10099000FD4F8591949190939D0280939C02E2E09B
:1009A000F2E0E491E0939B022ECF9FEFC916D104B1
:1009B000E104F10409F00CF473C068E478EE81E01E
:1009C00090E0A50198010E94D22069017A0181E09E
:1009D000C81AD108E108F1089D81992309F4EAC0F9
:1009E0009FEFC916D104E104F10409F00CF4E0C052
:1009F000EAC064E274EF80E090E0A50194010E94F7
:100A0000D22069017A0181E0C81AD108E108F10811
:100A100085E09FEFC916D104E104F10409F008F460
:100A20004CCF62E17AE780E090E0A50194010E945A
:100A3000D22069017A0181E0C81AD108E108F108E1
:100A4000D5C081E09D81911138CF95B5987F892BD4
:100A500085BDD801AA0FBB1F29813A814B815C81DA
:100A60000E94391F28EE33E040E050E00E94B020A1
:100A70008D81813009F44AC0823009F459C0811156
:100A8000A6CEC7BC2093A8023093A9024093AA0225
:100A90005093AB0280916E00826080936E0097CE7F
:100AA00082E0D0CFB12CA12C60E072E18AE790E027
:100AB000A50198010E94D22069017A0181E0C81A3B
:100AC000D108E108F108C114D10491E0E906F1046C
:100AD00064F491E08D81813009F0BBCF8091810079
:100AE000887F892B80938100B4CF68E478EE81E021
:100AF00090E0A50198010E94D22069017A0181E06D
:100B0000C81AD108E108F10893E0E4CFD092890037
:100B1000C09288002093A4023093A5024093A602BD
:100B20005093A70280916F00826080936F004FCE38
:100B3000C092B3002093A0023093A1024093A2027E
:100B40005093A302809170008260809370003FCE2A
:100B500084E09FEFC916D104E104F10409F008F420
:100B600074CF730162019AE0F594E794D794C79427
:100B70009A95D1F781E0C81AD108E108F10885E01B
:100B800064CF68E478EE81E090E0A50198010E94CE
:100B9000D22069017A0191E0C91AD108E108F1086F
:100BA0008FEFC816D104E104F10411F00CF021CF4D
:100BB00084E083CE83E09FEFC916D104E104F10401
:100BC00009F00CF442CF62E17AE780E090E0A50101
:100BD00094010E94D22069017A0181E0C81AD108EB
:100BE000E108F1089D81992309F4B2CF86E09FEFD7
:100BF000C916D104E104F10409F008F45ECE7301D2
:100C000062012AE0F594E794D794C7942A95D1F726
:100C100081E0C81AD108E108F10887E04ECE82E0F1
:100C20004CCE3FB7F8948091660290916702A091F4
:100C30006802B091690226B5A89B05C02F3F19F044
:100C40000196A11DB11D3FBFBA2FA92F982F88274C
:100C5000BC01CD01620F711D811D911D42E0660F27
:100C6000771F881F991F4A95D1F708958F929F92F9
:100C7000AF92BF92CF92DF92EF92FF926B017C0115
:100C80000E9411064B015C01C114D104E104F1047E
:100C9000B9F00E941106681979098A099B09683E12
:100CA00073408105910580F321E0C21AD108E10863
:100CB000F10888EE880E83E0981EA11CB11CE4CFD9
:100CC000FF90EF90DF90CF90BF90AF909F908F906C
:100CD00008952FB7F8946091620270916302809139
:100CE0006402909165022FBF0895089585ED809369
:100CF000BC008091BC0084FDFCCF1092F4020895EA
:100D000020913E02260F3327331F21323105ECF4A8
:100D10002091F402FC0190E080E0243069F082E050
:100D20000895A0913E022191AC01425E5D4FA40F57
:100D3000B52FB11D2C930196861798F380913E0232
:100D4000680F60933E0280E0089581E00895089561
:100D5000E091AD028091AC02E81730F4F0E0E2558A
:100D6000FD4F808190E008958FEF9FEF089590915F
:100D7000AD028091AC022FEF3FEF981748F4E92FB6
:100D8000F0E0E255FD4F208130E09F5F9093AD028F
:100D9000C90108958091AC029091AD02891B990B15
:100DA0000895CF92DF92EF92FF920F931F93CF930C
:100DB000DF937C01CB018A012091F502222389F087
:100DC000EB016B01C40ED51ECC15DD0569F06991F0
:100DD000D701ED91FC910190F081E02DC7010995BB
:100DE000F3CF642F0E948006C801DF91CF911F913D
:100DF0000F91FF90EF90DF90CF900895CF93DF9306
:100E00001F92CDB7DEB769832091F5022223F9F056
:100E100020911803203258F021E030E0FC013383A8
:100E2000228390E080E00F90DF91CF910895809130
:100E3000F602E82FF0E0E950FD4F998190838F5F33
:100E40008093F6028093180381E090E0ECCF61E09C
:100E5000CE0101960E948006F7CF3F924F925F929B
:100E60006F927F928F929F92AF92BF92CF92DF92BA
:100E7000EF92FF920F931F93CF93DF932B013C01CF
:100E80007A01890120E2C22ED12C332433943BEC29
:100E9000A32E37E0B32EC091C603D091C703809133
:100EA000C9039091CA039E012150310924213521A3
:100EB000C21BD30B9601281B390B0217130708F42A
:100EC00098012C173D0708F4E9012091C803B301EC
:100ED000A20104C076956795579547952A95D2F754
:100EE0009090C203942A3092F502909217031092C8
:100EF000F60210921803029741F49927872D762D58
:100F0000652D86EB93E00E94FE06642D86EB93E050
:100F10000E94FE06AE01B70186EB93E00E94D10667
:100F200081E00E944401811125C084E6882EC5011C
:100F30000197F1F73092F502909217031092F602A2
:100F4000109218038091C9039091CA03029729F463
:100F500060E086EB93E00E94FE0660E086EB93E0A3
:100F60000E94FE0681E00E9444018823A9F08A9431
:100F70008110DDCFDF91CF911F910F91FF90EF9006
:100F8000DF90CF90BF90AF909F908F907F906F90A9
:100F90005F904F903F9008954C0E5D1E611C711C38
:100FA000EC0EFD1E0C1B1D0B09F075CFE3CF8091DD
:100FB000CB039091CC03A091CD03B091CE03883C9C
:100FC0009105A105B10548F028EC30E040ED53E073
:100FD00060E070E0CB010E942D0788EC90E008955E
:100FE00090E080E00895CF93DF93CDB7DEB76A97A6
:100FF0000FB6F894DEBF0FBECDBF109270021092F4
:101000006F0280E096E9A0E0B0E0809371029093D7
:101010007202A0937302B093740284E190E0909303
:10102000760280937502109278021092770220E087
:1010300032E030937A022093790290937C0280937D
:101040007B0210927E0210927D0282E89CE8AFEF54
:10105000BFEF80937F0290938002A0938102B093B0
:10106000820282E093E4A9E0B0E08093830290934F
:101070008402A0938502B09386028AE1EFE6F2E053
:10108000DE01119601900D928A95E1F7FE013196ED
:10109000AE01475E5F4F90E080E0E417F50731F066
:1010A0002191820F911D27FD9A95F7CF9093880289
:1010B000809387026A960FB6F894DEBF0FBECDBF4D
:1010C000DF91CF9108952F923F924F925F926F924E
:1010D0007F928F929F92AF92BF92CF92DF92EF92C8
:1010E000FF920F931F93CF93DF934B015C016A0133
:1010F00089017724739433243A9495EE592E25EC84
:10110000422EC091C603D091C7038091C803A501A8
:10111000940104C056954795379527958A95D2F73F
:10112000F090C203F22A7092F502F0921703109227
:10113000F602109218038091C9039091CA03029796
:1011400041F499278B2D7A2D692D86EB93E00E942F
:10115000FE06682D86EB93E00E94FE0681E00E9469
:101160004401682E81116FC08091F4028111FCCF7F
:10117000CE01019788219921C81BD90BC8010132E2
:10118000110510F080E290E08C179D0708F4EC0147
:101190009C2F7092F4027092F3023092F20210923D
:1011A000F1028C2F81508093F0027092CF028091D7
:1011B000CF02FF0CF82AF092CF028091CE0281304C
:1011C00089F51092CE028091CF028093BB0080916E
:1011D000BC0083FDF8CF4092BC008091F4028130C6
:1011E000E1F38091F102891710F49091F102A0EDE2
:1011F000B2E0EEEAF2E080E0891317C01092AD028F
:101200008093AC02212CE22CF12CEC16FD0688F424
:1012100086EB93E00E94B706F601EE0DFF1D80837A
:101220002394F1CF5092BC00D8CF2D9121938F5FA2
:10123000E3CF8C0E9D1EA11CB11CCC0EDD1E0C1B21
:101240001D0B09F05ECF862DDF91CF911F910F917D
:10125000FF90EF90DF90CF90BF90AF909F908F90D6
:101260007F906F905F904F903F902F900895809166
:10127000CB039091CC03A091CD03B091CE03883CD9
:101280009105A105B10548F028EC30E040ED53E0B0
:1012900060E070E0CB010E94630888EC90E0089564
:1012A000FF920F931F93CF93DF93F82E062FC7E083
:1012B000D0E010E061E0802F0E9430038F2D0E946B
:1012C00007030C2E01C0880F0A94EAF7182B60E080
:1012D000802F0E943003219768F7812FDF91CF91F3
:1012E0001F910F91FF900895EF92FF920F931F931C
:1012F000CF93DF938091A4040E940703892B31F0E0
:1013000060E070E0CB010E943606F4CFDFB7F894BE
:101310006091A3048091A4040E945009082F609159
:10132000A3048091A4040E945009C82F6091A304D3
:101330008091A4040E945009182FF12CE12C809177
:10134000A5048E151F0479F070F061E08091A3046C
:101350000E94300360E08091A3040E9430038FEF6D
:10136000E81AF80AECCFDFBF6C2F70E090E080E065
:10137000982F872F762F6627802B612B000F000B6D
:1013800010E030E020E0302F222711270027602BCB
:10139000712B822B932BDF91CF911F910F91FF9097
:1013A000EF900895CF92DF92EF92FF92CF93DF9369
:1013B0000E9474096B017C0160E070E0CB010E9427
:1013C0003606C1EAD4E08D819E81AF81B885A70140
:1013D0009601281B390B4A0B5B0BCA01B9010E940D
:1013E000031E29853A854B855C850E94F71FDF9196
:1013F000CF91FF90EF90DF90CF9008950E94D20997
:1014000020E030E0A9010E949F2018165CF40E94A1
:10141000D20920E030E04AE754E40E94621E0E94B4
:10142000692008950E94D2099058F3CFFC010190E1
:101430000020E9F73197AF01481B590BBC0189E146
:1014400093E00C94B6018F929F92AF92BF920F934C
:101450001F93CF93DF93CDB7DEB7A1970FB6F89464
:10146000DEBF0FBECDBF19A2423008F44AE08E01A4
:101470000F5D1F4F842E912CB12CA12CA50194013E
:101480000E94B020E62FB901CA01EA30F4F4E05D11
:10149000D801EE938D01232B242B252B79F790E097
:1014A00080E0109719F0CD010E94160AA1960FB6A0
:1014B000F894DEBF0FBECDBFDF91CF911F910F918A
:1014C000BF90AF909F908F900895E95CE1CFCF924D
:1014D000DF92EF92FF92CF93DF936B017C016DE27D
:1014E00089E193E00E945602EC0166277727CB0141
:1014F0006C197D098E099F094AE00E94230A8C0F0E
:101500009D1FDF91CF91FF90EF90DF90CF900895D6
:10151000CF93DF9397FF0CC00E94670AEC018DE325
:1015200091E00E94160A8C0F9D1FDF91CF910895C4
:101530004AE00E94230AF2CFCF93DF930E94160A5B
:10154000EC018DE391E00E94160A8C0F9D1FDF9144
:10155000CF910895CF92DF92EF92FF92CF931092A6
:10156000090182E08093A30483E08093A40461E0F6
:1015700082E00E948A0362E08091A4040E948A03B0
:1015800081E08093A50480917F0290918002A091D8
:101590008102B0918202892B8A2B8B2B61F482E825
:1015A0009CE8AFEFBFEF80937F0290938002A093FF
:1015B0008102B09382028091830290918402A09173
:1015C0008502B0918602892B8A2B8B2B61F482E0F5
:1015D00093E4A9E0B0E08093830290938402A09307
:1015E0008502B0938602CAE0C12CD12C76010E94FC
:1015F0007409C60ED71EE81EF91E60E070E0CB012C
:101600000E943606C15099F7C701B6012AE030E0C2
:1016100040E050E00E94D220CA01B9010E94031E9E
:101620000E9469206093A6047093A7048093A80485
:101630009093A9046093830270938402809385023F
:1016400090938602C0907F02D0908002E090810249
:10165000F0908202C701B6010E94031E6093AA04A3
:101660007093AB048093AC049093AD04C701B601B2
:101670000E94880A609183027091840280918502A1
:10168000909186020E94880A80E491E0CF91FF90B9
:10169000EF90DF90CF900C949C0A0C94160ACF9395
:1016A000DF93682F89E193E00E945602EC018DE3FD
:1016B00091E00E94160A8C0F9D1FDF91CF91089533
:1016C000CF92DF92EF92FF920F931F93CF93DF930E
:1016D0000E943709CFECD3E0C12CD12C760110E069
:1016E00000E089819A81AB81BC81892B8A2B8B2B6D
:1016F00061F18CE491E00E944D0B4AE0C701B60114
:101700000E94230A8DE391E00E94160A8EE591E083
:101710000E944D0B69817A818B819C810E94880A8D
:1017200086E691E00E944D0B6D817E818F819885C8
:101730000E94880A0F5F1F4F28968FEFC81AD80A99
:10174000E80AF80A0931110561F6C801DF91CF9165
:101750001F910F91FF90EF90DF90CF900895CF935E
:10176000DF930E94A302EC018DE391E00E94160A30
:101770008C0F9D1FDF91CF9108952F923F924F9232
:101780005F926F927F928F929F92AF92BF92CF9211
:10179000DF92EF92FF920F931F93CF93DF93CDB71A
:1017A000DEB7C958D1090FB6F894DEBF0FBECDBF62
:1017B000FC0123E0EE0FFF1F2A95E1F7E153FC4FF8
:1017C000C180D280E380F48029ECC216D104E10408
:1017D000F10408F4F1C01C0185819681A781B085D0
:1017E000412C512C32019C01AD012F5F3F4F4F4FD7
:1017F0005F4FCC57DF4F288339834A835B83C458BC
:10180000D040AE014D5F5F4FCE57DF4F59834883C5
:10181000C258D0408E0107581F4FC8010296C857C2
:10182000DF4F99838883C858D04082E7A82E81E093
:10183000B82E96E7892E91E0992ECC57DF4F28815C
:1018400039814A815B81C458D040C216D306E40670
:10185000F50608F0B1C04091CB035091CC036091E4
:10186000CD037091CE03D701C6010896A11DB11D0D
:10187000481759076A077B0740F028E030E048E93D
:1018800054E0C701B6010E94630839E0C30ED11CC1
:10189000E11CF11C1A821982CE57DF4FA881B98151
:1018A000C258D040E6E71D92EA95E9F7D8011D92AB
:1018B0001C92C857DF4FE881F981C858D04027E013
:1018C00011922A95E9F78091980490919904A0913A
:1018D0009A04B0919B04480E591E6A1E7B1E6CE64A
:1018E00071E0CE0101960E941C223F922F92BF927E
:1018F000AF921F930F930E942722B801CE01019649
:101900000E941C227F926F925F924F92BF92AF9281
:101910001F930F930E942722B801CE0101960E94C7
:101920001C2280919F048F9380919E048F938091BD
:101930009D048F9380919C048F93BF92AF921F93CD
:101940000F930E942722B801CE0101960E941C220B
:10195000FE0131960FB6F894DEBF0FBECDBF90E00A
:1019600080E02191820F911D27FD9A950E171F0788
:10197000C1F799279F938F939F928F921F930F93F5
:101980000E942722B801CE0101960E941C2266E126
:1019900072E0CE0101960E941C2289E791E00E942C
:1019A0004D0BCE0101960E944D0B0F900F900F90A2
:1019B0000F900F900F9041CFC757DF4F0FB6F8949D
:1019C000DEBF0FBECDBFDF91CF911F910F91FF9072
:1019D000EF90DF90CF90BF90AF909F908F907F90CF
:1019E0006F905F904F903F902F9008958F929F92AD
:1019F000AF92BF92CF92DF92EF92FF920F931F931D
:101A0000CF93DF93CDB7DEB7EC970FB6F894DEBF78
:101A10000FBECDBFF62EE72ED82EC92EB22EA32E86
:101A2000942E852E1A821982FE01339680E3DF01FF
:101A30001D928A95E9F71CAA1BAAF29688E0DF019D
:101A40001D928A95E9F76BE771E0CE0101960E943D
:101A50001C22CF92DF92EF92FF9282E7C82E81E0A4
:101A6000D82EDF92CF927E01B3E3EB0EF11CFF92F2
:101A7000EF920E942722B701CE0101960E941C22FC
:101A80008F929F92AF92BF92DF92CF92FF92EF928E
:101A90000E942722B701CE0101960E941C22B801A4
:101AA000CE0101960E941C2265E971E0CE010196EB
:101AB0000E941C228E010F5F1F4F0FB6F894DEBFED
:101AC0000FBECDBF90E080E0D8012D918D01820F37
:101AD000911D27FD9A95AE15BF05B1F799279F93E4
:101AE0008F9386E791E09F938F931F93AF930E940C
:101AF0002722B801CE0101960E941C2266E172E005
:101B0000CE0101960E941C2289E791E00E944D0BB4
:101B1000CE0101960E944D0B0F900F900F900F90E9
:101B20000F900F90EC960FB6F894DEBF0FBECDBFAE
:101B3000DF91CF911F910F91FF90EF90DF90CF90A9
:101B4000BF90AF909F908F9008954F925F926F9249
:101B50007F92AF92BF92CF92DF92EF92FF920F935C
:101B60001F93CF93DF93CDB7DEB7C05AD1090FB61D
:101B7000F894DEBF0FBECDBF1A821982FE013396E4
:101B800024E9DF011D922A95E9F78E0109561F4FBE
:101B9000F8011192119228E0DF011D922A95E9F7D0
:101BA00020916E02222309F4E7C07A01A92EB82EF3
:101BB000C72ED62E0E94690640901A0250901B0232
:101BC00060901C0270901D02DC01CB018419950904
:101BD000A609B709A701FF0C660B770B4817590731
:101BE0006A077B0708F0C8C00E94690660931A0262
:101BF00070931B0280931C0290931D0268E871E0B1
:101C0000CE0101960E941C22809195028F938091B3
:101C100094028F93809193028F93809192028F937D
:101C200042E7E42E41E0F42EFF92EF921F930F93D0
:101C30000E942722B801CE0101960E941C22AF9279
:101C4000BF92CF92DF92FF92EF921F930F930E9469
:101C50002722B801CE0101960E941C2263E971E09F
:101C6000CE0101960E941C22EFECF3E00FB6F8942F
:101C7000DEBF0FBECDBF90E080E041815281638125
:101C80007481452B462B472B29F0019638968931D4
:101C9000910599F723E0880F991F2A95E1F7FC0138
:101CA000E953FC4F65817681878190850E94031EF0
:101CB00020E030E040E857E30E94621E20E030E080
:101CC00048EC52E40E94621E0E9469207F936F9349
:101CD00032E7E32E31E0F32EFF92EF921F930F9342
:101CE0000E942722B801CE0101960E941C220E9468
:101CF000A10101969F938F93FF92EF921F930F93F1
:101D00000E942722B801CE0101960E941C22FE01EA
:101D100031960FB6F894DEBF0FBECDBF90E080E0E5
:101D20002191820F911D27FD9A950E171F07C1F76C
:101D300099279F938F9386E791E09F938F931F93AB
:101D40000F930E942722B801CE0101960E941C2207
:101D500066E172E0CE0101960E941C2289E791E0C3
:101D60000E944D0BCE0101960E944D0B0F900F90DB
:101D70000F900F900F900F90C056DF4F0FB6F89452
:101D8000DEBF0FBECDBFDF91CF911F910F91FF90AE
:101D9000EF90DF90CF90BF90AF907F906F905F906B
:101DA0004F9008954F925F926F927F928F929F9281
:101DB000AF92BF92CF92DF92EF92FF920F931F9359
:101DC000CF93DF931092090181E080936E024091DE
:101DD00075025091760228EE33E0429FC001439F86
:101DE000900D529F900D1124092E000CAA0BBB0BD5
:101DF0008093000190930101A0930201B09303012D
:101E0000C1E079EC872E912CA12CB12C8091090195
:101E10008111DBC10E94FE09009196021091970288
:101E20002091980230919902601B710B820B930BE9
:101E30006093920270939302809394029093950220
:101E40008091910281112EC0C093910248EC50E024
:101E500060E070E0CB010E94A50D0E9469066093CE
:101E60008D0270938E0280938F02909390028091E6
:101E700004018823B9F0E0918902F0918A0263E0BD
:101E8000EE0FFF1F6A95E1F7E153FC4F80910501CA
:101E900090910601A0910701B0910801818392837E
:101EA000A383B483412C512C3201D0919102DD23C4
:101EB00009F4ACCF0E94FE0900919602109197029E
:101EC0002091980230919902601B710B820B930B49
:101ED0006093920270939302809394029093950280
:101EE0000E94690600918D0210918E0220918F024E
:101EF000309190026B017C01C01AD10AE20AF30A08
:101F000048EC50E0C701B6010E94A50D8091040184
:101F1000882309F447C0D701C60184199509A60989
:101F2000B7098093980490939904A0939A04B0936E
:101F30009B048091920290919302A0919402B0919F
:101F4000950280939C0490939D04A0939E04B0936B
:101F50009F048091050190910601A0910701B09125
:101F60000801893F2FEF9207A105B1050CF4C7C006
:101F7000E0918902F0918A0253E0EE0FFF1F5A951B
:101F8000E1F7E153FC4F0197A109B10985839683DD
:101F9000A783B087109204016AE070E080E090E0CF
:101FA0000E9436060E94690640908D0250908E0273
:101FB00060908F02709090026419750986099709E4
:101FC0004090000150900101609002017090030167
:101FD000461657066806790608F08EC0E091890219
:101FE000F0918A0243E0EE0FFF1F4A95E1F7E153BB
:101FF000FC4F8091050190910601A0910701B091DD
:1020000008010197A109B10985839683A783B08749
:102010000E94D7076AE070E080E090E00E943606F8
:10202000C09309010E94690640908D0250908E0273
:1020300060908F0270909002641975098609970963
:1020400044E650E00E94A50D109291020E9469069C
:1020500040908D0250908E0260908F02709090029E
:10206000641975098609970944E650E00E94A50D98
:1020700010926E020E9437090E94A101AC01092E44
:10208000000C660B770B77FF7CC0109289021092D0
:102090008A0210928B0210928C028092050190921B
:1020A0000601A0920701B09208010E94A101AC01B3
:1020B000092E000C660B770B4F3F2FEF520762077C
:1020C0007207C1F0483151056105710591F023E0B7
:1020D000880F991F2A95E1F7FC01E153FC4FD1E0ED
:1020E00085819681A781B0858D3D9F4FA105B10562
:1020F0000CF0D0E0D093040126013701D6CE4090F9
:102100008D0250908E0260908F02709090020E941B
:102110006906641975098609970944E650E00E942A
:10212000A50D6091050170910601809107019091C4
:1021300008012B013C0128E0420E511C611C711C5E
:102140000091CB031091CC032091CD033091CE03AD
:10215000041515052605370530F028E030E048E97C
:1021600054E00E942D078FEF481A580A680A780A2F
:102170004092050150920601609207017092080199
:102180000BCF33E0880F991F3A95E1F7FC01E1533B
:10219000FC4F85819681A781B0850196A11DB11D57
:1021A0008093050190930601A0930701B093080165
:1021B0004F5F5F4F6F4F7F4F4093890250938A026A
:1021C00060938B0270938C0270CFDF91CF911F913F
:1021D0000F91FF90EF90DF90CF90BF90AF909F90C6
:1021E0008F907F906F905F904F9008950C94932103
:1021F0000F931F93CF93DF930FE612E0C0E2D0E07E
:10220000F80161918F01CE010E942B1F2196CA33E4
:10221000D105B1F7DF91CF911F910F910895EF9202
:10222000FF920F931F93CF93DF93CDB7DEB76A97DB
:102230000FB6F894DEBF0FBECDBF0E94F3078FE646
:10224000E82E82E0F82E00E210E0C8010E94231F71
:10225000F70181937F010F5F1F4F0A331105A9F723
:1022600040918702509188028AE1EFE6F2E0DE01B8
:10227000119601900D928A95E1F7FE013196BE010B
:10228000675E7F4F30E020E0E617F70731F081917D
:10229000280F311D87FD3A95F7CF81E0421753078C
:1022A00009F080E06A960FB6F894DEBF0FBECDBF8E
:1022B000DF91CF911F910F91FF90EF9008951F92A2
:1022C0000F920FB60F9211242F933F934F935F936A
:1022D0006F937F938F939F93AF93BF93EF93FF93EE
:1022E0008091A0029091A102A091A202B091A302BC
:1022F000892B8A2B8B2BD1F190919B02E0919C0230
:10230000F0919D028081892780838091A002909125
:10231000A102A091A202B091A302181619061A06F2
:102320001B069CF48091A0029091A102A091A202B0
:10233000B091A3020197A109B1098093A0029093E3
:10234000A102A093A202B093A302FF91EF91BF91CB
:10235000AF919F918F917F916F915F914F913F913D
:102360002F910F900FBE0F901F90189580910A012A
:102370000E945E03EACF1F920F920FB60F921124B4
:102380002F933F934F935F936F937F938F939F937D
:10239000AF93BF93EF93FF9389E193E00E943402E0
:1023A000FF91EF91BF91AF919F918F917F916F912D
:1023B0005F914F913F912F910F900FBE0F901F9003
:1023C00018951F920F920FB60F9211242F938F938F
:1023D0009F93EF93FF93E0912903F0912A0380816B
:1023E000E0912F03F091300382FD1BC0908180911A
:1023F00032038F5F8F7320913303821741F0E09196
:102400003203F0E0E75EFC4F958F80933203FF913B
:10241000EF919F918F912F910F900FBE0F901F9072
:1024200018958081F4CF1F920F920FB60F9211244E
:102430002F933F938F939F93AF93BF9380916202AB
:1024400090916302A0916402B091650230916102A3
:1024500023E0230F2D3758F50196A11DB11D2093C0
:1024600061028093620290936302A0936402B0932E
:1024700065028091660290916702A0916802B09116
:1024800069020196A11DB11D8093660290936702B7
:10249000A0936802B0936902BF91AF919F918F9111
:1024A0003F912F910F900FBE0F901F90189526E827
:1024B000230F0296A11DB11DD2CF1F920F920FB60E
:1024C0000F9211242F933F934F935F936F937F93BA
:1024D0008F939F93AF93BF93EF93FF938091B90036
:1024E000887F803609F44AC0F0F5883209F4A7C025
:1024F00018F5803109F49BC0B8F4882309F4F9C0B9
:10250000883009F494C0FF91EF91BF91AF919F91F2
:102510008F917F916F915F914F913F912F910F908C
:102520000FBE0F901F901895883109F488C0803233
:1025300051F78093F20214C0803409F49DC040F436
:102540008033B9F38833F9F68093F20285ECB0C09A
:10255000803509F485C0883509F496C0883499F629
:102560000E947606D0CF883909F48CC038F58837B8
:1025700029F050F4883611F0803729F683E08093F3
:10258000F4021092600257C0883809F47BC0803989
:1025900019F0803809F0B7CF80916002803208F0DE
:1025A00071C0E091600281E08E0F809360028091A3
:1025B000BB00F0E0E05CFD4F80833DC0803B39F024
:1025C000E0F4803A09F479C0883A09F09CCF84E0BD
:1025D0008093F40210923F0210923E02E0916C024E
:1025E000F0916D02099580913E0281110FC081E04A
:1025F00080933E0210921E0209C0803C09F4A6CFCF
:10260000883C09F4A3CF883B09F07DCFE0913F02DD
:1026100081E08E0F80933F02F0E0E25EFD4F80810B
:102620008093BB0090913F0280913E0229C080912F
:10263000CF028093BB0085EC8093BC0064CF909167
:10264000F1028091F002981758F5E091F10281E0D3
:102650008E0F8093F102F0E0E053FD4F8081E9CFCF
:10266000E091F10281E08E0F8093F1028091BB0036
:10267000F0E0E053FD4F80839091F1028091F002F1
:102680009817C8F285E8D8CFE091F10281E08E0F6B
:102690008093F1028091BB00F0E0E053FD4F808316
:1026A0008091F30281115CCF81E08093CE0284EAB5
:1026B0008093BC001092F40226CF85EC8093BC007E
:1026C0001092F40280916002803230F4E091600256
:1026D000F0E0E05CFD4F10826091600270E0E091FC
:1026E0006A02F0916B0280E492E009951092600218
:1026F0000ACF1092F20234CFE9E1F3E013821282A2
:1027000088EE93E0A0E0B0E084839583A683B7834E
:1027100025E131E03183208325EC30E035872487C3
:1027200024EC30E03787268720EC30E0318B208B9B
:1027300021EC30E0338B228B22EC30E0358B248B84
:1027400026EC30E0378B268B118E128E138E148E72
:10275000E6EBF3E01382128284839583A683B7832A
:1027600087E291E091838083E2ECF3E080E092E005
:102770009283818381E0838380E490E095838483E6
:1027800080E5808380E090E0A1E0B0E081879287DF
:10279000A387B48782E090E09087878380E1868377
:1027A000E1EAF4E089E391E0918380831582168267
:1027B0001782108680E090E0A0E8BFE381879287CF
:1027C000A387B4870895CF93DF93CDB7DEB7CB54FB
:1027D000D1400FB6F894DEBF0FBECDBF789484B55C
:1027E000826084BD84B5816084BD85B5826085BD0D
:1027F00085B5816085BD80916E00816080936E009B
:10280000109281008091810082608093810080918C
:10281000810081608093810080918000816080933D
:1028200080008091B10084608093B1008091B000FD
:1028300081608093B00080917A00846080937A00F8
:1028400080917A00826080937A0080917A00816022
:1028500080937A0080917A00806880937A00109249
:10286000C1001092AD021092AC021092F6021092CA
:1028700018031092F40281E08093F3021092CE02CA
:1028800061E082E10E94300361E083E10E94300355
:102890008091B9008E7F8093B9008091B9008D7FBF
:1028A0008093B90088E48093B80085E48093BC00ED
:1028B00084EB91E090936D0280936C0285EB91E044
:1028C00090936B0280936A020E940F11811104C0E1
:1028D0000E94F3070E94F810809171029091720299
:1028E000A0917302B09174028C3221E09207A1058D
:1028F000B10509F477C0803B34E09307A105B10529
:1029000009F470C0803649E09407A105B10509F4C7
:1029100069C0803C52E19507A105B10509F462C088
:102920008038E5E29E07A105B10509F45BC080345B
:10293000F8E39F07A105B10509F454C081152BE404
:102940009207A105B10509F44DC0803830E793071F
:10295000A105B10509F446C0811546E99407A10512
:10296000B10509F43FC0811551EE9507A105B105E8
:10297000C9F18115E2EC9E07E1E0AE07B10591F1E6
:1029800081159448A340B10569F180E096E9A0E083
:10299000B0E08093710290937202A0937302B0939F
:1029A00074028AE1EFE6F2E0DE01AF5EBE4F019015
:1029B0000D928A95E1F7FE01EF5EFE4FAF01485E92
:1029C0005F4F90E080E0E417F50731F02191820F2E
:1029D000911D27FD9A95F7CF9093880280938702E7
:1029E0000E94F81080E096E9A0E0B0E080937102C8
:1029F00090937202A0937302B0937402E091290342
:102A0000F0912A0382E08083E0912503F091260370
:102A10001082E0912703F091280383E380831092D2
:102A20003103E0912D03F0912E0386E08083E09145
:102A30002B03F0912C03808180618083E0912B0334
:102A4000F0912C03808188608083E0912B03F091CA
:102A50002C03808180688083E0912B03F0912C030C
:102A600080818F7D808362E080E00E948A0360E045
:102A70008AE00E948A038DED90E00E94A3020E94EA
:102A8000AA0A61E084E00E948A0360E084E00E9478
:102A9000300348EE53E060E070E090E080E00E9498
:102AA000C6036CED75E080E090E00E94360684E09D
:102AB0000E945E0387E991E00E944D0B02E310E063
:102AC0000E94FE0901501109D9F70AE010E0C12C5B
:102AD000D12C76010E94FE09C60ED71EE81EF91EF3
:102AE00062E370E080E090E00E9436060150110938
:102AF00089F7C701B6010E94031E20E030E040E2E2
:102B000051E40E94F71F0E9469206093960270931F
:102B1000970280939802909399028BEC90E00E9428
:102B2000A3020E9437090E94A101AC01092E000CEA
:102B3000660B770B77FFC2C01092890210928A024F
:102B400010928B0210928C0289EC90E0A0E0B0E031
:102B50008093050190930601A0930701B0930801AB
:102B60000E94A101AC01092E000C660B770B4F3FB0
:102B70002FEF520762077207C1F048315105610516
:102B8000710509F4BFC023E0880F991F2A95E1F76A
:102B9000FC01E153FC4F85819681A781B0858D3D75
:102BA0009F4FA105B1050CF0ADC081E080930401F9
:102BB00083EB91E00E949C0AAE0147585F4FC95CCD
:102BC000DE4F59834883C753D1401E0155ED251A66
:102BD0005EEF350AC1010296C65BDE4F998388839A
:102BE000CA54D140DE01AB59BF4FC75CDE4FB98339
:102BF000A883C953D14010E000E080E2F82EBBE387
:102C0000FB1609F492C080919A0281113BC00E9488
:102C1000FE098090960290909702A0909802B09042
:102C20009902681979098A099B0960939202709345
:102C3000930280939402909395028091910288234D
:102C400091F00E94690680908D0290908E02A09073
:102C50008F02B0909002681979098A099B0948ECA3
:102C600050E00E94A50D8AE00E940703019709F039
:102C700050C044EF51E060E070E0CB010E94A50D30
:102C80000E94690689E193E00E941402892B09F4ED
:102C9000B6CF89E193E00E94F201F82EEBE38E17A4
:102CA000E9F1FAE08F1771F3E9E7F0E0EC0FFD1FAF
:102CB000E00FF11F80830F5F1F4FE4CF33E0880FD9
:102CC000991F3A95E1F7FC01E153FC4F858196810C
:102CD000A781B0850196A11DB11D80930501909338
:102CE0000601A0930701B09308014F5F5F4F6F4F3C
:102CF0007F4F4093890250938A0260938B027093B6
:102D00008C022ECF1092040185EA91E00E949C0A69
:102D10004FCF109209010E94D20EB2CFE9E7F0E046
:102D2000EC0FFD1FE00FF11F1082CE0187589F4F5F
:102D30000E949C0AEA968FADEA978536B1F587EF37
:102D400091E00E94AF0BEFECF3E01182128213824C
:102D500014821582168217821086389624E0E7398D
:102D6000F20799F70E94D7071092890210928A02FF
:102D700010928B0210928C0289EC90E0A0E0B0E0FF
:102D80008093050190930601A0930701B093080179
:102D900080E090E0892B09F42ECF0E942002882346
:102DA00009F429CF0E9400001DCF8237A1F583EEE0
:102DB00091E00E94AF0BEB968FADEB970E944F0B0B
:102DC0008EE391E00E949C0AEB968FADEB9789838E
:102DD000EC968FADEC978823B9F08A831B82CE01E5
:102DE00001960E94201C97FD11C08CEB91E00E947F
:102DF0009C0ACE0101960E94021C0E94BD0B8EEC23
:102E000091E00E949C0AC4CF1A82E9CF8BEC91E03A
:102E10000E94AF0BBDCF873739F48FEB91E00E9452
:102E2000AF0B0E94D20EB4CF8E3659F487EA91E0F0
:102E30000E94AF0B84EA91E00E94A3020E94600B03
:102E4000A7CF8C3629F480E991E00E94AF0BF6CF32
:102E5000833609F038C229E730E02C0F3D1F2F5F81
:102E60003F4FDE011196CD01B901C95CDE4FE8810B
:102E7000F981C753D1406E1B7F0BF90141919F012E
:102E8000442311F04D93F0CFFB01E80FF91F10829E
:102E90000E94FE1BCB5BDE4F688379838A839B8312
:102EA000C554D14060917F0270918002809181026F
:102EB000909182020E94031E4B015C012091A604A6
:102EC0003091A7044091A8045091A904C45CDE4F3E
:102ED000288339834A835B83CC53D1408092AA04F0
:102EE0009092AB04A092AC04B092AD040E94692011
:102EF0009B01AC010EED11E0C45CDE4F688179816D
:102F00008A819B81CC53D1400E94F60C0E94D20949
:102F100020E030E0A9010E949F2018160CF0BFC0ED
:102F20000E94D2092B013C0134E6C75BDE4F388397
:102F3000C954D140C55CDE4F1882CB53D14041E02B
:102F4000CC5BDE4F4883C454D1400E94D20920E0BC
:102F500030E0A9010E949F2018160CF0A9C00E9421
:102F6000D209C05CDE4F688379838A839B83C05417
:102F7000D140CB5BDE4F288139814A815B81C554CA
:102F8000D140C05CDE4F688179818A819B81C054C9
:102F9000D1400E948A1F6B017C0120E030E0A90132
:102FA0000E949F2018160CF091C02AE037ED43E2F2
:102FB0005CE3C701B6010E949F2087FF96C0C50150
:102FC000B4010E9469206B017C01C0927F02D09203
:102FD0008002E0928102F0928202C45CDE4F88811E
:102FE0009981AA81BB81CC53D14080938302909375
:102FF0008402A0938502B09386020FEE11E0A70130
:103000009601BC01CD010E94F60CC45CDE4F288104
:1030100039814A815B81CC53D1402093A6043093FF
:10302000A7044093A8045093A90460917F02709173
:10303000800280918102909182020E94031E60931F
:10304000AA047093AB048093AC049093AD04A701E1
:103050009601C45CDE4F688179818A819B81CC5363
:10306000D1400E94F60C8AE1EFE6F2E0DE01A950C1
:10307000BF4F01900D928A95E1F7FE01E950FF4F95
:10308000AF01485E5F4F90E080E0E417F50709F478
:103090000FC12191820F911D27FD9A95F6CF0E94B5
:1030A000D2092B013C0177FA709477F870943CCFE9
:1030B0000E94D2099B01AC015058C05CDE4F2883AE
:1030C00039834A835B83C054D14053CF2AE037ED24
:1030D00043E25CEBC701B6010E94FC1D18160CF41C
:1030E0006ECFF7FAF094F7F8F094CB5BDE4F2881BF
:1030F00039814A815B81C554D140C301B2010E942C
:103100008A1F2B013C0120E030E0A9010E949F2092
:10311000181624F077FA709477F87094A30192014E
:10312000C701B6010E94FC1D87FF8CC0CC5BDE4F3F
:103130003881C454D140313009F457C3C05CDE4FEC
:10314000288139814A815B81C054D140CB5BDE4FFD
:10315000688179818A819B81C554D1400E949F20DA
:1031600018160CF06FC0C55CDE4F4881CB53D140C0
:103170004F5FC55CDE4F4883CB53D14051E0CC5B01
:10318000DE4F5883C454D140C55CDE4FB881CB5369
:10319000D140B330A8F0C75BDE4FE881C954D140BD
:1031A000E13071F08E2F6AE00E94A420C75BDE4FF1
:1031B0008883C954D140C55CDE4F1882CB53D140BF
:1031C000C75BDE4F2881C954D140CC5BDE4F3881CC
:1031D000C454D1403203B0011124072E000C880BD7
:1031E000990B0E94031E9B01AC01C501B4010E9412
:1031F0008B1F4B015C018092AA049092AB04A092B9
:10320000AC04B092AD040E9469209B01AC0103EEB6
:1032100011E0C45CDE4F688179818A819B81CC5347
:10322000D1400E94F60C65E070E080E090E00E94E2
:103230003606C05CDE4F488059806A807B80C0546F
:10324000D14083CEA3019201C701B6010E949F2005
:1032500087FD9ACFCC5BDE4F8881C454D1408F3F2D
:1032600009F492CFC05CDE4F288139814A815B81AD
:10327000C054D140CB5BDE4F688179818A819B81CC
:10328000C554D1400E94FC1D87FF7ECFC55CDE4F38
:103290009881CB53D1409F5FC55CDE4F9883CB5361
:1032A000D140AFEFCC5BDE4FA883C454D1406CCF8C
:1032B00090938802809387020E94F8108AE891E038
:1032C0000E94A30265CD8136A1F481E891E00E94BD
:1032D000A30210E000E00E94A1018017910734F0E2
:1032E000C8010E94BD0B0F5F1F4FF5CF8AE791E029
:1032F000E7CF823609F042C181E791E00E94A30244
:103300001A821982FE01339686E7DF011D928A95A3
:10331000E9F7F1011182108288E0C65BDE4FA881D7
:10332000B981CA54D1401D928A95E9F70E940F11C4
:10333000811104C08CEE90E00E94A30264EF71E062
:10334000CE0101960E941C22809170028F93809181
:103350006F028F9302E711E01F930F933F922F921A
:103360000E942722B101CE0101960E941C2265E035
:1033700072E0CE0101960E941C2265E971E0CE0147
:1033800001960E941C221F9281E08F931F930F933E
:103390003F922F920E942722B101CE0101960E94F6
:1033A0001C221F921F921F930F933F922F920E94F5
:1033B0002722B101CE0101960E941C228091740245
:1033C0008F93809173028F93809172028F9380917B
:1033D00071028F938FE092E09F938F933F922F9291
:1033E0000E942722B101CE0101960E941C228091E9
:1033F0007C028F9380917B028F931F930F933F9258
:103400002F920E9427220FB6F894DEBF0FBECDBFC9
:10341000B101CE0101960E941C22809176028F9309
:10342000809175028F931F930F933F922F920E946A
:103430002722B101CE0101960E941C2280917802C0
:103440008F93809177028F931F930F933F922F92C8
:103450000E942722B101CE0101960E941C22809178
:103460007A028F93809179028F931F930F933F92EB
:103470002F920E942722B101CE0101960E941C22A8
:1034800080917E028F9380917D028F931F930F9383
:103490003F922F920E942722B101CE0101960E94F5
:1034A0001C22809182028F93809181028F93809160
:1034B00080028F9380917F028F931F930F933F928F
:1034C0002F920E9427220FB6F894DEBF0FBECDBF09
:1034D000B101CE0101960E941C22809186028F9339
:1034E000809185028F93809184028F9380918302D3
:1034F0008F931F930F933F922F920E942722B10127
:10350000CE0101960E941C22FE0131960FB6F8945E
:10351000DEBF0FBECDBF90E080E02191820F911DF4
:1035200027FD9A95C95CDE4FA881B981C753D14068
:10353000EA17FB0791F799279F938F9384E192E015
:103540009F938F933F922F920E942722B101CE0129
:1035500001960E941C2289E791E00E944D0BCE014A
:1035600001960E944D0B8AE691E00E94A3020F9003
:103570000F900F900F900F900F900ACC833709F0A7
:10358000DFC0E9E7F0E0EC0FFD1FCB5CDE4FF98315
:10359000E883C553D1401A821982FE01339682E630
:1035A000DF011D928A95E9F7D12CC12C10E000E0D3
:1035B000AE014B5C5E4F65E971E0CB5CDE4F88810C
:1035C0009981C553D1400E94471C7C01009709F4A2
:1035D00071C0F8013197EA30F105C8F4EE50F54EAC
:1035E0000C94F120FC1A0A1B151B1C1B231B2A1B05
:1035F000311B381B471B561B0E94021C9093700204
:1036000080936F02B701CE0101960E941C220F5FCA
:103610001F4FCECF0E94201C6093710270937202E4
:103620008093730290937402EDCF0E94021C9093DA
:10363000760280937502E6CF0E94021C9093780276
:1036400080937702DFCF0E94021C90937A028093CE
:103650007902D8CF0E94021C90937C0280937B0257
:10366000D1CF0E94021C90937E0280937D02CACF2C
:103670000E94021C092E000CAA0BBB0B80937F0238
:1036800090938002A0938102B0938202BBCF0E94EC
:10369000021C092E000CAA0BBB0B80938302909393
:1036A0008402A0938502B0938602ACCF0E94021CD4
:1036B0006C01ADCF093011050CF43FC0FE0131960D
:1036C00090E080E02191820F911D27FD9A95C75CC3
:1036D000DE4F28813981C953D1402E173F0791F71A
:1036E0008C151D0451F58AE1EFE6F2E0DE01A352EC
:1036F000BF4F01900D928A95E1F7FE01E352FF4F13
:10370000AF01485E5F4F90E080E04E175F0731F0F9
:103710002191820F911D27FD9A95F7CF90938802F2
:10372000809387020E94F81084E691E00E94A30231
:103730000E940F110E94AA0A2BCB8EE591E0C0CD0A
:10374000843629F40E94F3070E94F810F3CF8437DF
:1037500049F40E94F3070E94F8100E94AA0A8EE41E
:1037600091E0AECD863631F481E080939A0288E410
:1037700091E0A6CD873629F410929A0282E491E076
:103780009FCD883619F48CE391E09ACD893609F4FF
:10379000FFCA8937B1F4EB968FADEB97813351F4C3
:1037A00089E291E00E94A30281E080936E028FE0A3
:1037B00091E086CD85E191E00E94A30210926E0215
:1037C000F6CF8D3619F489E091E07ACD803219F484
:1037D00083E091E075CD89EF90E00E94A302EA9624
:1037E0008FADEA970E944F0BD3CAA3019201C70184
:1037F000B6010E949F2087FF35CDC6CC662777276C
:103800000C948B1CFC0188279927E8942191203285
:10381000E9F3293010F02E30C8F32B3241F02D326D
:1038200039F4689404C00E94831C820F911D219179
:1038300020532A30C0F31EF4909581959F4F089530
:103840001F93FC0199278827BC01E894119110323D
:10385000E9F3193010F01E30C8F31B3251F01D325D
:1038600049F4689406C00E946E1C610F711D811D91
:10387000911D119110531A30B0F33EF4909580953C
:10388000709561957F4F8F4F9F4F1F910895FA015B
:10389000A191B081009719F41097E1F0CD01DC01FE
:1038A000CD010D90002011F4C00113C0FB01219146
:1038B000222319F02015D9F7F3CFFB012191201510
:1038C00019F41E92119606C02223C1F70D90002014
:1038D000A1F7D001FA01A193B0830895592F482F81
:1038E000372F262F660F771F881F991F660F771FA8
:1038F000881F991F620F731F841F951F660F771F04
:10390000881F991F08957AE0979F902D879F802D9B
:10391000910D11240895B0E0A0E0E1E9FCE10C94E0
:103920004A1F5C017B016115710519F0DB018D9364
:103930009C9385010F5F1F4FF501D0818D2F90E083
:103940000E94DB1D6C01892BB9F5DD32B9F50F5FE3
:103950001F4FD5011196DC91C1E05801F1E0AF1A7B
:10396000B10843E050E060E770E0C5010E94E41D4B
:10397000892B69F5680182E0C80ED11C45E050E052
:103980006BE670E0C6010E94E41D892B21F46801FA
:1039900097E0C90ED11CE114F10419F0D701CD92C2
:1039A000DC9260E070E080E89FEFC111FFC060E052
:1039B00070E080E89FE7FAC05801BBCFDB3229F402
:1039C00085010E5F1F4FF501D181C0E0C6CF43E0F6
:1039D00050E068E670E0C5010E94E41D892BE9F023
:1039E000F80110E000E020E030E0A9015F01B0ED57
:1039F0008B2E8D0E89E08815C8F19C2E689491F865
:103A00008C2F8870C2FF16C0811102C00F5F1F4F3C
:103A10003196D501DC91C92DE9CFE114F10429F0EB
:103A20000E5F1F4FF7011183008360E070E080ECB0
:103A30009FE7BCC0882311F001501109A5E0B0E058
:103A40000E94391F9B01AC01220F331F441F551FD9
:103A5000280D311D411D511D283999E939074907A4
:103A600099E15907A8F2C6609C2ED2CFAEEF8A1218
:103A700006C0C3FD3CC09C2E689493F8C9CFDF7D7F
:103A8000D534A9F580818D3239F4C061DF011296F9
:103A9000818162E070E006C0DF018B32C1F31196D4
:103AA00061E070E080535D01A61AB70A8A30F8F42D
:103AB000E0E8CE16ECE0DE065CF4B601660F771F98
:103AC000660F771FC60ED71ECC0CDD1CC80ED11C8E
:103AD0005D01FFEFAF1ABF0A8C9180538A30A8F1C5
:103AE000C4FF03C0D194C194D1080C0D1D1DC1FFAA
:103AF00009C0E114F10431F081E0A81AB108D7013E
:103B0000AD92BC92CA01B9010E94011EC370C330BC
:103B100009F490584B015C0120E030E0A9010E94BB
:103B2000FC1D882309F440C0CFE9D0E017FF05C091
:103B3000119501951109C7E8D0E06E01B8E1CB1AE3
:103B4000D10880E2E82EF12C0FC0D501B1CFFE01E3
:103B500025913591459154910E191F09C501B40164
:103B60000E94621E4B015C01D501C4010E151F05A8
:103B700074F72497F594E794CC16DD06A9F78A2FFD
:103B8000880F8B2F881F8F3F49F020E030E0A9017C
:103B9000C501B4010E94FC1D811106C082E290E0C3
:103BA0009093AF048093AE04C501B401CDB7DEB7E6
:103BB000ECE00C94661F91110C94CF1E803219F02A
:103BC00089508550C8F70895FB01DC0141505040F1
:103BD00088F08D9181341CF08B350CF4805E6591FA
:103BE00061341CF06B350CF4605E861B611171F35F
:103BF000990B0895881BFCCF0E943E1E08F481E0BB
:103C00000895E89409C097FB3EF4909580957095CF
:103C100061957F4F8F4F9F4F9923A9F0F92F96E918
:103C2000BB279395F695879577956795B795F1118D
:103C3000F8CFFAF4BB0F11F460FF1BC06F5F7F4F2A
:103C40008F4F9F4F16C0882311F096E911C077233C
:103C500021F09EE8872F762F05C0662371F096E845
:103C6000862F70E060E02AF09A95660F771F881F14
:103C7000DAF7880F9695879597F90895990F0008B8
:103C8000550FAA0BE0E8FEEF16161706E807F9072E
:103C9000C0F012161306E407F50798F0621B730BC9
:103CA000840B950B39F40A2661F0232B242B252B4A
:103CB00021F408950A2609F4A140A6958FEF811DED
:103CC000811D08950E94751E0C94E91E0E94DB1E42
:103CD00038F00E94E21E20F0952311F00C94D21EC1
:103CE0000C94D81E11240C941D1F0E94FA1E70F310
:103CF000959FC1F3950F50E0551F629FF001729F91
:103D0000BB27F00DB11D639FAA27F00DB11DAA1F9F
:103D1000649F6627B00DA11D661F829F2227B00DEC
:103D2000A11D621F739FB00DA11D621F839FA00D77
:103D3000611D221F749F3327A00D611D231F849FC7
:103D4000600D211D822F762F6A2F11249F5750401E
:103D50009AF0F1F088234AF0EE0FFF1FBB1F661F99
:103D6000771F881F91505040A9F79E3F510580F062
:103D70000C94D21E0C941D1F5F3FE4F3983ED4F3C5
:103D8000869577956795B795F795E7959F5FC1F706
:103D9000FE2B880F911D9695879597F90895992781
:103DA0008827089597F99F6780E870E060E008959C
:103DB0009FEF80EC089500240A9416161706180643
:103DC0000906089500240A9412161306140605061F
:103DD0000895092E0394000C11F4882352F0BB0FB0
:103DE00040F4BF2B11F460FF04C06F5F7F4F8F4F13
:103DF0009F4F089557FD9058440F551F59F05F3F4E
:103E000071F04795880F97FB991F61F09F3F79F0FC
:103E100087950895121613061406551FF2CF46957E
:103E2000F1DF08C0161617061806991FF1CF869500
:103E30007105610508940895E894BB2766277727E4
:103E4000CB0197F90895F999FECF92BD81BDF89AFB
:103E5000992780B50895262FF999FECF1FBA92BDF4
:103E600081BD20BD0FB6F894FA9AF99A0FBE01965B
:103E700008950E947B1FA59F900DB49F900DA49F55
:103E8000800D911D112408952F923F924F925F92C1
:103E90006F927F928F929F92AF92BF92CF92DF925A
:103EA000EF92FF920F931F93CF93DF93CDB7DEB7BF
:103EB000CA1BDB0B0FB6F894DEBF0FBECDBF099453
:103EC0002A88398848885F846E847D848C849B84AA
:103ED000AA84B984C884DF80EE80FD800C811B81B8
:103EE000AA81B981CE0FD11D0FB6F894DEBF0FBEE7
:103EF000CDBFED010895A29FB001B39FC001A39F64
:103F0000700D811D1124911DB29F700D811D112412
:103F1000911D08955058BB27AA270E94A21F0C94F8
:103F2000E91E0E94DB1E38F00E94E21E20F039F4E8
:103F30009F3F19F426F40C94D81E0EF4E095E7FB8D
:103F40000C94D21EE92F0E94FA1E58F3BA1762078A
:103F500073078407950720F079F4A6F50C941C1FCD
:103F60000EF4E0950B2EBA2FA02D0B01B901900194
:103F70000C01CA01A0011124FF27591B99F0593FD8
:103F800050F4503E68F11A16F040A22F232F342F20
:103F90004427585FF3CF469537952795A795F0406E
:103FA0005395C9F77EF41F16BA0B620B730B840B83
:103FB000BAF09150A1F0FF0FBB1F661F771F881F3B
:103FC000C2F70EC0BA0F621F731F841F48F4879593
:103FD00077956795B795F7959E3F08F0B0CF939585
:103FE000880F08F09927EE0F9795879508950E94FE
:103FF0000B200C94E91E0E94E21E58F00E94DB1E6A
:1040000040F029F45F3F29F00C94D21E51110C941A
:104010001D1F0C94D81E0E94FA1E68F39923B1F359
:10402000552391F3951B550BBB27AA2762177307DE
:10403000840738F09F5F5F4F220F331F441FAA1F72
:10404000A9F335D00E2E3AF0E0E832D0915050402E
:10405000E695001CCAF72BD0FE2F29D0660F771FDC
:10406000881FBB1F261737074807AB07B0E809F0C2
:10407000BB0B802DBF01FF2793585F4F3AF09E3F47
:10408000510578F00C94D21E0C941D1F5F3FE4F391
:10409000983ED4F3869577956795B795F7959F5F8A
:1040A000C9F7880F911D9695879597F90895E1E0D6
:1040B000660F771F881FBB1F621773078407BA0735
:1040C00020F0621B730B840BBA0BEE1F88F7E09590
:1040D00008950E9470206894B1110C941D1F0895DA
:1040E0000E94021F88F09F5798F0B92F9927B75167
:1040F000B0F0E1F0660F771F881F991F1AF0BA958C
:10410000C9F714C0B13091F00E941C1FB1E00895AE
:104110000C941C1F672F782F8827B85F39F0B93FA0
:10412000CCF3869577956795B395D9F73EF490953E
:104130008095709561957F4F8F4F9F4F08950E9496
:104140003E1E08F48FEF0895991B79E004C0991F73
:10415000961708F0961B881F7A95C9F780950895E1
:10416000A1E21A2EAA1BBB1BFD010DC0AA1FBB1F7B
:10417000EE1FFF1FA217B307E407F50720F0A21BED
:10418000B30BE40BF50B661F771F881F991F1A945A
:1041900069F760957095809590959B01AC01BD0184
:1041A000CF010895052E97FB1EF400940E94E9208C
:1041B00057FD07D00E94B02007FC03D04EF40C94AA
:1041C000E92050954095309521953F4F4F4F5F4FD7
:1041D000089590958095709561957F4F8F4F9F4F73
:1041E0000895EE0FFF1F0590F491E02D09940F93B1
:1041F0001F93CF93DF938230910510F482E090E01B
:10420000E091B204F091B30430E020E0B0E0A0E02F
:10421000309799F42115310509F44AC0281B390B50
:1042200024303105D8F58A819B816115710589F1AA
:10423000FB0193838283FE0111C040815181028181
:10424000138148175907E0F04817590799F4109758
:1042500061F012960C93129713961C933296CF012D
:10426000DF91CF911F910F9108950093B2041093A5
:10427000B304F4CF2115310551F04217530738F03C
:10428000A901DB019A01BD01DF01F801C1CFEF01F6
:10429000F9CF9093B3048093B204CDCFFE01E20F27
:1042A000F31F819391932250310939832883D7CF0B
:1042B0002091B0043091B104232B41F420910D01E1
:1042C00030910E013093B1042093B00420910B0182
:1042D00030910C012115310541F42DB73EB74091C5
:1042E0000F0150911001241B350BE091B004F091A7
:1042F000B104E217F307A0F42E1B3F0B2817390770
:1043000078F0AC014E5F5F4F2417350748F04E0F31
:104310005F1F5093B1044093B004819391939FCF5A
:10432000F0E0E0E09CCFCF93DF930097E9F0FC0151
:10433000329713821282A091B204B091B304ED01BE
:1043400030E020E01097A1F420813181820F931F8B
:104350002091B0043091B1042817390709F061C0E9
:10436000F093B104E093B004DF91CF910895EA0196
:10437000CE17DF07E8F54A815B819E0141155105A3
:10438000B1F7E901FB83EA8349915991C40FD51F25
:10439000EC17FD0761F4808191810296840F951FCF
:1043A000E90199838883828193819B838A83F0E0EA
:1043B000E0E012968D919C9113970097B9F52D919D
:1043C0003C911197CD010296820F931F2091B0046A
:1043D0003091B1042817390739F6309751F510920A
:1043E000B3041092B204B093B104A093B004BCCF54
:1043F000D383C28340815181840F951FC817D90789
:1044000061F44E5F5F4F88819981480F591F518336
:1044100040838A819B81938382832115310509F032
:10442000B0CFF093B304E093B2049ECFFD01DC0162
:10443000C0CF13821282D7CFFB01DC010D90002088
:10444000E9F7119701900D920020E1F70895AEE091
:10445000B0E0EDE2F2E20C94521F0D891E8986E075
:104460008C831A8309838FEF9FE79E838D83AE0130
:10447000475E5F4F6F89788DCE0101960E944A2278
:104480002F813885020F131FF80110822E96E4E069
:104490000C946E1FABE0B0E0E0E5F2E20C94441F38
:1044A0007C013B018A01FC0117821682838181FF16
:1044B000C8C1CE0101965C01F7019381F30193FD20
:1044C000859193FF81913F01882309F453C185327F
:1044D00039F493FD859193FF81913F01853229F451
:1044E000B70190E00E943A24E7CF912C212C312C87
:1044F000FFE1F31538F08B3211F190F4803209F1BD
:10450000833229F137FC3CC020ED280F2A3050F5CA
:1045100036FE20C08AE0989E200D1124922E06C0FF
:104520008D3291F0803371F7689430F8F30193FD88
:10453000859193FF81913F018111DACF21C0689469
:1045400031F8689432F8F2CF689433F8EFCF68947A
:1045500034F8ECCFEAE02E9E200D1124222E689430
:1045600035F8E4CF8E3229F436FC04C1689436F86D
:10457000DDCF8C3619F4689437F8D8CF8836B1F28D
:10458000982F9F7D95549330E0F08336A1F18337C7
:10459000C1F1833509F063C02801F2E04F0E511CD0
:1045A000F801C080D180692D70E036FC02C06FEF49
:1045B0007FEFC6010E9424244C01689437F88201E1
:1045C0000AC00C5F1F4FFFE3F98388248394912C6A
:1045D0006501E89437F833FE2DC0522C8114910404
:1045E00071F5552009F468CFB70180E290E00E9490
:1045F0003A245A94F6CFF801808189830E5F1F4FC9
:10460000E4CF2801F2E04F0E511CF801C080D180A8
:10461000692D70E036FC02C06FEF7FEFC6010E948B
:104620002F244C018201D5CFB70180E290E00E9497
:104630003A242A942814190409F0B0F7CECFF601D1
:1046400037FC859137FE81916F01B70190E00E94A0
:104650003A2451105A94F1E08F1A9108BFCF843652
:1046600019F0893609F077C0F80137FE6BC0608118
:104670007181828193810C5F1F4FF32DFF763F2E56
:1046800097FF09C090958095709561957F4F8F4FEA
:104690009F4F689437F82AE030E0A5010E946A2411
:1046A000C82ECA188C2C432C36FE0CC0E89440F857
:1046B000C91440F434FE05C032FC03C0F32DFE7E65
:1046C0004F2E892C44FE95C0FE01EC0DF11D80811A
:1046D000803309F087C0242D297E422E842D8870D6
:1046E000582E43FC95C040FE8FC09C2C821418F4B9
:1046F0002C0C922C981844FE91C0B70180E390E0F6
:104700000E943A2442FE09C088E790E041FE02C0C0
:1047100088E590E0B7010E943A24C91408F48AC0E1
:10472000CA94D12C9FEFC91AD90ACA0CDB1CF60116
:1047300082916F01B70190E00E943A24AC14BD044D
:10474000B1F74FCF60817181072E000C880B990B58
:104750000E5F1F4F92CFD32CE894D4F82AE030E0BC
:10476000853739F1232D297FD22E8F3601F148F478
:104770008835A9F0F701868197812B96E2E10C94A8
:10478000601F803749F08837A9F7D4FE02C06894CB
:10479000D2F820E130E00DC06894D4F8F6CF34FEB2
:1047A00003C0822F8660D82E20E132E002C028E0CC
:1047B00030E0F801D7FE0FC0608171818281938162
:1047C0000C5F1F4FA5010E946A24C82ECA183D2CF9
:1047D000E89437F867CF6081718190E080E00E5FE8
:1047E0001F4FF0CF42FC02C0839478CF8394839410
:1047F00075CF842D867809F471CFF6CFB70180E2AA
:1048000090E00E943A2483948214C0F3512C73CF19
:10481000522C5818821408F46ECFF8CF842D867865
:1048200009F47BCF8BE241FE80E247FC8DE2B701C9
:1048300090E071CFB70180E390E00E943A249A940F
:104840006CCF8FEF9FEF99CFFC01059061507040C6
:104850000110D8F7809590958E0F9F1F0895FC0149
:104860006150704001900110D8F7809590958E0F9F
:104870009F1F08950F931F93CF93DF93182F092F36
:10488000EB018B8181FD09C01FEF0FEF812F902F6E
:10489000DF91CF911F910F91089582FF14C02E8157
:1048A0003F818C819D81281739073CF4E881F9818B
:1048B000CF0101969983888310838E819F81019611
:1048C0009F838E83E3CFE885F985812F0995892B16
:1048D000A1F3DACFFA01AA27283051F1203181F172
:1048E000E8946F936E7F6E5F7F4F8F4F9F4FAF4FF8
:1048F000B1E03ED0B4E03CD0670F781F891F9A1F0B
:10490000A11D680F791F8A1F911DA11D6A0F711DBE
:10491000811D911DA11D20D009F468943F912AE0CA
:10492000269F11243019305D3193DEF6CF010895B2
:10493000462F4770405D4193B3E00FD0C9F7F6CFE3
:10494000462F4F70405D4A3318F0495D31FD4052AB
:10495000419302D0A9F7EACFB4E0A6959795879541
:1049600077956795BA95C9F7009761057105089520
:104970009B01AC010A2E06945795479537952795CC
:10498000BA95C9F7620F731F841F951FA01D089564
:04499000F894FFCFC9
:10499400204E000001C800000001FF0000B40480A4
:1049A40000000000005602B601E301BE021402F248
:1049B40001060200000000FE06D106F007A706CAA1
:1049C40006B706A806000000007506F6100D0A00DA
:1049D4005363616C65207461726564005468727518
:1049E40073744375727665204E62723A2000537474
:1049F4006172743A2000456E643A20006461746107
:104A04002C0025692C00256900240063616C69620F
:104A1400726174696F6E2C0074656C656D65747277
:104A2400792C002D312C006265666F722063616CF5
:104A34006D616E0A0043616E6E6F74207265636F00
:104A4400726400456E6420696E6974005374617207
:104A54007454687275737443757276653B00456E61
:104A64006454687275737443757276653B00496E5D
:104A7400697400496E2070726F67726573730044C5
:104A84006F6E6500746573747374616E64636F6EC6
:104A94006669672C00546573745374616E640025F1
:0A4AA4006C752C0025693B0A000028
:00000001FF
