:100000000C94FC000C9424010C9424010C94240105
:100010000C9424010C9424010C9424010C942711B9
:100020000C9424010C9424010C9424010C942401BC
:100030000C9424010C9424010C9424010C942401AC
:100040000C94DB110C9424010C94A9110C948311D1
:100050000C9424010C9424010C9424010C9424018C
:100060000C9425120C942401696E76616C696420ED
:10007000636F6E660024554E4B4E4F574E3B002427
:100080004B303B0A00244F4B3B0A00244F4B3B0AAA
:100090000054656C656D6574727920646973616282
:1000A0006C65640A0054656C656D657472792065D1
:1000B0006E61626C65640A00244F4B3B0A00244F5A
:1000C0004B3B0A00244F4B3B0A00636F6E66696727
:1000D00020726573657465640A00244B4F3B0A0007
:1000E000244F4B3B0A0024656E643B0A0024737462
:1000F0006172743B0A0024656E643B0A00247374C9
:100100006172743B0A00436F6E74696E756974792D
:10011000206F6E200A00436F6E74696E7569747982
:10012000206F6666200A0054687275737443757296
:100130007665204C6973743A200A006E3B004E7558
:100140006D626572206F66205468727573744375B2
:10015000727665200A005265636F7264696E67206B
:100160000A006E6F7420612076616C6964205468A7
:1001700072757374437572766500526561642054BC
:1001800068727573742043757276653A2000457203
:100190006173650A0000000000240027002A0000A7
:1001A0000000080002010000030407000000000036
:1001B00000000053746172742070726F6772616D19
:1001C0000A000102040810204080010204081020E7
:1001D00001020408102000000000250028002B0068
:1001E00004040404040404040202020202020303DD
:1001F000030303030200441311241FBECFEFD8E012
:10020000DEBFCDBF11E0A0E0B1E0E8E6F7E302C059
:1002100005900D92A03CB107D9F724E0A0ECB1E025
:1002200001C01D92A534B207E1F710E0CCEFD0E099
:1002300004C02197FE010E94AF18CB3FD107C9F738
:100240000E9499130C94B21B0C940000982F2091DB
:10025000BC0281E0213208F043C0809198028111F4
:10026000FCCF8091BB0232E03093980290939702CA
:100270009FEF909396021092950220939402ABE91F
:10028000B2E0E4E7F2E090E0291331C0109273028B
:1002900090917302880F892B809373028091720270
:1002A000813049F510927202809173028093BB00F5
:1002B0008091BC0083FDF8CF85EC8093BC008091D9
:1002C00098028230E1F3809196028F3FB1F08091E5
:1002D00096028032A1F080919602803391F084E002
:1002E00010929A021092BC021092990208953D91C8
:1002F00031939F5FC9CF85EEE0CF80E0F1CF82E000
:10030000EFCF83E0EDCFE3E7F3E090E080E04181E1
:10031000528163817481452B462B472B29F001962E
:1003200038968931910599F70197089508950895B0
:10033000AF92BF92CF92DF92EF92FF920F931F93F3
:10034000CF93DF936C017B018B01040F151FEB0131
:100350005E01AE18BF08C017D10759F06991D601E8
:10036000ED91FC910190F081E02DC6010995892B5A
:1003700079F7C501DF91CF911F910F91FF90EF9019
:10038000DF90CF90BF90AF900895FC01538D448DC6
:10039000252F30E0842F90E0821B930B541710F030
:1003A000CF96089501970895FC01918D828D98173D
:1003B00061F0A28DAE0FBF2FB11D5D968C91928D15
:1003C0009F5F9F73928F90E008958FEF9FEF089546
:1003D000FC01918D828D981731F0828DE80FF11D0F
:1003E000858D90E008958FEF9FEF0895FC01918D2A
:1003F000228D892F90E0805C9F4F821B91098F7323
:10040000992708958DEB92E00E94F60121E0892B57
:1004100009F420E0822F089580E090E0892B29F0F4
:100420000E94020281110C9400000895FC01A48D29
:10043000A80FB92FB11DA35ABF4F2C91848D90E006
:1004400001968F739927848FA689B7892C93A089E9
:10045000B1898C91837080648C93938D848D981373
:1004600006C00288F389E02D80818F7D8083089506
:10047000EF92FF920F931F93CF93DF93EC0181E0F4
:10048000888F9B8D8C8D98131AC0E889F98980819B
:1004900085FF15C09FB7F894EE89FF896083E889CE
:1004A000F98980818370806480839FBF81E090E0C0
:1004B000DF91CF911F910F91FF90EF900895F62E4D
:1004C0000B8D10E00F5F1F4F0F731127E02E8C8DE7
:1004D0008E110CC00FB607FCFACFE889F98980812C
:1004E00085FFF5CFCE010E941602F1CFEB8DEC0F08
:1004F000FD2FF11DE35AFF4FF0829FB7F8940B8F49
:10050000EA89FB8980818062CFCF0F931F93CF93BD
:10051000DF938C01D0E0C0E0F801EC0FFD1F649187
:10052000662341F08DEB92E00E943802892B11F096
:100530002196F2CFCE01DF91CF911F910F910895B7
:10054000CF93DF93EC01888D8823B9F0AA89BB890A
:10055000E889F9898C9185FD03C0808186FD0DC0F5
:100560000FB607FCF7CF8C9185FFF2CF808185FF16
:10057000EDCFCE010E941602E9CFDF91CF91089511
:1005800090E0FC01E156FE4F2491FC01EE53FE4F3A
:100590003491FC01E052FE4FE491EE23C9F0222396
:1005A00039F0233001F1A8F4213019F1223029F17A
:1005B000F0E0EE0FFF1FEA52FE4FA591B4918FB706
:1005C000F894EC91611126C030953E233C938FBF87
:1005D00008952730A9F02830C9F0243049F78091D8
:1005E00080008F7D03C0809180008F778093800092
:1005F000DFCF84B58F7784BDDBCF84B58F7DFBCF14
:100600008091B0008F778093B000D2CF8091B000FE
:100610008F7DF9CF3E2BDACF9091050189130BC066
:10062000E4EFF1E0E4919FEF90930501E13049F0B0
:1006300028F0E23061F060E00C94C00210926E008D
:10064000FACF90916F009D7F90936F00F4CF9091BF
:1006500070009D7F9093700091E09093B000909116
:10066000B100987F94609093B1001092B300E3CFF3
:10067000CF93DF9390E0FC01EE53FE4F2491805224
:100680009E4FFC0184918823D1F090E0880F991F40
:10069000FC01EB56FE4FA591B491FC01EA52FE4FCE
:1006A000C591D491623071F49FB7F8943C91822F38
:1006B000809583238C93E8812E2B28839FBFDF9125
:1006C000CF9108958FB7F894EC912E2B2C938FBF78
:1006D000F6CF4F925F926F927F928F929F92AF92DE
:1006E000BF92CF92DF92EF92FF920F931F93CF931F
:1006F000DF9300D000D01F92CDB7DEB78C014983C5
:100700005A836B837C83809105018C30C9F08F3FC5
:1007100009F47DC00F900F900F900F900F90DF9114
:10072000CF911F910F91FF90EF90DF90CF90BF90EE
:10073000AF909F908F907F906F905F904F900895B3
:10074000E4EFF1E084918D8387FDE4CF61E08CE0FC
:100750000E9438038D81882321F09D81923009F019
:1007600044C14801B12CA12C60E072E18AE790E01D
:10077000A50198010E94901829013A017A016901A6
:1007800081E0C81AD108E108F1089FEFC916D10429
:10079000E104F10409F00CF4F7C060E472E48FE0C6
:1007A00090E0A50198010E94901869017A0181E00A
:1007B000C81AD108E108F1089D81923009F098C06B
:1007C0008FEFC816D104E104F10409F00CF4CAC19A
:1007D00060E970ED83E090E0A50198010E94901817
:1007E00069017A0191E0C91AD108E108F1088FEF97
:1007F000C816D104E104F10411F00CF065C183E0E6
:100800009091B100987F892B8093B100C5C08CE096
:1008100080930501E4EFF1E094919D839F3F09F4FB
:1008200079CF913029F158F0923009F43FC09D8181
:1008300097FD70CF61E08CE00E9438038ECF14BC2E
:1008400015BC84B5826084BD85B5816085BDECEE44
:10085000F1E0E491F0E0EE0FFF1FEA52FE4F8591C8
:100860009491EEECF1E0E491E09343021D826ECFAF
:1008700010928000109281008091810088608093A6
:10088000810080918100816080938100ECEEF1E035
:10089000E491F0E0EE0FFF1FEA52FE4F8591949134
:1008A000EEECF1E0E491E093420250CF1092B00000
:1008B0001092B1008091B00082608093B00080916E
:1008C000B10081608093B100ECEEF1E0E491F0E0E2
:1008D000EE0FFF1FEA52FE4F8591949190934102D3
:1008E00080934002EEECF1E0E491E0933F022ECFE2
:1008F0009FEFC916D104E104F10409F00CF473C0B0
:1009000068E478EE81E090E0A50198010E949018DB
:1009100069017A0181E0C81AD108E108F1089D81D6
:10092000992309F4EAC09FEFC916D104E104F10448
:1009300009F00CF4E0C0EAC064E274EF80E090E0FB
:10094000A50194010E94901869017A0181E0C81AFA
:10095000D108E108F10885E09FEFC916D104E10450
:10096000F10409F008F44CCF62E17AE780E090E00E
:10097000A50194010E94901869017A0181E0C81ACA
:10098000D108E108F108D5C081E09D81911138CFEF
:1009900095B5987F892B85BDD801AA0FBB1F2981EA
:1009A0003A814B815C810E94B51828EE33E040E02B
:1009B00050E00E946E188D81813009F44AC0823067
:1009C00009F459C08111A6CEC7BC20934C023093C4
:1009D0004D0240934E0250934F0280916E00826010
:1009E00080936E0097CE82E0D0CFB12CA12C60E036
:1009F00072E18AE790E0A50198010E9490186901D0
:100A00007A0181E0C81AD108E108F108C114D104C3
:100A100091E0E906F10464F491E08D81813009F000
:100A2000BBCF80918100887F892B80938100B4CFD8
:100A300068E478EE81E090E0A50198010E949018AA
:100A400069017A0181E0C81AD108E108F10893E050
:100A5000E4CFD0928900C09288002093480230935E
:100A6000490240934A0250934B0280916F0082608A
:100A700080936F004FCEC092B30020934402309316
:100A80004502409346025093470280917000826075
:100A9000809370003FCE84E09FEFC916D104E1043B
:100AA000F10409F008F474CF730162019AE0F5943F
:100AB000E794D794C7949A95D1F781E0C81AD108E2
:100AC000E108F10885E064CF68E478EE81E090E029
:100AD000A50198010E94901869017A0191E0C91A54
:100AE000D108E108F1088FEFC816D104E104F10440
:100AF00011F00CF021CF84E083CE83E09FEFC91684
:100B0000D104E104F10409F00CF442CF62E17AE788
:100B100080E090E0A50194010E94901869017A019B
:100B200081E0C81AD108E108F1089D81992309F4F0
:100B3000B2CF86E09FEFC916D104E104F10409F0B9
:100B400008F45ECE730162012AE0F594E794D7942D
:100B5000C7942A95D1F781E0C81AD108E108F108B5
:100B600087E04ECE82E04CCE3FB7F89480910E02E3
:100B700090910F02A0911002B091110226B5A89B8E
:100B800005C02F3F19F00196A11DB11D3FBFBA2F1F
:100B9000A92F982F8827BC01CD01620F711D811DDF
:100BA000911D42E0660F771F881F991F4A95D1F764
:100BB00008958F929F92AF92BF92CF92DF92EF9261
:100BC000FF924B015C010E94B4056B017C010E9405
:100BD000B4056C197D098E099F09683E7340810533
:100BE0009105A8F321E0821A9108A108B10888EEC6
:100BF000C80E83E0D81EE11CF11C81149104A104ED
:100C0000B10429F7FF90EF90DF90CF90BF90AF90A5
:100C10009F908F9008952FB7F89460910A02709179
:100C20000B0280910C0290910D022FBF089585ED6B
:100C30008093BC008091BC0084FDFCCF1092980290
:100C400008952091E601260F3327331F2132310505
:100C5000ECF420919802FC0190E080E0243069F0EF
:100C600082E00895A091E6012191AC014A535E4FC4
:100C7000A40FB52FB11D2C930196861798F3809180
:100C8000E601680F6093E60180E0089581E0089531
:100C90000895E091510280915002E81730F4F0E09D
:100CA000EE5AFD4F808190E008958FEF9FEF0895F9
:100CB00090915102809150022FEF3FEF981748F426
:100CC000E92FF0E0EE5AFD4F208130E09F5F9093D6
:100CD0005102C90108958091500290915102891BDF
:100CE000990B0895CF92DF92EF92FF920F931F938B
:100CF000CF93DF937C01CB018A01209199022223BB
:100D000089F0EB016B01C40ED51ECC15DD0569F031
:100D10006991D701ED91FC910190F081E02DC7011F
:100D20000995F3CF642F0E942106C801DF91CF916E
:100D30001F910F91FF90EF90DF90CF900895CF9388
:100D4000DF931F92CDB7DEB76983209199022223EA
:100D5000F9F02091BC02203258F021E030E0FC0193
:100D60003383228390E080E00F90DF91CF9108954C
:100D700080919A02E82FF0E0E556FD4F998190832B
:100D80008F5F80939A028093BC0281E090E0ECCF69
:100D900061E0CE0101960E942106F7CF3F924F926B
:100DA0005F926F927F928F929F92AF92BF92CF92FB
:100DB000DF92EF92FF920F931F93CF93DF932B015C
:100DC0003C017A01890120E2C22ED12C33243394D4
:100DD0003BECA32E37E0B32EC0916A03D0916B0396
:100DE00080916D0390916E039E0121503109242161
:100DF0003521C21BD30B9601281B390B0217130791
:100E000008F498012C173D0708F4E90120916C03C0
:100E1000B301A20104C076956795579547952A9529
:100E2000D2F790906603942A309299029092BB0276
:100E300010929A021092BC02029741F49927872DD2
:100E4000762D652D8AE593E00E949F06642D8AE544
:100E500093E00E949F06AE01B7018AE593E00E94ED
:100E6000720681E00E942601811125C084E6882E49
:100E7000C5010197F1F7309299029092BB0210924E
:100E80009A021092BC0280916D0390916E030297BA
:100E900029F460E08AE593E00E949F0660E08AE51D
:100EA00093E00E949F0681E00E9426018823A9F01A
:100EB0008A948110DDCFDF91CF911F910F91FF9028
:100EC000EF90DF90CF90BF90AF909F908F907F90EA
:100ED0006F905F904F903F9008954C0E5D1E611C87
:100EE000711CEC0EFD1E0C1B1D0B09F075CFE3CF22
:100EF00090E080E00895CF93DF93CDB7DEB76097A1
:100F00000FB6F894DEBF0FBECDBF1092180210923C
:100F1000170280E096E990931A028093190283E009
:100F200090E090931C0280931B0210921E0210927C
:100F30001D0280E092E09093200280931F028AE0DD
:100F400090E090932202809321021092240210924A
:100F5000230280E1E7E1F2E0DE01119601900D92BB
:100F60008A95E1F7FE013196AE01415F5F4F90E057
:100F700080E0E417F50731F02191820F911D27FDE4
:100F80009A95F7CF909326028093250260960FB62C
:100F9000F894DEBF0FBECDBFDF91CF9108952F92A1
:100FA0003F924F925F926F927F928F929F92AF92F9
:100FB000BF92CF92DF92EF92FF920F931F93CF9346
:100FC000DF934B015C016A01890177247394332418
:100FD0003A9495EE592E25EC422EC0916A03D09199
:100FE0006B0380916C03A501940104C0569547954D
:100FF000379527958A95D2F7F0906603F22A70927A
:101000009902F092BB0210929A021092BC02809157
:101010006D0390916E03029741F499278B2D7A2DE1
:10102000692D8AE593E00E949F06682D8AE593E08A
:101030000E949F0681E00E942601682E81116FC0E8
:10104000809198028111FCCFCE01019788219921CE
:10105000C81BD90BC8010132110510F080E290E0E5
:101060008C179D0708F4EC019C2F709298027092E7
:10107000970230929602109295028C2F81508093A5
:1010800094027092730280917302FF0CF82AF0921E
:10109000730280917202813089F510927202809100
:1010A00073028093BB008091BC0083FDF8CF409217
:1010B000BC00809198028130E1F3809195028917FC
:1010C00010F490919502A4E7B2E0E2E5F2E080E04E
:1010D000891317C01092510280935002212CE22CE8
:1010E000F12CEC16FD0688F48AE593E00E94580680
:1010F000F601EE0DFF1D80832394F1CF5092BC00CA
:10110000D8CF2D9121938F5FE3CF8C0E9D1EA11C14
:10111000B11CCC0EDD1E0C1B1D0B09F05ECF862D05
:10112000DF91CF911F910F91FF90EF90DF90CF90C3
:10113000BF90AF909F908F907F906F905F904F90F7
:101140003F902F90089580916F0390917003A0912C
:101150007103B0917203883C9105A105B10548F077
:1011600028EC30E044E753E060E070E0CB010E94FF
:10117000CF0788EC90E00895FC0101900020E9F78A
:101180003197AF01481B590BBC018DEB92E00C94D9
:101190009801CF93DF930E94BC08EC018AE291E0B2
:1011A0000E94BC088C0F9D1FDF91CF910895CF93B3
:1011B000DF93682F8DEB92E00E943802EC018AE207
:1011C00091E00E94BC088C0F9D1FDF91CF91089584
:1011D000CF93DF930E948502EC018AE291E00E94A6
:1011E000BC088C0F9D1FDF91CF9108958F929F9225
:1011F000AF92BF92CF92DF92EF92FF920F931F9325
:10120000CF93DF93CDB7DEB7A1970FB6F894DEBFCB
:101210000FBECDBF6B017C01F7FE41C06DE28DEBCF
:1012200092E00E9438028C0122273327A9012C1951
:101230003D094E095F0919A2CE0181967C019AE011
:10124000892E912CA12CB12CCA01B901A5019401C0
:101250000E946E18605DF70162937F0121153105D0
:101260004105510589F790E080E0309719F0CF01F2
:101270000E94BC08800F911FA1960FB6F894DEBFA4
:101280000FBECDBFDF91CF911F910F91FF90EF90D7
:10129000DF90CF90BF90AF909F908F900895AC015A
:1012A0009B0119A28E010F5D1F4F8AE0C82ED12C21
:1012B000E12CF12CCA01B901A70196010E946E1818
:1012C000605DF80162938F012115310541055105DB
:1012D00089F790E080E0309779F2CF010E94BC0856
:1012E000CBCFCF92DF92EF92FF92CF93DF930E940A
:1012F000A308C3E7D3E0C12CD12C7601C6014981F4
:101300005A816B817C81452B462B472BB1F18DE2B5
:1013100091E00E94BC08C701B6010E94F6088AE26B
:1013200091E00E94BC088FE391E00E94BC086981B3
:101330007A818B819C810E94F6088AE291E00E946A
:10134000BC0887E491E00E94BC086D817E818F819A
:1013500098850E94F6088AE291E00E94BC082896CF
:101360008FEFC81AD80AE80AF80A89E1C816D1042A
:10137000E104F10419F689E190E0DF91CF91FF904B
:10138000EF90DF90CF9008952F923F924F925F920F
:101390006F927F928F929F92AF92BF92CF92DF9285
:1013A000EF92FF920F931F93CF93DF93CDB7DEB7EA
:1013B000C958D1090FB6F894DEBF0FBECDBFFC01EE
:1013C00023E0EE0FFF1F2A95E1F7ED58FC4FC18097
:1013D000D280E380F48029ECC216D104E104F10448
:1013E00008F4F1C01C0185819681A781B085412C4C
:1013F000512C32019C01AD012F5F3F4F4F4F5F4F8A
:10140000CC57DF4F288339834A835B83C458D0404D
:10141000AE014D5F5F4FCE57DF4F59834883C258AF
:10142000D0408E0107581F4FC8010296C857DF4FA2
:1014300099838883C858D04083E5A82E81E0B82ED0
:1014400097E5892E91E0992ECC57DF4F288139817D
:101450004A815B81C458D040C216D306E406F50623
:1014600008F0B1C040916F03509170036091710317
:1014700070917203D701C6010896A11DB11D4817CE
:1014800059076A077B0740F028E030E04CE354E05E
:10149000C701B6010E94CF0739E0C30ED11CE11C81
:1014A000F11C1A821982CE57DF4FA881B981C25828
:1014B000D040E6E71D92EA95E9F7D8011D921C920B
:1014C000C857DF4FE881F981C858D04027E0119212
:1014D0002A95E9F780913C0490913D04A0913E0447
:1014E000B0913F04480E591E6A1E7B1E6DE471E0E8
:1014F000CE0101960E94CF183F922F92BF92AF92D9
:101500001F930F930E94DA18B801CE0101960E9432
:10151000CF187F926F925F924F92BF92AF921F93BC
:101520000F930E94DA18B801CE0101960E94CF18DD
:10153000809143048F93809142048F938091410462
:101540008F93809140048F93BF92AF921F930F931C
:101550000E94DA18B801CE0101960E94CF18FE0150
:1015600031960FB6F894DEBF0FBECDBF90E080E09D
:101570002191820F911D27FD9A950E171F07C1F724
:1015800099279F938F939F928F921F930F930E94FF
:10159000DA18B801CE0101960E94CF186FEA71E007
:1015A000CE0101960E94CF188AE591E00E94BC0806
:1015B000CE0101960E94BC080F900F900F900F90E3
:1015C0000F900F9041CFC757DF4F0FB6F894DEBF93
:1015D0000FBECDBFDF91CF911F910F91FF90EF9084
:1015E000DF90CF90BF90AF909F908F907F906F9043
:1015F0005F904F903F902F9008954F925F926F921F
:101600007F92AF92BF92CF92DF92EF92FF920F93B1
:101610001F93CF93DF93CDB7DEB7C05AD1090FB672
:10162000F894DEBF0FBECDBF1A821982FE01339639
:1016300024E9DF011D922A95E9F78E0109561F4F13
:10164000F8011192119228E0DF011D922A95E9F725
:101650002091C401222309F4E7C07A01A92EB82EF3
:10166000C72ED62E0E940B064090C0015090C1019B
:101670006090C2017090C301DC01CB01841995090F
:10168000A609B709A701FF0C660B770B4817590786
:101690006A077B0708F0C8C00E940B066093C00170
:1016A0007093C1018093C2019093C3016CE571E016
:1016B000CE0101960E94CF18809139028F938091BC
:1016C00038028F93809137028F93809136028F93E7
:1016D00043E5E42E41E0F42EFF92EF921F930F9327
:1016E0000E94DA18B801CE0101960E94CF18AF927D
:1016F000BF92CF92DF92FF92EF921F930F930E94BF
:10170000DA18B801CE0101960E94CF1867E671E0A1
:10171000CE0101960E94CF18E3E7F3E00FB6F894EC
:10172000DEBF0FBECDBF90E080E04181528163817A
:101730007481452B462B472B29F001963896893129
:10174000910599F723E0880F991F2A95E1F7FC018D
:10175000E559FC4F65817681878190850E947517D8
:1017600020E030E040E857E30E94D91720E030E065
:1017700048EC52E40E94D9170E943D177F936F9363
:1017800033E5E32E31E0F32EFF92EF921F930F9398
:101790000E94DA18B801CE0101960E94CF180E946B
:1017A000830101969F938F93FF92EF921F930F9364
:1017B0000E94DA18B801CE0101960E94CF18FE01EE
:1017C00031960FB6F894DEBF0FBECDBF90E080E03B
:1017D0002191820F911D27FD9A950E171F07C1F7C2
:1017E00099279F938F9387E591E09F938F931F9302
:1017F0000F930E94DA18B801CE0101960E94CF180B
:101800006FEA71E0CE0101960E94CF188AE591E05F
:101810000E94BC08CE0101960E94BC080F900F9058
:101820000F900F900F900F90C056DF4F0FB6F894A7
:10183000DEBF0FBECDBFDF91CF911F910F91FF9003
:10184000EF90DF90CF90BF90AF907F906F905F90C0
:101850004F9008958F929F92AF92BF92CF92DF9256
:10186000EF92FF920F931F93CF9310921202C1E059
:1018700080911202811186C180913A0290913B02BF
:10188000A0913C02B0913D02B095A09590958195B4
:101890009F4FAF4FBF4F8093360290933702A09374
:1018A0003802B09339024091210250912202052E54
:1018B000000C660B770B481759076A077B0794F5EE
:1018C0008091350281112EC0C093350248EC50E062
:1018D00060E070E0CB010E94FD0A0E940B0660935D
:1018E00031027093320280933302909334028091DC
:1018F00000018823B9F0E0912702F091280233E03B
:10190000EE0FFF1F3A95E1F7ED58FC4F8091010172
:1019100090910201A0910301B0910401818392830F
:10192000A383B483812C912C5401809135028823A8
:1019300009F49ECF80913A0290913B02A0913C0223
:10194000B0913D02B095A095909581959F4FAF4F76
:10195000BF4F8093360290933702A0933802B09322
:1019600039020E940B06009131021091320220913F
:101970003302309134026B017C01C01AD10AE20AB1
:10198000F30A48EC50E0C701B6010E94FD0A8091BD
:101990000001882309F448C0D701C60188199909B4
:1019A000AA09BB0980933C0490933D04A0933E0494
:1019B000B0933F048091360290913702A091380293
:1019C000B09139028093400490934104A093420463
:1019D000B093430460910101709102018091030171
:1019E00090910401693F2FEF7207810591050CF476
:1019F00080C0E0912702F091280223E0EE0FFF1F44
:101A00002A95E1F7ED58FC4F615071098109910960
:101A100065837683878390871092000162E370E08C
:101A200080E090E00E94D90580910001882309F4AC
:101A300088C08091360290913702A0913802B0910F
:101A400039020A97A105B1050CF07BC0E09129028B
:101A5000F0912A0283E0EE0FFF1F8A95E1F7ED581F
:101A6000FC4F8091010190910201A0910301B0917E
:101A700004010197A109B10985839683A783B087E3
:101A800080916F0390917003A0917103B0917203E4
:101A9000883C9105A105B10508F06AC0C093120207
:101AA0000E940B068090310290903202A090330287
:101AB000B0903402681979098A099B0948EC50E012
:101AC0000E94FD0A109235020E940B06809031029E
:101AD00090903202A0903302B090340268197909D4
:101AE0008A099B0948EC50E00E94FD0A1092C4014B
:101AF0003CC04B015C0128E0820E911CA11CB11C72
:101B000000916F0310917003209171033091720363
:101B1000081519052A053B0530F028E030E04CE3B4
:101B200054E00E94CE068FEF881A980AA80AB80AD5
:101B30008092010190920201A0920301B0920401EF
:101B40006DCF0E940B068090310290903202A090DF
:101B50003302B0903402681979098A099B0961320D
:101B60007E448105910508F071CF46015701DDCE15
:101B700028EC30E044E753E060E070E0CB010E94E5
:101B8000CE068CCFCF911F910F91FF90EF90DF90F9
:101B9000CF90BF90AF909F908F9008950F931F9319
:101BA000CF93DF9307E112E0C0E2D0E0F80161914A
:101BB0008F01CE010E942F172196C033D105B1F7B6
:101BC000DF91CF911F910F910895EF92FF920F93A4
:101BD0001F93CF93DF93CDB7DEB760970FB6F8941E
:101BE000DEBF0FBECDBF0E947B0787E1E82E82E0FB
:101BF000F82E00E210E0C8010E942717F701819338
:101C00007F010F5F1F4F00331105A9F74091250297
:101C10005091260280E1E7E1F2E0DE0111960190A9
:101C20000D928A95E1F7FE013196BE01615F7F4F0B
:101C300030E020E0E617F70731F08191280F311DE1
:101C400087FD3A95F7CF81E04217530709F080E00E
:101C500060960FB6F894DEBF0FBECDBFDF91CF9177
:101C60001F910F91FF90EF900895CF92DF92EF9226
:101C7000FF920F931F93CF93DF93CDB7DEB7CA5870
:101C8000D1090FB6F894DEBF0FBECDBF8C010E9404
:101C9000C908D8018C91853609F04AC08EE891E0D8
:101CA0000E94E808E3E7F3E08BE394E011821282FC
:101CB00013821482158216821782108638968E1728
:101CC0009F07A1F780916F0390917003A09171031A
:101CD000B0917203883C9105A105B10548F028EC4C
:101CE00030E044E753E060E070E0CB010E94CE06B4
:101CF000109228021092270289EC90E0A0E0B0E058
:101D00008093010190930201A0930301B093040119
:101D1000C657DF4F0FB6F894DEBF0FBECDBFDF91C1
:101D2000CF911F910F91FF90EF90DF90CF9008958A
:101D3000823799F58AE791E00E94E808F8018181ED
:101D40000E94D7088BE291E00E94C908D801119641
:101D50008C911197898312968C918823B9F08A838C
:101D60001B82CE0101960E94BC1697FD11C08BE626
:101D700091E00E94C908CE0101960E949E160E9421
:101D8000C4098DE791E00E94C908C2CF1A82E9CF49
:101D900082E691E00E94E808BBCF873739F486E5F8
:101DA00091E00E94E8080E942A0CB2CF8E3659F4C6
:101DB0008EE391E00E94E8088BE391E00E948502A7
:101DC0000E947109A5CF8C3629F487E291E00E9428
:101DD000E808F6CF833679F48091C501811106C0F9
:101DE00081E08093C50186E191E0D4CF1092C501D6
:101DF00086E091E0CFCF8136B1F48DEF90E00E9484
:101E0000850210E000E00E9483018017910734F002
:101E1000C8010E94C4090F5F1F4FF5CF86EF90E005
:101E20000E94850275CF823609F006C18DEE90E0E2
:101E30000E9485021A821982FE01339686E7DF012D
:101E40001D928A95E9F78E0107581F4FF8011192EC
:101E5000119288E0DF011D928A95E9F70E94E50D55
:101E6000811104C088E690E00E9485026DE871E06F
:101E7000CE0101960E94CF18809118028F93809115
:101E800017028F9383E5E82E81E0F82EFF92EF9200
:101E90001F930F930E94DA18B801CE0101960E9499
:101EA000CF186EE971E0CE0101960E94CF1869E665
:101EB00071E0CE0101960E94CF181F9281E08F93AE
:101EC000FF92EF921F930F930E94DA18B801CE0190
:101ED00001960E94CF181F921F92FF92EF921F93BC
:101EE0000F930E94DA18B801CE0101960E94CF1814
:101EF00080911A028F93809119028F9388EA91E062
:101F00009F938F931F930F930E94DA18B801CE010D
:101F100001960E94CF18809122028F938091210216
:101F20008F93FF92EF921F930F930E94DA18B801DC
:101F3000CE0101960E94CF1880911C028F93809150
:101F40001B028F93FF92EF921F930F930E94DA1858
:101F50000FB6F894DEBF0FBECDBFB801CE0101961B
:101F60000E94CF1880911E028F9380911D028F9343
:101F7000FF92EF921F930F930E94DA18B801CE01DF
:101F800001960E94CF18809120028F9380911F02AA
:101F90008F93FF92EF921F930F930E94DA18B8016C
:101FA000CE0101960E94CF18809124028F938091D8
:101FB00023028F93FF92EF921F930F930E94DA18E0
:101FC000B801CE0101960E94CF18CE0101967C0186
:101FD0000FB6F894DEBF0FBECDBF90E080E0F701F2
:101FE00021917F01820F911D27FD9A95E017F1073E
:101FF000B1F799279F938F938DEA91E09F938F93E9
:10200000FF92EF930E94DA18B701CE0101960E9469
:10201000CF188AE591E00E94BC08CE0101960E948B
:10202000BC0886EE90E00E9485020F900F900F9002
:102030000F900F900F906CCE833709F0B5C0C75743
:10204000DF4F19830883C958D0401A821982FE01D4
:10205000339682E6DF011D928A95E9F7D12CC12CD7
:10206000F12CE12CAE0147575F4F69E671E0C7578D
:10207000DF4F88819981C958D0400E94E3168C01B6
:10208000009709F44EC0F7013197E830F105B8F434
:10209000E45BFF4E0C94AF18541063106A1071107B
:1020A00078107F1086108D100E949E169093180253
:1020B00080931702B801CE0101960E94CF18BFEF9E
:1020C000EB1AFB0ACFCF0E94BC1670931A026093E2
:1020D0001902F0CF0E949E1690931C0280931B025F
:1020E000E9CF0E949E1690931E0280931D02E2CFBC
:1020F0000E949E169093200280931F02DBCF0E94C5
:102100009E169093220280932102D4CF0E949E16A5
:102110009093240280932302CDCF0E949E166C01DF
:10212000CECFE7E0EE16F1041CF48AED90E078CE15
:10213000FE0131969E012B593F4F90E080E0419186
:10214000840F911D47FD9A95E217F307C1F78C158F
:102150001D0459F780E1E7E1F2E0DE01A758BF4F27
:1021600001900D928A95E1F7FE01E758FF4FAF010C
:10217000425F5F4F90E080E04E175F0731F02191A2
:10218000820F911D27FD9A95F7CF90932602809399
:1021900025020E94CE0D80EE90E00E9485020E94F2
:1021A000E50D10921202B4CD843629F40E947B070B
:1021B0000E94CE0DF6CF843749F40E947B070E941F
:1021C000CE0D109212028AEC90E02ACE863631F4BF
:1021D00081E080933E0284EC90E022CE873629F4A1
:1021E00010923E028EEB90E01BCE883619F488EBFD
:1021F00090E016CE893609F48BCD8937A9F4119673
:102200008C91813351F485EA90E00E94850281E04F
:102210008093C4018BE890E003CE81E990E00E94B6
:1022200085021092C401F6CF8D3619F485E890E04E
:10223000F7CD803219F48FE790E0F2CD85E790E09A
:102240000E948502F80180810E94D70861CD1F920B
:102250000F920FB60F9211242F933F934F935F93DA
:102260006F937F938F939F93AF93BF93EF93FF935E
:102270008091440290914502A0914602B09147029C
:10228000892B8A2B8B2BD1F190913F02E091400258
:10229000F09141028081892780838091440290914E
:1022A0004502A0914602B0914702181619061A0677
:1022B0001B069CF48091440290914502A091460235
:1022C000B09147020197A109B1098093440290930C
:1022D0004502A0934602B0934702FF91EF91BF9150
:1022E000AF919F918F917F916F915F914F913F91AE
:1022F0002F910F900FBE0F901F90189580910501A0
:102300000E940C03EACF1F920F920FB60F92112476
:102310002F933F934F935F936F937F938F939F93ED
:10232000AF93BF93EF93FF938DEB92E00E94160261
:10233000FF91EF91BF91AF919F918F917F916F919D
:102340005F914F913F912F910F900FBE0F901F9073
:1023500018951F920F920FB60F9211242F938F93FF
:102360009F93EF93FF93E091CD02F091CE02808195
:10237000E091D302F091D40282FD1BC09081809144
:10238000D6028F5F8F732091D702821741F0E091C0
:10239000D602F0E0E354FD4F958F8093D602FF9173
:1023A000EF919F918F912F910F900FBE0F901F90E3
:1023B00018958081F4CF1F920F920FB60F921124BF
:1023C0002F933F938F939F93AF93BF9380910A0274
:1023D00090910B02A0910C02B0910D023091090274
:1023E00023E0230F2D3758F50196A11DB11D209331
:1023F000090280930A0290930B02A0930C02B093FF
:102400000D0280910E0290910F02A0911002B091E6
:1024100011020196A11DB11D80930E0290930F022F
:10242000A0931002B0931102BF91AF919F918F9131
:102430003F912F910F900FBE0F901F90189526E897
:10244000230F0296A11DB11DD2CF1F920F920FB67E
:102450000F9211242F933F934F935F936F937F932A
:102460008F939F93AF93BF93EF93FF938091B900A6
:10247000887F803609F44AC0F0F5883209F4A7C095
:1024800018F5803109F49BC0B8F4882309F4F9C029
:10249000883009F494C0FF91EF91BF91AF919F9163
:1024A0008F917F916F915F914F913F912F910F90FD
:1024B0000FBE0F901F901895883109F488C08032A4
:1024C00051F78093960214C0803409F49DC040F403
:1024D0008033B9F38833F9F68093960285ECB0C067
:1024E000803509F485C0883509F496C0883499F69A
:1024F0000E941706D0CF883909F48CC038F5883788
:1025000029F050F4883611F0803729F683E0809363
:1025100098021092080257C0883809F47BC08039AD
:1025200019F0803809F0B7CF80910802803208F0A6
:1025300071C0E091080281E08E0F809308028091C3
:10254000BB00F0E0E851FE4F80833DC0803B39F096
:10255000E0F4803A09F479C0883A09F09CCF84E02D
:10256000809398021092E7011092E601E091150223
:10257000F091160209958091E60181110FC081E06A
:102580008093E6011092C60109C0803C09F4A6CFF1
:10259000883C09F4A3CF883B09F07DCFE091E701A7
:1025A00081E08E0F8093E701F0E0EA53FE4F8081D7
:1025B0008093BB009091E7018091E60129C0809152
:1025C00073028093BB0085EC8093BC0064CF909134
:1025D000950280919402981758F5E091950281E058
:1025E0008E0F80939502F0E0EC58FD4F8081E9CF8B
:1025F000E091950281E08E0F809395028091BB005F
:10260000F0E0EC58FD4F8083909195028091940208
:102610009817C8F285E8D8CFE091950281E08E0F37
:10262000809395028091BB00F0E0EC58FD4F8083D1
:102630008091970281115CCF81E08093720284EADD
:102640008093BC001092980226CF85EC8093BC004A
:102650001092980280910802803230F4E0910802D2
:10266000F0E0E851FE4F10826091080270E0E091C6
:102670001302F091140288EE91E00995109208027D
:102680000ACF1092960234CFEDEBF2E01382128261
:1026900088EE93E0A0E0B0E084839583A683B783BF
:1026A0002AE031E03183208325EC30E03587248730
:1026B00024EC30E03787268720EC30E0318B208B0C
:1026C00021EC30E0338B228B22EC30E0358B248BF5
:1026D00026EC30E0378B268B118E128E138E148EE3
:1026E000EAE5F3E01382128284839583A683B7839D
:1026F0008CE191E091838083E6E6F3E080E092E074
:102700009283818381E0838380E490E09583848356
:1027100080E5808380E090E0A1E0B0E0818792874F
:10272000A387B48782E090E09087878380E18683E7
:102730000895CF93DF93CDB7DEB7C456D1090FB656
:10274000F894DEBF0FBECDBF789484B5826084BD9F
:1027500084B5816084BD85B5826085BD85B58160A5
:1027600085BD80916E00816080936E001092810023
:1027700080918100826080938100809181008160DE
:10278000809381008091800081608093800080919F
:10279000B10084608093B1008091B000816080932B
:1027A000B00080917A00846080937A0080917A00F2
:1027B000826080937A0080917A00816080937A00B1
:1027C00080917A00806880937A001092C1000E9404
:1027D000E50D811104C00E947B070E94CE0D8091FF
:1027E000190290911A02092E000CAA0BBB0B8C3215
:1027F00021E09207A105B10589F1803B24E0920711
:10280000A105B10559F1803629E09207A105B1056E
:1028100029F1803C22E19207A105B105F9F0803849
:1028200025E29207A105B105C9F0803428E392079B
:10283000A105B10599F081152BE49207A105B10519
:1028400069F080389047A105B10541F080E096E934
:1028500090931A02809319020E94CE0D10921202D8
:10286000109251021092500210929A021092BC02E1
:102870001092980281E0809397021092720261E0B8
:1028800082E10E94C00261E083E10E94C002809167
:10289000B9008E7F8093B9008091B9008D7F8093BD
:1028A000B90088E48093B80085E48093BC0086E991
:1028B00091E0909316028093150287E991E090933E
:1028C000140280931302C0901902D0901A020D2CAA
:1028D000000CEE08FF0860E079E08DE390E0A701CE
:1028E00096010E946E1821503109410951095695EF
:1028F000479537952795E091CD02F091CE0282E081
:102900008083211580E13807A8F0E091CD02F09195
:10291000CE02108260E874E88EE190E0A701960193
:102920000E946E1821503109410951095695479569
:1029300037952795E091C902F091CA023083E09162
:10294000CB02F091CC0220831092D502E091D1020B
:10295000F091D20286E08083E091CF02F091D00224
:10296000808180618083E091CF02F091D0028081EC
:1029700088608083E091CF02F091D00280818068EE
:102980008083E091CF02F091D00280818F7D80839F
:1029900062E080E00E94380383EB91E00E948502B0
:1029A00061E08CE00E94380360E08CE00E94C0028D
:1029B00048EE53E060E070E090E080E00E94690340
:1029C0006CED75E080E090E00E94D9058CE00E94FB
:1029D0000C030AE010E062E370E080E090E00E9407
:1029E000D90501501109B9F710923A0210923B0231
:1029F00010923C0210923D0280912102909122029D
:102A0000092E000CAA0BBB0B80932D0290932E0273
:102A1000A0932F02B09330020E94A3080E9483016A
:102A2000AC01092E000C660B770B77FFB4C0109237
:102A300028021092270289EC90E0A0E0B0E0809399
:102A4000010190930201A0930301B09304010E943D
:102A50008301AC01092E000C660B770B4F3F2FEF63
:102A6000520762077207C1F04831510561057105CF
:102A700009F4B5C063E0880F991F6A95E1F7FC017E
:102A8000ED58FC4F85819681A781B0858D3D9F4F84
:102A9000A105B1050CF0A3C081E08093000159ECC1
:102AA000852E912CA12CB12C10E000E040E2F42EF8
:102AB0008BE3F81609F431C180913E0281110AC1FD
:102AC00080913A0290913B02A0913C02B0913D026C
:102AD000B095A095909581959F4FAF4FBF4F809334
:102AE000360290933702A0933802B0933902809156
:102AF0003502882391F00E940B06409031025090DD
:102B000032026090330270903402641975098609AC
:102B1000970948EC50E00E94FD0A4091360250911E
:102B20003702609138027091390280912D029091A4
:102B30002E02A0912F02B091300284179507A607AC
:102B4000B7070CF453C044EF51E060E070E0CB01F4
:102B50000E94FD0A0E940B06E0903502E110BAC007
:102B60008DEB92E00E94F601892BB1F38DEB92E0A0
:102B70000E94D401F82E2BE38217D9F18AE0F816CF
:102B800059F3E1E0F0E0EC0FFD1FE00FF11FF082E0
:102B90000F5F1F4FE1CFE3E0880F991FEA95E1F740
:102BA000FC01ED58FC4F85819681A781B085019687
:102BB000A11DB11D8093010190930201A093030117
:102BC000B09304014F5F5F4F6F4F7F4F40932902D7
:102BD00050932A0260932B0270932C0238CF1092EC
:102BE000000182EB91E00E94C90859CF0E942A0C93
:102BF000B1CF68012FEFC21AD20AE1E0F0E0EC0F8A
:102C0000FD1FE00FF11F10820E94A3080E948301A4
:102C100097FF3FC01092290210922A0210922B02B5
:102C200010922C028092010190920201A092030165
:102C3000B09204010E948301AC01092E000C660BC6
:102C4000770B4F3F2FEF52076207720709F43FC01F
:102C50004831510561057105A1F023E0880F991FE6
:102C60002A95E1F7FC01ED58FC4FEE24E3948581B1
:102C70009681A781B0858D3D9F4FA105B1050CF0D0
:102C8000E12CE0920001CE0101960E94350E8601F2
:102C900063CFFC0133E0EE0FFF1F3A95E1F7ED58EB
:102CA000FC4F45815681678170854F5F5F4F6F4F45
:102CB0007F4F409301015093020160930301709391
:102CC000040101969093280280932702B3CFEE244B
:102CD000E394D7CF8DEB92E00E94F601892B09F4A3
:102CE000E7CE8DEB92E00E94D401F82E8BE3F8162C
:102CF00069F02AE0F21671F3E1E0F0E0EC0FFD1F5D
:102D0000E00FF11FF0820F5F1F4FE4CFE1E0F0E032
:102D1000EC0FFD1FE00FF11F1082CE0101960E9403
:102D2000350E80E090E0892B09F4BECE0E940202AD
:102D3000882309F4B9CE0E940000B6CEFC01882792
:102D40009927E89421912032E9F3293010F02E30B0
:102D5000C8F32B3241F02D3239F4689404C00E943C
:102D60001F17820F911D219120532A30C0F31EF4AA
:102D7000909581959F4F08951F93FC01992788276F
:102D8000BC01E89411911032E9F3193010F01E30B3
:102D9000C8F31B3251F01D3249F4689406C00E94FA
:102DA0000A17610F711D811D911D119110531A3069
:102DB000B0F33EF490958095709561957F4F8F4F5D
:102DC0009F4F1F910895FA01A191B081009719F4C6
:102DD0001097E1F0CD01DC01CD010D90002011F440
:102DE000C00113C0FB012191222319F02015D9F74E
:102DF000F3CFFB012191201519F41E92119606C004
:102E00002223C1F70D900020A1F7D001FA01A19370
:102E1000B0830895592F482F372F262F660F771F1D
:102E2000881F991F660F771F881F991F620F731FD6
:102E3000841F951F660F771F881F991F08957AE0DA
:102E4000979F902D879F802D910D11240895F999BA
:102E5000FECF92BD81BDF89A992780B50895262F9F
:102E6000F999FECF1FBA92BD81BD20BD0FB6F8946F
:102E7000FA9AF99A0FBE019608950E944417689431
:102E8000B1110C94D31708950E94B81788F09F577A
:102E900098F0B92F9927B751B0F0E1F0660F771F7E
:102EA000881F991F1AF0BA95C9F714C0B13091F074
:102EB0000E94D217B1E008950C94D217672F782F93
:102EC0008827B85F39F0B93FCCF386957795679539
:102ED000B395D9F73EF490958095709561957F4FA5
:102EE0008F4F9F4F0895E89409C097FB3EF490954B
:102EF0008095709561957F4F8F4F9F4F9923A9F0D3
:102F0000F92F96E9BB279395F69587957795679561
:102F1000B795F111F8CFFAF4BB0F11F460FF1BC0A5
:102F20006F5F7F4F8F4F9F4F16C0882311F096E938
:102F300011C0772321F09EE8872F762F05C06623E6
:102F400071F096E8862F70E060E02AF09A95660F9F
:102F5000771F881FDAF7880F9695879597F9089558
:102F600057FD9058440F551F59F05F3F71F047953A
:102F7000880F97FB991F61F09F3F79F0879508951F
:102F8000121613061406551FF2CF4695F1DF08C03E
:102F9000161617061806991FF1CF8695710561055B
:102FA00008940895E894BB2766277727CB0197F903
:102FB00008950E94EC170C945D180E944F1838F089
:102FC0000E94561820F0952311F00C9446180C948A
:102FD0004C1811240C94D3170E94B01770F3959FCE
:102FE000C1F3950F50E0551F629FF001729FBB2700
:102FF000F00DB11D639FAA27F00DB11DAA1F649F9C
:103000006627B00DA11D661F829F2227B00DA11D4E
:10301000621F739FB00DA11D621F839FA00D611DD4
:10302000221F749F3327A00D611D231F849F600DF5
:10303000211D822F762F6A2F11249F5750409AF01E
:10304000F1F088234AF0EE0FFF1FBB1F661F771FAA
:10305000881F91505040A9F79E3F510580F00C9475
:1030600046180C94D3175F3FE4F3983ED4F386954B
:1030700077956795B795F795E7959F5FC1F7FE2B15
:10308000880F911D9695879597F9089597F99F67F1
:1030900080E870E060E008959FEF80EC08950024E0
:1030A0000A941616170618060906089500240A94AD
:1030B00012161306140605060895092E0394000C33
:1030C00011F4882352F0BB0F40F4BF2B11F460FFC2
:1030D00004C06F5F7F4F8F4F9F4F0895A1E21A2E5C
:1030E000AA1BBB1BFD010DC0AA1FBB1FEE1FFF1FAC
:1030F000A217B307E407F50720F0A21BB30BE40BFC
:10310000F50B661F771F881F991F1A9469F7609542
:103110007095809590959B01AC01BD01CF010895FC
:10312000052E97FB1EF400940E94A71857FD07D0A8
:103130000E946E1807FC03D04EF40C94A71850950B
:103140004095309521953F4F4F4F5F4F0895909593
:103150008095709561957F4F8F4F9F4F0895EE0F2B
:10316000FF1F0590F491E02D09940E94C018A59FBF
:10317000900DB49F900DA49F800D911D1124089572
:10318000A29FB001B39FC001A39F700D811D1124A8
:10319000911DB29F700D811D1124911D0895FB0199
:1031A000DC010D900020E9F7119701900D920020AD
:1031B000E1F70895AEE0B0E0E0EEF8E10C94891B91
:1031C0000D891E8986E08C831A8309838FEF9FE720
:1031D0009E838D83AE01475E5F4F6F89788DCE01F0
:1031E00001960E94FD182F813885020F131FF801E8
:1031F00010822E96E4E00C94A51BABE0B0E0E3E077
:10320000F9E10C947B1B7C013B018A01FC011782D4
:103210001682838181FFC8C1CE0101965C01F7014E
:103220009381F30193FD859193FF81913F01882361
:1032300009F453C1853239F493FD859193FF81914F
:103240003F01853229F4B70190E00E94ED1AE7CFE3
:10325000912C212C312CFFE1F31538F08B3211F138
:1032600090F4803209F1833229F137FC3CC020ED23
:10327000280F2A3050F536FE20C08AE0989E200D97
:103280001124922E06C08D3291F0803371F768942C
:1032900030F8F30193FD859193FF81913F018111F6
:1032A000DACF21C0689431F8689432F8F2CF68948C
:1032B00033F8EFCF689434F8ECCFEAE02E9E200D7F
:1032C0001124222E689435F8E4CF8E3229F436FC8E
:1032D00004C1689436F8DDCF8C3619F4689437F859
:1032E000D8CF8836B1F2982F9F7D95549330E0F077
:1032F0008336A1F18337C1F1833509F063C028011A
:10330000F2E04F0E511CF801C080D180692D70E0B1
:1033100036FC02C06FEF7FEFC6010E94D71A4C0146
:10332000689437F882010AC00C5F1F4FFFE3F983EE
:1033300088248394912C6501E89437F833FE2DC0DE
:10334000522C8114910471F5552009F468CFB7010E
:1033500080E290E00E94ED1A5A94F6CFF801808145
:1033600089830E5F1F4FE4CF2801F2E04F0E511CFE
:10337000F801C080D180692D70E036FC02C06FEF8B
:103380007FEFC6010E94E21A4C018201D5CFB7013E
:1033900080E290E00E94ED1A2A942814190409F0A2
:1033A000B0F7CECFF60137FC859137FE81916F01E2
:1033B000B70190E00E94ED1A51105A94F1E08F1A73
:1033C0009108BFCF843619F0893609F077C0F8012B
:1033D00037FE6BC060817181828193810C5F1F4FCA
:1033E000F32DFF763F2E97FF09C09095809570953D
:1033F00061957F4F8F4F9F4F689437F82AE030E0F8
:10340000A5010E941D1BC82ECA188C2C432C36FE09
:103410000CC0E89440F8C91440F434FE05C032FCF6
:1034200003C0F32DFE7E4F2E892C44FE95C0FE0175
:10343000EC0DF11D8081803309F087C0242D297E99
:10344000422E842D8870582E43FC95C040FE8FC0BC
:103450009C2C821418F42C0C922C981844FE91C0C9
:10346000B70180E390E00E94ED1A42FE09C088E7B0
:1034700090E041FE02C088E590E0B7010E94ED1A9D
:10348000C91408F48AC0CA94D12C9FEFC91AD90A6A
:10349000CA0CDB1CF60182916F01B70190E00E941B
:1034A000ED1AAC14BD04B1F74FCF60817181072EC6
:1034B000000C880B990B0E5F1F4F92CFD32CE89412
:1034C000D4F82AE030E0853739F1232D297FD22E38
:1034D0008F3601F148F48835A9F0F701868197818C
:1034E0002B96E2E10C94971B803749F08837A9F7B7
:1034F000D4FE02C06894D2F820E130E00DC0689498
:10350000D4F8F6CF34FE03C0822F8660D82E20E197
:1035100032E002C028E030E0F801D7FE0FC0608141
:103520007181828193810C5F1F4FA5010E941D1B39
:10353000C82ECA183D2CE89437F867CF6081718196
:1035400090E080E00E5F1F4FF0CF42FC02C08394FA
:1035500078CF8394839475CF842D867809F471CFC6
:10356000F6CFB70180E290E00E94ED1A83948214B6
:10357000C0F3512C73CF522C5818821408F46ECF1C
:10358000F8CF842D867809F47BCF8BE241FE80E270
:1035900047FC8DE2B70190E071CFB70180E390E086
:1035A0000E94ED1A9A946CCF8FEF9FEF99CFFC0198
:1035B0000590615070400110D8F7809590958E0F5E
:1035C0009F1F0895FC016150704001900110D8F7D1
:1035D000809590958E0F9F1F08950F931F93CF9303
:1035E000DF93182F092FEB018B8181FD09C01FEF9D
:1035F0000FEF812F902FDF91CF911F910F910895A1
:1036000082FF14C02E813F818C819D81281739074C
:103610003CF4E881F981CF01019699838883108376
:103620008E819F8101969F838E83E3CFE885F98504
:10363000812F0995892BA1F3DACFFA01AA27283027
:1036400051F1203181F1E8946F936E7F6E5F7F4F6F
:103650008F4F9F4FAF4FB1E03ED0B4E03CD0670FEB
:10366000781F891F9A1FA11D680F791F8A1F911D3E
:10367000A11D6A0F711D811D911DA11D20D009F48E
:1036800068943F912AE0269F11243019305D3193D0
:10369000DEF6CF010895462F4770405D4193B3E0B9
:1036A0000FD0C9F7F6CF462F4F70405D4A3318F060
:1036B000495D31FD4052419302D0A9F7EACFB4E011
:1036C000A6959795879577956795BA95C9F70097C9
:1036D0006105710508959B01AC010A2E069457956A
:1036E000479537952795BA95C9F7620F731F841FC1
:1036F000951FA01D08952F923F924F925F926F9257
:103700007F928F929F92AF92BF92CF92DF92EF9271
:10371000FF920F931F93CF93DF93CDB7DEB7CA1BF2
:10372000DB0B0FB6F894DEBF0FBECDBF09942A881D
:10373000398848885F846E847D848C849B84AA84C5
:10374000B984C884DF80EE80FD800C811B81AA8152
:10375000B981CE0FD11D0FB6F894DEBF0FBECDBF1D
:08376000ED010895F894FFCF7C
:1037680001C8000000FF0000000038029801C501F0
:10377800A002F601D401E801000000009F067206CD
:10378800780748066B06580649060D0A0054687201
:103798007573744375727665204E62723A200053D1
:1037A800746172743A2000456E643A200064617452
:1037B800612C0025692C00256900240074656C655E
:1037C8006D657472792C002D312C005374617274FC
:1037D80054687275737443757276653B00456E6400
:1037E80054687275737443757276653B00746573BB
:1037F800747374616E64636F6E6669672C005465D8
:1038080073745374616E6400256C752C0025693BD4
:103818000A0043616E6E6F74207265636F72640094
:00000001FF
